{
  "contractName": "BuildingToken",
  "abi": [
    {
      "inputs": [
        {
          "internalType": "address",
          "name": "_rentToken",
          "type": "address"
        },
        {
          "internalType": "address",
          "name": "_deedToken",
          "type": "address"
        }
      ],
      "stateMutability": "nonpayable",
      "type": "constructor"
    },
    {
      "inputs": [
        {
          "internalType": "address",
          "name": "sender",
          "type": "address"
        },
        {
          "internalType": "uint256",
          "name": "balance",
          "type": "uint256"
        },
        {
          "internalType": "uint256",
          "name": "needed",
          "type": "uint256"
        },
        {
          "internalType": "uint256",
          "name": "tokenId",
          "type": "uint256"
        }
      ],
      "name": "ERC1155InsufficientBalance",
      "type": "error"
    },
    {
      "inputs": [
        {
          "internalType": "address",
          "name": "approver",
          "type": "address"
        }
      ],
      "name": "ERC1155InvalidApprover",
      "type": "error"
    },
    {
      "inputs": [
        {
          "internalType": "uint256",
          "name": "idsLength",
          "type": "uint256"
        },
        {
          "internalType": "uint256",
          "name": "valuesLength",
          "type": "uint256"
        }
      ],
      "name": "ERC1155InvalidArrayLength",
      "type": "error"
    },
    {
      "inputs": [
        {
          "internalType": "address",
          "name": "operator",
          "type": "address"
        }
      ],
      "name": "ERC1155InvalidOperator",
      "type": "error"
    },
    {
      "inputs": [
        {
          "internalType": "address",
          "name": "receiver",
          "type": "address"
        }
      ],
      "name": "ERC1155InvalidReceiver",
      "type": "error"
    },
    {
      "inputs": [
        {
          "internalType": "address",
          "name": "sender",
          "type": "address"
        }
      ],
      "name": "ERC1155InvalidSender",
      "type": "error"
    },
    {
      "inputs": [
        {
          "internalType": "address",
          "name": "operator",
          "type": "address"
        },
        {
          "internalType": "address",
          "name": "owner",
          "type": "address"
        }
      ],
      "name": "ERC1155MissingApprovalForAll",
      "type": "error"
    },
    {
      "inputs": [
        {
          "internalType": "address",
          "name": "owner",
          "type": "address"
        }
      ],
      "name": "OwnableInvalidOwner",
      "type": "error"
    },
    {
      "inputs": [
        {
          "internalType": "address",
          "name": "account",
          "type": "address"
        }
      ],
      "name": "OwnableUnauthorizedAccount",
      "type": "error"
    },
    {
      "anonymous": false,
      "inputs": [
        {
          "indexed": true,
          "internalType": "address",
          "name": "account",
          "type": "address"
        },
        {
          "indexed": true,
          "internalType": "address",
          "name": "operator",
          "type": "address"
        },
        {
          "indexed": false,
          "internalType": "bool",
          "name": "approved",
          "type": "bool"
        }
      ],
      "name": "ApprovalForAll",
      "type": "event"
    },
    {
      "anonymous": false,
      "inputs": [
        {
          "indexed": true,
          "internalType": "address",
          "name": "previousOwner",
          "type": "address"
        },
        {
          "indexed": true,
          "internalType": "address",
          "name": "newOwner",
          "type": "address"
        }
      ],
      "name": "OwnershipTransferred",
      "type": "event"
    },
    {
      "anonymous": false,
      "inputs": [
        {
          "indexed": true,
          "internalType": "address",
          "name": "operator",
          "type": "address"
        },
        {
          "indexed": true,
          "internalType": "address",
          "name": "from",
          "type": "address"
        },
        {
          "indexed": true,
          "internalType": "address",
          "name": "to",
          "type": "address"
        },
        {
          "indexed": false,
          "internalType": "uint256[]",
          "name": "ids",
          "type": "uint256[]"
        },
        {
          "indexed": false,
          "internalType": "uint256[]",
          "name": "values",
          "type": "uint256[]"
        }
      ],
      "name": "TransferBatch",
      "type": "event"
    },
    {
      "anonymous": false,
      "inputs": [
        {
          "indexed": true,
          "internalType": "address",
          "name": "operator",
          "type": "address"
        },
        {
          "indexed": true,
          "internalType": "address",
          "name": "from",
          "type": "address"
        },
        {
          "indexed": true,
          "internalType": "address",
          "name": "to",
          "type": "address"
        },
        {
          "indexed": false,
          "internalType": "uint256",
          "name": "id",
          "type": "uint256"
        },
        {
          "indexed": false,
          "internalType": "uint256",
          "name": "value",
          "type": "uint256"
        }
      ],
      "name": "TransferSingle",
      "type": "event"
    },
    {
      "anonymous": false,
      "inputs": [
        {
          "indexed": false,
          "internalType": "string",
          "name": "value",
          "type": "string"
        },
        {
          "indexed": true,
          "internalType": "uint256",
          "name": "id",
          "type": "uint256"
        }
      ],
      "name": "URI",
      "type": "event"
    },
    {
      "inputs": [
        {
          "internalType": "uint256",
          "name": "",
          "type": "uint256"
        }
      ],
      "name": "Buildings",
      "outputs": [
        {
          "internalType": "uint256",
          "name": "",
          "type": "uint256"
        }
      ],
      "stateMutability": "view",
      "type": "function",
      "constant": true
    },
    {
      "inputs": [
        {
          "internalType": "address",
          "name": "account",
          "type": "address"
        },
        {
          "internalType": "uint256",
          "name": "id",
          "type": "uint256"
        }
      ],
      "name": "balanceOf",
      "outputs": [
        {
          "internalType": "uint256",
          "name": "",
          "type": "uint256"
        }
      ],
      "stateMutability": "view",
      "type": "function",
      "constant": true
    },
    {
      "inputs": [
        {
          "internalType": "address[]",
          "name": "accounts",
          "type": "address[]"
        },
        {
          "internalType": "uint256[]",
          "name": "ids",
          "type": "uint256[]"
        }
      ],
      "name": "balanceOfBatch",
      "outputs": [
        {
          "internalType": "uint256[]",
          "name": "",
          "type": "uint256[]"
        }
      ],
      "stateMutability": "view",
      "type": "function",
      "constant": true
    },
    {
      "inputs": [
        {
          "internalType": "address",
          "name": "account",
          "type": "address"
        },
        {
          "internalType": "address",
          "name": "operator",
          "type": "address"
        }
      ],
      "name": "isApprovedForAll",
      "outputs": [
        {
          "internalType": "bool",
          "name": "",
          "type": "bool"
        }
      ],
      "stateMutability": "view",
      "type": "function",
      "constant": true
    },
    {
      "inputs": [],
      "name": "name",
      "outputs": [
        {
          "internalType": "string",
          "name": "",
          "type": "string"
        }
      ],
      "stateMutability": "view",
      "type": "function",
      "constant": true
    },
    {
      "inputs": [],
      "name": "owner",
      "outputs": [
        {
          "internalType": "address",
          "name": "",
          "type": "address"
        }
      ],
      "stateMutability": "view",
      "type": "function",
      "constant": true
    },
    {
      "inputs": [],
      "name": "renounceOwnership",
      "outputs": [],
      "stateMutability": "nonpayable",
      "type": "function"
    },
    {
      "inputs": [
        {
          "internalType": "address",
          "name": "from",
          "type": "address"
        },
        {
          "internalType": "address",
          "name": "to",
          "type": "address"
        },
        {
          "internalType": "uint256[]",
          "name": "ids",
          "type": "uint256[]"
        },
        {
          "internalType": "uint256[]",
          "name": "values",
          "type": "uint256[]"
        },
        {
          "internalType": "bytes",
          "name": "data",
          "type": "bytes"
        }
      ],
      "name": "safeBatchTransferFrom",
      "outputs": [],
      "stateMutability": "nonpayable",
      "type": "function"
    },
    {
      "inputs": [
        {
          "internalType": "address",
          "name": "from",
          "type": "address"
        },
        {
          "internalType": "address",
          "name": "to",
          "type": "address"
        },
        {
          "internalType": "uint256",
          "name": "id",
          "type": "uint256"
        },
        {
          "internalType": "uint256",
          "name": "value",
          "type": "uint256"
        },
        {
          "internalType": "bytes",
          "name": "data",
          "type": "bytes"
        }
      ],
      "name": "safeTransferFrom",
      "outputs": [],
      "stateMutability": "nonpayable",
      "type": "function"
    },
    {
      "inputs": [
        {
          "internalType": "address",
          "name": "operator",
          "type": "address"
        },
        {
          "internalType": "bool",
          "name": "approved",
          "type": "bool"
        }
      ],
      "name": "setApprovalForAll",
      "outputs": [],
      "stateMutability": "nonpayable",
      "type": "function"
    },
    {
      "inputs": [
        {
          "internalType": "bytes4",
          "name": "interfaceId",
          "type": "bytes4"
        }
      ],
      "name": "supportsInterface",
      "outputs": [
        {
          "internalType": "bool",
          "name": "",
          "type": "bool"
        }
      ],
      "stateMutability": "view",
      "type": "function",
      "constant": true
    },
    {
      "inputs": [],
      "name": "symbol",
      "outputs": [
        {
          "internalType": "string",
          "name": "",
          "type": "string"
        }
      ],
      "stateMutability": "view",
      "type": "function",
      "constant": true
    },
    {
      "inputs": [
        {
          "internalType": "address",
          "name": "newOwner",
          "type": "address"
        }
      ],
      "name": "transferOwnership",
      "outputs": [],
      "stateMutability": "nonpayable",
      "type": "function"
    },
    {
      "inputs": [
        {
          "internalType": "uint256",
          "name": "",
          "type": "uint256"
        }
      ],
      "name": "uri",
      "outputs": [
        {
          "internalType": "string",
          "name": "",
          "type": "string"
        }
      ],
      "stateMutability": "view",
      "type": "function",
      "constant": true
    },
    {
      "inputs": [
        {
          "internalType": "address",
          "name": "_tenant",
          "type": "address"
        },
        {
          "internalType": "uint256",
          "name": "amount",
          "type": "uint256"
        }
      ],
      "name": "chargeFee",
      "outputs": [],
      "stateMutability": "nonpayable",
      "type": "function"
    },
    {
      "inputs": [],
      "name": "chargeRentAllBuildings",
      "outputs": [],
      "stateMutability": "nonpayable",
      "type": "function"
    },
    {
      "inputs": [
        {
          "internalType": "uint256",
          "name": "_id",
          "type": "uint256"
        },
        {
          "internalType": "uint256",
          "name": "_rentAmount",
          "type": "uint256"
        }
      ],
      "name": "changeRent",
      "outputs": [],
      "stateMutability": "nonpayable",
      "type": "function"
    },
    {
      "inputs": [
        {
          "internalType": "uint256",
          "name": "_amount",
          "type": "uint256"
        }
      ],
      "name": "singlePayRent",
      "outputs": [],
      "stateMutability": "payable",
      "type": "function",
      "payable": true
    },
    {
      "inputs": [
        {
          "internalType": "uint256",
          "name": "_room",
          "type": "uint256"
        }
      ],
      "name": "viewRent",
      "outputs": [
        {
          "internalType": "uint256",
          "name": "",
          "type": "uint256"
        }
      ],
      "stateMutability": "view",
      "type": "function",
      "constant": true
    },
    {
      "inputs": [
        {
          "internalType": "address",
          "name": "_tenant",
          "type": "address"
        }
      ],
      "name": "viewDue",
      "outputs": [
        {
          "internalType": "uint256",
          "name": "",
          "type": "uint256"
        }
      ],
      "stateMutability": "view",
      "type": "function",
      "constant": true
    },
    {
      "inputs": [
        {
          "internalType": "address",
          "name": "_tenant",
          "type": "address"
        }
      ],
      "name": "viewLateness",
      "outputs": [
        {
          "internalType": "uint256",
          "name": "",
          "type": "uint256"
        }
      ],
      "stateMutability": "view",
      "type": "function",
      "constant": true
    },
    {
      "inputs": [
        {
          "internalType": "uint256",
          "name": "_building",
          "type": "uint256"
        }
      ],
      "name": "viewRooms",
      "outputs": [
        {
          "internalType": "uint256[]",
          "name": "",
          "type": "uint256[]"
        }
      ],
      "stateMutability": "view",
      "type": "function",
      "constant": true
    },
    {
      "inputs": [
        {
          "internalType": "address",
          "name": "_tenant",
          "type": "address"
        }
      ],
      "name": "viewBalance",
      "outputs": [
        {
          "internalType": "uint256",
          "name": "",
          "type": "uint256"
        }
      ],
      "stateMutability": "view",
      "type": "function",
      "constant": true
    },
    {
      "inputs": [],
      "name": "viewBuildings",
      "outputs": [
        {
          "internalType": "uint256[]",
          "name": "",
          "type": "uint256[]"
        }
      ],
      "stateMutability": "view",
      "type": "function",
      "constant": true
    },
    {
      "inputs": [],
      "name": "viewBuildingsAvailable",
      "outputs": [
        {
          "internalType": "uint256[]",
          "name": "",
          "type": "uint256[]"
        }
      ],
      "stateMutability": "view",
      "type": "function",
      "constant": true
    },
    {
      "inputs": [],
      "name": "viewBuildingsOwned",
      "outputs": [
        {
          "internalType": "uint256[]",
          "name": "",
          "type": "uint256[]"
        }
      ],
      "stateMutability": "view",
      "type": "function",
      "constant": true
    },
    {
      "inputs": [
        {
          "internalType": "uint256",
          "name": "_room",
          "type": "uint256"
        }
      ],
      "name": "viewTenantswithRoom",
      "outputs": [
        {
          "internalType": "address[]",
          "name": "",
          "type": "address[]"
        }
      ],
      "stateMutability": "view",
      "type": "function",
      "constant": true
    },
    {
      "inputs": [
        {
          "internalType": "uint256",
          "name": "roomID",
          "type": "uint256"
        }
      ],
      "name": "viewAvailableRooms",
      "outputs": [
        {
          "internalType": "uint256",
          "name": "",
          "type": "uint256"
        }
      ],
      "stateMutability": "view",
      "type": "function",
      "constant": true
    },
    {
      "inputs": [],
      "name": "createDeed",
      "outputs": [],
      "stateMutability": "nonpayable",
      "type": "function"
    },
    {
      "inputs": [],
      "name": "buyRentTokens",
      "outputs": [],
      "stateMutability": "payable",
      "type": "function",
      "payable": true
    },
    {
      "inputs": [
        {
          "internalType": "uint256",
          "name": "deed",
          "type": "uint256"
        },
        {
          "internalType": "uint256",
          "name": "id",
          "type": "uint256"
        },
        {
          "internalType": "uint256",
          "name": "amount",
          "type": "uint256"
        },
        {
          "internalType": "uint256",
          "name": "_rentAmount",
          "type": "uint256"
        }
      ],
      "name": "createRooms",
      "outputs": [],
      "stateMutability": "nonpayable",
      "type": "function"
    },
    {
      "inputs": [
        {
          "internalType": "uint256",
          "name": "_deedId",
          "type": "uint256"
        },
        {
          "internalType": "address",
          "name": "_to",
          "type": "address"
        }
      ],
      "name": "assignDeed",
      "outputs": [],
      "stateMutability": "nonpayable",
      "type": "function"
    },
    {
      "inputs": [
        {
          "internalType": "uint256",
          "name": "_deedId",
          "type": "uint256"
        }
      ],
      "name": "sendDeedToContractOwner",
      "outputs": [],
      "stateMutability": "nonpayable",
      "type": "function"
    },
    {
      "inputs": [
        {
          "internalType": "address",
          "name": "tenant",
          "type": "address"
        },
        {
          "internalType": "uint256",
          "name": "roomID",
          "type": "uint256"
        }
      ],
      "name": "assignTenant",
      "outputs": [],
      "stateMutability": "nonpayable",
      "type": "function"
    },
    {
      "inputs": [
        {
          "internalType": "uint256",
          "name": "roomID",
          "type": "uint256"
        }
      ],
      "name": "refundRoom",
      "outputs": [],
      "stateMutability": "nonpayable",
      "type": "function"
    }
  ],
  "bytecode": "0x60806040526040518060400160405280600a81526020017f526f6f6d546f6b656e7300000000000000000000000000000000000000000000815250600790816200004a919062000697565b506040518060400160405280600381526020017f52544b00000000000000000000000000000000000000000000000000000000008152506008908162000091919062000697565b503480156200009f57600080fd5b5060405162005dd938038062005dd98339818101604052810190620000c59190620007e8565b3360405180602001604052806000815250620000e7816200034260201b60201c565b50600073ffffffffffffffffffffffffffffffffffffffff168173ffffffffffffffffffffffffffffffffffffffff16036200015d5760006040517f1e4fbdf700000000000000000000000000000000000000000000000000000000815260040162000154919062000840565b60405180910390fd5b6200016e816200035760201b60201c565b5081600460006101000a81548173ffffffffffffffffffffffffffffffffffffffff021916908373ffffffffffffffffffffffffffffffffffffffff16021790555080600560006101000a81548173ffffffffffffffffffffffffffffffffffffffff021916908373ffffffffffffffffffffffffffffffffffffffff160217905550600460009054906101000a900473ffffffffffffffffffffffffffffffffffffffff1673ffffffffffffffffffffffffffffffffffffffff1663e8c8cc286040518163ffffffff1660e01b8152600401600060405180830381600087803b1580156200025c57600080fd5b505af115801562000271573d6000803e3d6000fd5b50505050600560009054906101000a900473ffffffffffffffffffffffffffffffffffffffff1673ffffffffffffffffffffffffffffffffffffffff1663e8c8cc286040518163ffffffff1660e01b8152600401600060405180830381600087803b158015620002e057600080fd5b505af1158015620002f5573d6000803e3d6000fd5b5050505033600660006101000a81548173ffffffffffffffffffffffffffffffffffffffff021916908373ffffffffffffffffffffffffffffffffffffffff16021790555050506200085d565b806002908162000353919062000697565b5050565b6000600360009054906101000a900473ffffffffffffffffffffffffffffffffffffffff16905081600360006101000a81548173ffffffffffffffffffffffffffffffffffffffff021916908373ffffffffffffffffffffffffffffffffffffffff1602179055508173ffffffffffffffffffffffffffffffffffffffff168173ffffffffffffffffffffffffffffffffffffffff167f8be0079c531659141344cd1fd0a4f28419497f9722a3daafe3b4186f6b6457e060405160405180910390a35050565b600081519050919050565b7f4e487b7100000000000000000000000000000000000000000000000000000000600052604160045260246000fd5b7f4e487b7100000000000000000000000000000000000000000000000000000000600052602260045260246000fd5b600060028204905060018216806200049f57607f821691505b602082108103620004b557620004b462000457565b5b50919050565b60008190508160005260206000209050919050565b60006020601f8301049050919050565b600082821b905092915050565b6000600883026200051f7fffffffffffffffffffffffffffffffffffffffffffffffffffffffffffffffff82620004e0565b6200052b8683620004e0565b95508019841693508086168417925050509392505050565b6000819050919050565b6000819050919050565b600062000578620005726200056c8462000543565b6200054d565b62000543565b9050919050565b6000819050919050565b620005948362000557565b620005ac620005a3826200057f565b848454620004ed565b825550505050565b600090565b620005c3620005b4565b620005d081848462000589565b505050565b5b81811015620005f857620005ec600082620005b9565b600181019050620005d6565b5050565b601f82111562000647576200061181620004bb565b6200061c84620004d0565b810160208510156200062c578190505b620006446200063b85620004d0565b830182620005d5565b50505b505050565b600082821c905092915050565b60006200066c600019846008026200064c565b1980831691505092915050565b600062000687838362000659565b9150826002028217905092915050565b620006a2826200041d565b67ffffffffffffffff811115620006be57620006bd62000428565b5b620006ca825462000486565b620006d7828285620005fc565b600060209050601f8311600181146200070f5760008415620006fa578287015190505b62000706858262000679565b86555062000776565b601f1984166200071f86620004bb565b60005b82811015620007495784890151825560018201915060208501945060208101905062000722565b8683101562000769578489015162000765601f89168262000659565b8355505b6001600288020188555050505b505050505050565b600080fd5b600073ffffffffffffffffffffffffffffffffffffffff82169050919050565b6000620007b08262000783565b9050919050565b620007c281620007a3565b8114620007ce57600080fd5b50565b600081519050620007e281620007b7565b92915050565b600080604083850312156200080257620008016200077e565b5b60006200081285828601620007d1565b92505060206200082585828601620007d1565b9150509250929050565b6200083a81620007a3565b82525050565b60006020820190506200085760008301846200082f565b92915050565b61556c806200086d6000396000f3fe6080604052600436106102035760003560e01c806391ccaf9011610118578063ca2f003d116100a0578063e985e9c51161006f578063e985e9c51461077d578063eb7f3b05146107ba578063f242432a146107d6578063f2fde38b146107ff578063f4c3d1241461082857610203565b8063ca2f003d146106b1578063d3beb298146106ee578063d52c58e914610717578063dfafb13b1461075457610203565b8063a22cb465116100e7578063a22cb465146105a8578063a8aff0d2146105d1578063a9efa214146105fa578063ae50822914610637578063c1a13d1a1461067457610203565b806391ccaf901461051f5780639310c3371461054a57806395d89b4114610554578063a0d587d31461057f57610203565b80631cce58dc1161019b578063680b42dd1161016a578063680b42dd1461043a5780636e0f15eb14610477578063715018a6146104b457806377ab85ca146104cb5780638da5cb5b146104f457610203565b80631cce58dc146103925780631f3defbe146103bd5780632eb2c2d6146103d45780634e1273f4146103fd57610203565b80630b231e30116101d75780630b231e30146102c45780630dba5d42146102ed5780630e89341c14610318578063171841191461035557610203565b8062fdd58e1461020857806301ffc9a7146102455780630363816a1461028257806306fdde0314610299575b600080fd5b34801561021457600080fd5b5061022f600480360381019061022a9190614565565b610851565b60405161023c91906145b4565b60405180910390f35b34801561025157600080fd5b5061026c60048036038101906102679190614627565b6108ab565b604051610279919061466f565b60405180910390f35b34801561028e57600080fd5b5061029761098d565b005b3480156102a557600080fd5b506102ae610c4a565b6040516102bb919061471a565b60405180910390f35b3480156102d057600080fd5b506102eb60048036038101906102e6919061473c565b610cd8565b005b3480156102f957600080fd5b50610302610df8565b60405161030f9190614827565b60405180910390f35b34801561032457600080fd5b5061033f600480360381019061033a919061473c565b610e50565b60405161034c919061471a565b60405180910390f35b34801561036157600080fd5b5061037c6004803603810190610377919061473c565b610ee4565b6040516103899190614827565b60405180910390f35b34801561039e57600080fd5b506103a7610f4f565b6040516103b49190614827565b60405180910390f35b3480156103c957600080fd5b506103d2610fe4565b005b3480156103e057600080fd5b506103fb60048036038101906103f69190614a46565b6110ab565b005b34801561040957600080fd5b50610424600480360381019061041f9190614bd8565b611153565b6040516104319190614827565b60405180910390f35b34801561044657600080fd5b50610461600480360381019061045c9190614c50565b611262565b60405161046e91906145b4565b60405180910390f35b34801561048357600080fd5b5061049e6004803603810190610499919061473c565b6112ab565b6040516104ab91906145b4565b60405180910390f35b3480156104c057600080fd5b506104c96112c8565b005b3480156104d757600080fd5b506104f260048036038101906104ed9190614c7d565b6112dc565b005b34801561050057600080fd5b506105096114cf565b6040516105169190614cf3565b60405180910390f35b34801561052b57600080fd5b506105346114f9565b6040516105419190614827565b60405180910390f35b610552611551565b005b34801561056057600080fd5b50610569611606565b604051610576919061471a565b60405180910390f35b34801561058b57600080fd5b506105a660048036038101906105a1919061473c565b611694565b005b3480156105b457600080fd5b506105cf60048036038101906105ca9190614d3a565b6119b3565b005b3480156105dd57600080fd5b506105f860048036038101906105f39190614565565b6119c9565b005b34801561060657600080fd5b50610621600480360381019061061c919061473c565b611c29565b60405161062e9190614e38565b60405180910390f35b34801561064357600080fd5b5061065e6004803603810190610659919061473c565b611cca565b60405161066b91906145b4565b60405180910390f35b34801561068057600080fd5b5061069b60048036038101906106969190614c50565b611cee565b6040516106a891906145b4565b60405180910390f35b3480156106bd57600080fd5b506106d860048036038101906106d39190614c50565b611d93565b6040516106e591906145b4565b60405180910390f35b3480156106fa57600080fd5b5061071560048036038101906107109190614565565b611ddc565b005b34801561072357600080fd5b5061073e6004803603810190610739919061473c565b611f6c565b60405161074b91906145b4565b60405180910390f35b34801561076057600080fd5b5061077b60048036038101906107769190614e5a565b611fad565b005b34801561078957600080fd5b506107a4600480360381019061079f9190614e9a565b61240e565b6040516107b1919061466f565b60405180910390f35b6107d460048036038101906107cf919061473c565b6124a2565b005b3480156107e257600080fd5b506107fd60048036038101906107f89190614eda565b612980565b005b34801561080b57600080fd5b5061082660048036038101906108219190614c50565b612a28565b005b34801561083457600080fd5b5061084f600480360381019061084a9190614f71565b612aae565b005b600080600083815260200190815260200160002060008473ffffffffffffffffffffffffffffffffffffffff1673ffffffffffffffffffffffffffffffffffffffff16815260200190815260200160002054905092915050565b60007fd9b67a26000000000000000000000000000000000000000000000000000000007bffffffffffffffffffffffffffffffffffffffffffffffffffffffff1916827bffffffffffffffffffffffffffffffffffffffffffffffffffffffff1916148061097657507f0e89341c000000000000000000000000000000000000000000000000000000007bffffffffffffffffffffffffffffffffffffffffffffffffffffffff1916827bffffffffffffffffffffffffffffffffffffffffffffffffffffffff1916145b80610986575061098582612b9f565b5b9050919050565b610995612c09565b6009600560009054906101000a900473ffffffffffffffffffffffffffffffffffffffff1673ffffffffffffffffffffffffffffffffffffffff166375794a3c6040518163ffffffff1660e01b8152600401602060405180830381865afa158015610a04573d6000803e3d6000fd5b505050506040513d601f19601f82011682018060405250810190610a289190614fc6565b908060018154018082558091505060019003906000526020600020016000909190919091505560001515600b6000600560009054906101000a900473ffffffffffffffffffffffffffffffffffffffff1673ffffffffffffffffffffffffffffffffffffffff166375794a3c6040518163ffffffff1660e01b8152600401602060405180830381865afa158015610ac3573d6000803e3d6000fd5b505050506040513d601f19601f82011682018060405250810190610ae79190614fc6565b815260200190815260200160002060009054906101000a90505050600a600560009054906101000a900473ffffffffffffffffffffffffffffffffffffffff1673ffffffffffffffffffffffffffffffffffffffff166375794a3c6040518163ffffffff1660e01b8152600401602060405180830381865afa158015610b71573d6000803e3d6000fd5b505050506040513d601f19601f82011682018060405250810190610b959190614fc6565b9080600181540180825580915050600190039060005260206000200160009091909190915055600560009054906101000a900473ffffffffffffffffffffffffffffffffffffffff1673ffffffffffffffffffffffffffffffffffffffff166340d097c3336040518263ffffffff1660e01b8152600401610c169190614cf3565b600060405180830381600087803b158015610c3057600080fd5b505af1158015610c44573d6000803e3d6000fd5b50505050565b60078054610c5790615022565b80601f0160208091040260200160405190810160405280929190818152602001828054610c8390615022565b8015610cd05780601f10610ca557610100808354040283529160200191610cd0565b820191906000526020600020905b815481529060010190602001808311610cb357829003601f168201915b505050505081565b806000610ce53383610851565b11610cef57600080fd5b6000600d60006010600086815260200190815260200160002054815260200190815260200160002060009054906101000a900473ffffffffffffffffffffffffffffffffffffffff169050610d57338285600160405180602001604052806000815250612980565b6001600f60006010600087815260200190815260200160002054815260200190815260200160002060008581526020019081526020016000206000828254610d9f9190615082565b92505081905550601360003373ffffffffffffffffffffffffffffffffffffffff1673ffffffffffffffffffffffffffffffffffffffff16815260200190815260200160002060009055610df33384612c90565b505050565b6060600a805480602002602001604051908101604052809291908181526020018280548015610e4657602002820191906000526020600020905b815481526020019060010190808311610e32575b5050505050905090565b606060028054610e5f90615022565b80601f0160208091040260200160405190810160405280929190818152602001828054610e8b90615022565b8015610ed85780601f10610ead57610100808354040283529160200191610ed8565b820191906000526020600020905b815481529060010190602001808311610ebb57829003601f168201915b50505050509050919050565b6060600e6000838152602001908152602001600020805480602002602001604051908101604052809291908181526020018280548015610f4357602002820191906000526020600020905b815481526020019060010190808311610f2f575b50505050509050919050565b6060600c60003373ffffffffffffffffffffffffffffffffffffffff1673ffffffffffffffffffffffffffffffffffffffff168152602001908152602001600020805480602002602001604051908101604052809291908181526020018280548015610fda57602002820191906000526020600020905b815481526020019060010190808311610fc6575b5050505050905090565b60005b600c60003373ffffffffffffffffffffffffffffffffffffffff1673ffffffffffffffffffffffffffffffffffffffff168152602001908152602001600020805490508110156110a857611095600c60003373ffffffffffffffffffffffffffffffffffffffff1673ffffffffffffffffffffffffffffffffffffffff1681526020019081526020016000208281548110611085576110846150b6565b5b9060005260206000200154612fe8565b80806110a0906150e5565b915050610fe7565b50565b60006110b5613367565b90508073ffffffffffffffffffffffffffffffffffffffff168673ffffffffffffffffffffffffffffffffffffffff16141580156110fa57506110f8868261240e565b155b1561113e5780866040517fe237d92200000000000000000000000000000000000000000000000000000000815260040161113592919061512d565b60405180910390fd5b61114b868686868661336f565b505050505050565b6060815183511461119f57815183516040517f5b059991000000000000000000000000000000000000000000000000000000008152600401611196929190615156565b60405180910390fd5b6000835167ffffffffffffffff8111156111bc576111bb61484e565b5b6040519080825280602002602001820160405280156111ea5781602001602082028036833780820191505090505b50905060005b84518110156112575761122761120f828761346790919063ffffffff16565b611222838761347b90919063ffffffff16565b610851565b82828151811061123a576112396150b6565b5b60200260200101818152505080611250906150e5565b90506111f0565b508091505092915050565b6000601660008373ffffffffffffffffffffffffffffffffffffffff1673ffffffffffffffffffffffffffffffffffffffff168152602001908152602001600020549050919050565b600060156000838152602001908152602001600020549050919050565b6112d0612c09565b6112da600061348f565b565b833373ffffffffffffffffffffffffffffffffffffffff16600560009054906101000a900473ffffffffffffffffffffffffffffffffffffffff1673ffffffffffffffffffffffffffffffffffffffff16639870dce0836040518263ffffffff1660e01b815260040161134f91906145b4565b602060405180830381865afa15801561136c573d6000803e3d6000fd5b505050506040513d601f19601f820116820180604052508101906113909190615194565b73ffffffffffffffffffffffffffffffffffffffff16146113b057600080fd5b6000601060008681526020019081526020016000205414806113e45750846010600086815260200190815260200160002054145b6113ed57600080fd5b61140833858560405180602001604052806000815250613555565b8460106000868152602001908152602001600020541461145d57600e60008681526020019081526020016000208490806001815401808255809150506001900390600052602060002001600090919091909150555b82600f6000878152602001908152602001600020600086815260200190815260200160002060008282546114919190615082565b925050819055508460106000868152602001908152602001600020819055508160156000868152602001908152602001600020819055505050505050565b6000600360009054906101000a900473ffffffffffffffffffffffffffffffffffffffff16905090565b6060600980548060200260200160405190810160405280929190818152602001828054801561154757602002820191906000526020600020905b815481526020019060010190808311611533575b5050505050905090565b343373ffffffffffffffffffffffffffffffffffffffff1631101561157557600080fd5b600460009054906101000a900473ffffffffffffffffffffffffffffffffffffffff1673ffffffffffffffffffffffffffffffffffffffff1663191dd14934336040518363ffffffff1660e01b81526004016115d29291906151c1565b600060405180830381600087803b1580156115ec57600080fd5b505af1158015611600573d6000803e3d6000fd5b50505050565b6008805461161390615022565b80601f016020809104026020016040519081016040528092919081815260200182805461163f90615022565b801561168c5780601f106116615761010080835404028352916020019161168c565b820191906000526020600020905b81548152906001019060200180831161166f57829003601f168201915b505050505081565b803373ffffffffffffffffffffffffffffffffffffffff16600560009054906101000a900473ffffffffffffffffffffffffffffffffffffffff1673ffffffffffffffffffffffffffffffffffffffff16639870dce0836040518263ffffffff1660e01b815260040161170791906145b4565b602060405180830381865afa158015611724573d6000803e3d6000fd5b505050506040513d601f19601f820116820180604052508101906117489190615194565b73ffffffffffffffffffffffffffffffffffffffff161461176857600080fd5b600560009054906101000a900473ffffffffffffffffffffffffffffffffffffffff1673ffffffffffffffffffffffffffffffffffffffff1663e985e9c533306040518363ffffffff1660e01b81526004016117c592919061512d565b602060405180830381865afa1580156117e2573d6000803e3d6000fd5b505050506040513d601f19601f8201168201806040525081019061180691906151ff565b611845576040517f08c379a000000000000000000000000000000000000000000000000000000000815260040161183c90615278565b60405180910390fd5b61184e826135ee565b600560009054906101000a900473ffffffffffffffffffffffffffffffffffffffff1673ffffffffffffffffffffffffffffffffffffffff166342842e0e33600660009054906101000a900473ffffffffffffffffffffffffffffffffffffffff16856040518463ffffffff1660e01b81526004016118cf93929190615298565b600060405180830381600087803b1580156118e957600080fd5b505af11580156118fd573d6000803e3d6000fd5b505050506000600b600084815260200190815260200160002060006101000a81548160ff02191690831515021790555081600a60018461193d91906152cf565b8154811061194e5761194d6150b6565b5b90600052602060002001819055506000600d600084815260200190815260200160002060006101000a81548173ffffffffffffffffffffffffffffffffffffffff021916908373ffffffffffffffffffffffffffffffffffffffff1602179055505050565b6119c56119be613367565b8383613a4a565b5050565b60106000828152602001908152602001600020543373ffffffffffffffffffffffffffffffffffffffff16600560009054906101000a900473ffffffffffffffffffffffffffffffffffffffff1673ffffffffffffffffffffffffffffffffffffffff16639870dce0836040518263ffffffff1660e01b8152600401611a4f91906145b4565b602060405180830381865afa158015611a6c573d6000803e3d6000fd5b505050506040513d601f19601f82011682018060405250810190611a909190615194565b73ffffffffffffffffffffffffffffffffffffffff1614611ab057600080fd5b6000600f60006010600086815260200190815260200160002054815260200190815260200160002060008481526020019081526020016000205490506000811115611c1e576001600f60006010600087815260200190815260200160002054815260200190815260200160002060008581526020019081526020016000206000828254611b3d91906152cf565b92505081905550611b61338585600160405180602001604052806000815250612980565b82601360008673ffffffffffffffffffffffffffffffffffffffff1673ffffffffffffffffffffffffffffffffffffffff1681526020019081526020016000208190555060126000848152602001908152602001600020849080600181540180825580915050600190039060005260206000200160009091909190916101000a81548173ffffffffffffffffffffffffffffffffffffffff021916908373ffffffffffffffffffffffffffffffffffffffff160217905550611c23565b600080fd5b50505050565b606060126000838152602001908152602001600020805480602002602001604051908101604052809291908181526020018280548015611cbe57602002820191906000526020600020905b8160009054906101000a900473ffffffffffffffffffffffffffffffffffffffff1673ffffffffffffffffffffffffffffffffffffffff1681526020019060010190808311611c74575b50505050509050919050565b60098181548110611cda57600080fd5b906000526020600020016000915090505481565b6000600460009054906101000a900473ffffffffffffffffffffffffffffffffffffffff1673ffffffffffffffffffffffffffffffffffffffff166370a08231836040518263ffffffff1660e01b8152600401611d4b9190614cf3565b602060405180830381865afa158015611d68573d6000803e3d6000fd5b505050506040513d601f19601f82011682018060405250810190611d8c9190614fc6565b9050919050565b6000601460008373ffffffffffffffffffffffffffffffffffffffff1673ffffffffffffffffffffffffffffffffffffffff168152602001908152602001600020549050919050565b60106000601360008573ffffffffffffffffffffffffffffffffffffffff1673ffffffffffffffffffffffffffffffffffffffff168152602001908152602001600020548152602001908152602001600020543373ffffffffffffffffffffffffffffffffffffffff16600560009054906101000a900473ffffffffffffffffffffffffffffffffffffffff1673ffffffffffffffffffffffffffffffffffffffff16639870dce0836040518263ffffffff1660e01b8152600401611ea191906145b4565b602060405180830381865afa158015611ebe573d6000803e3d6000fd5b505050506040513d601f19601f82011682018060405250810190611ee29190615194565b73ffffffffffffffffffffffffffffffffffffffff1614611f0257600080fd5b8160008111611f1057600080fd5b82601460008673ffffffffffffffffffffffffffffffffffffffff1673ffffffffffffffffffffffffffffffffffffffff1681526020019081526020016000206000828254611f5f9190615082565b9250508190555050505050565b6000600f6000601060008581526020019081526020016000205481526020019081526020016000206000838152602001908152602001600020549050919050565b611fb5612c09565b60005b600c60008373ffffffffffffffffffffffffffffffffffffffff1673ffffffffffffffffffffffffffffffffffffffff1681526020019081526020016000208054905081101561207c5782600c60008473ffffffffffffffffffffffffffffffffffffffff1673ffffffffffffffffffffffffffffffffffffffff1681526020019081526020016000208281548110612054576120536150b6565b5b90600052602060002001540361206957600080fd5b8080612074906150e5565b915050611fb8565b506001600b600084815260200190815260200160002060006101000a81548160ff02191690831515021790555060005b600a805490508110156121145782600a82815481106120ce576120cd6150b6565b5b90600052602060002001540361210157600a81815481106120f2576120f16150b6565b5b90600052602060002001600090555b808061210c906150e5565b9150506120ac565b503373ffffffffffffffffffffffffffffffffffffffff16600560009054906101000a900473ffffffffffffffffffffffffffffffffffffffff1673ffffffffffffffffffffffffffffffffffffffff16636352211e846040518263ffffffff1660e01b815260040161218791906145b4565b602060405180830381865afa1580156121a4573d6000803e3d6000fd5b505050506040513d601f19601f820116820180604052508101906121c89190615194565b73ffffffffffffffffffffffffffffffffffffffff161461235257600560009054906101000a900473ffffffffffffffffffffffffffffffffffffffff1673ffffffffffffffffffffffffffffffffffffffff1663e985e9c582306040518363ffffffff1660e01b815260040161224092919061512d565b602060405180830381865afa15801561225d573d6000803e3d6000fd5b505050506040513d601f19601f8201168201806040525081019061228191906151ff565b6122c0576040517f08c379a00000000000000000000000000000000000000000000000000000000081526004016122b790615278565b60405180910390fd5b600560009054906101000a900473ffffffffffffffffffffffffffffffffffffffff1673ffffffffffffffffffffffffffffffffffffffff166342842e0e3383856040518463ffffffff1660e01b815260040161231f93929190615298565b600060405180830381600087803b15801561233957600080fd5b505af115801561234d573d6000803e3d6000fd5b505050505b80600d600084815260200190815260200160002060006101000a81548173ffffffffffffffffffffffffffffffffffffffff021916908373ffffffffffffffffffffffffffffffffffffffff160217905550600c60008273ffffffffffffffffffffffffffffffffffffffff1673ffffffffffffffffffffffffffffffffffffffff1681526020019081526020016000208290806001815401808255809150506001900390600052602060002001600090919091909150555050565b6000600160008473ffffffffffffffffffffffffffffffffffffffff1673ffffffffffffffffffffffffffffffffffffffff16815260200190815260200160002060008373ffffffffffffffffffffffffffffffffffffffff1673ffffffffffffffffffffffffffffffffffffffff16815260200190815260200160002060009054906101000a900460ff16905092915050565b338180600460009054906101000a900473ffffffffffffffffffffffffffffffffffffffff1673ffffffffffffffffffffffffffffffffffffffff166370a08231846040518263ffffffff1660e01b81526004016125009190614cf3565b602060405180830381865afa15801561251d573d6000803e3d6000fd5b505050506040513d601f19601f820116820180604052508101906125419190614fc6565b101561254c57600080fd5b826000811161255a57600080fd5b60003390506000600d600060106000601360003373ffffffffffffffffffffffffffffffffffffffff1673ffffffffffffffffffffffffffffffffffffffff16815260200190815260200160002054815260200190815260200160002054815260200190815260200160002060009054906101000a900473ffffffffffffffffffffffffffffffffffffffff1690506000601460008473ffffffffffffffffffffffffffffffffffffffff1673ffffffffffffffffffffffffffffffffffffffff1681526020019081526020016000205490508087106127cf5780600460009054906101000a900473ffffffffffffffffffffffffffffffffffffffff1673ffffffffffffffffffffffffffffffffffffffff1663dd62ed3e33306040518363ffffffff1660e01b815260040161269292919061512d565b602060405180830381865afa1580156126af573d6000803e3d6000fd5b505050506040513d601f19601f820116820180604052508101906126d39190614fc6565b10156126e2576126e1615303565b5b600460009054906101000a900473ffffffffffffffffffffffffffffffffffffffff1673ffffffffffffffffffffffffffffffffffffffff166323b872dd8484846040518463ffffffff1660e01b815260040161274193929190615298565b6020604051808303816000875af1158015612760573d6000803e3d6000fd5b505050506040513d601f19601f8201168201806040525081019061278491906151ff565b506000601460008573ffffffffffffffffffffffffffffffffffffffff1673ffffffffffffffffffffffffffffffffffffffff16815260200190815260200160002081905550612977565b86600460009054906101000a900473ffffffffffffffffffffffffffffffffffffffff1673ffffffffffffffffffffffffffffffffffffffff1663dd62ed3e33306040518363ffffffff1660e01b815260040161282d92919061512d565b602060405180830381865afa15801561284a573d6000803e3d6000fd5b505050506040513d601f19601f8201168201806040525081019061286e9190614fc6565b101561287d5761287c615303565b5b600460009054906101000a900473ffffffffffffffffffffffffffffffffffffffff1673ffffffffffffffffffffffffffffffffffffffff166323b872dd84848a6040518463ffffffff1660e01b81526004016128dc93929190615298565b6020604051808303816000875af11580156128fb573d6000803e3d6000fd5b505050506040513d601f19601f8201168201806040525081019061291f91906151ff565b5086601460008573ffffffffffffffffffffffffffffffffffffffff1673ffffffffffffffffffffffffffffffffffffffff168152602001908152602001600020600082825461296f91906152cf565b925050819055505b50505050505050565b600061298a613367565b90508073ffffffffffffffffffffffffffffffffffffffff168673ffffffffffffffffffffffffffffffffffffffff16141580156129cf57506129cd868261240e565b155b15612a135780866040517fe237d922000000000000000000000000000000000000000000000000000000008152600401612a0a92919061512d565b60405180910390fd5b612a208686868686613bba565b505050505050565b612a30612c09565b600073ffffffffffffffffffffffffffffffffffffffff168173ffffffffffffffffffffffffffffffffffffffff1603612aa25760006040517f1e4fbdf7000000000000000000000000000000000000000000000000000000008152600401612a999190614cf3565b60405180910390fd5b612aab8161348f565b50565b813373ffffffffffffffffffffffffffffffffffffffff16600560009054906101000a900473ffffffffffffffffffffffffffffffffffffffff1673ffffffffffffffffffffffffffffffffffffffff16639870dce0836040518263ffffffff1660e01b8152600401612b2191906145b4565b602060405180830381865afa158015612b3e573d6000803e3d6000fd5b505050506040513d601f19601f82011682018060405250810190612b629190615194565b73ffffffffffffffffffffffffffffffffffffffff1614612b8257600080fd5b816015600085815260200190815260200160002081905550505050565b60007f01ffc9a7000000000000000000000000000000000000000000000000000000007bffffffffffffffffffffffffffffffffffffffffffffffffffffffff1916827bffffffffffffffffffffffffffffffffffffffffffffffffffffffff1916149050919050565b612c11613367565b73ffffffffffffffffffffffffffffffffffffffff16612c2f6114cf565b73ffffffffffffffffffffffffffffffffffffffff1614612c8e57612c52613367565b6040517f118cdaa7000000000000000000000000000000000000000000000000000000008152600401612c859190614cf3565b60405180910390fd5b565b60008273ffffffffffffffffffffffffffffffffffffffff166012600084815260200190815260200160002060016012600086815260200190815260200160002080549050612cdf91906152cf565b81548110612cf057612cef6150b6565b5b9060005260206000200160009054906101000a900473ffffffffffffffffffffffffffffffffffffffff1673ffffffffffffffffffffffffffffffffffffffff1603612d935760126000838152602001908152602001600020805480612d5957612d58615332565b5b6001900381819060005260206000200160006101000a81549073ffffffffffffffffffffffffffffffffffffffff02191690559055612fe3565b60005b60016012600085815260200190815260200160002080549050612db991906152cf565b811015612fe1578373ffffffffffffffffffffffffffffffffffffffff16601260008581526020019081526020016000208281548110612dfc57612dfb6150b6565b5b9060005260206000200160009054906101000a900473ffffffffffffffffffffffffffffffffffffffff1673ffffffffffffffffffffffffffffffffffffffff1603612ea65760019150600c60003373ffffffffffffffffffffffffffffffffffffffff1673ffffffffffffffffffffffffffffffffffffffff1681526020019081526020016000208181548110612e9757612e966150b6565b5b90600052602060002001600090555b8115612f765760126000848152602001908152602001600020600182612ecc9190615082565b81548110612edd57612edc6150b6565b5b9060005260206000200160009054906101000a900473ffffffffffffffffffffffffffffffffffffffff16601260008581526020019081526020016000208281548110612f2d57612f2c6150b6565b5b9060005260206000200160006101000a81548173ffffffffffffffffffffffffffffffffffffffff021916908373ffffffffffffffffffffffffffffffffffffffff1602179055505b60126000848152602001908152602001600020805480612f9957612f98615332565b5b6001900381819060005260206000200160006101000a81549073ffffffffffffffffffffffffffffffffffffffff021916905590558080612fd9906150e5565b915050612d96565b505b505050565b803373ffffffffffffffffffffffffffffffffffffffff16600560009054906101000a900473ffffffffffffffffffffffffffffffffffffffff1673ffffffffffffffffffffffffffffffffffffffff16639870dce0836040518263ffffffff1660e01b815260040161305b91906145b4565b602060405180830381865afa158015613078573d6000803e3d6000fd5b505050506040513d601f19601f8201168201806040525081019061309c9190615194565b73ffffffffffffffffffffffffffffffffffffffff16146130bc57600080fd5b60005b600e60008481526020019081526020016000208054905081101561336257600060126000600e60008781526020019081526020016000208481548110613108576131076150b6565b5b906000526020600020015481526020019081526020016000208054806020026020016040519081016040528092919081815260200182805480156131a157602002820191906000526020600020905b8160009054906101000a900473ffffffffffffffffffffffffffffffffffffffff1673ffffffffffffffffffffffffffffffffffffffff1681526020019060010190808311613157575b5050505050905060005b815181101561334d576000601460008484815181106131cd576131cc6150b6565b5b602002602001015173ffffffffffffffffffffffffffffffffffffffff1673ffffffffffffffffffffffffffffffffffffffff1681526020019081526020016000205411156132885760016016600084848151811061322f5761322e6150b6565b5b602002602001015173ffffffffffffffffffffffffffffffffffffffff1673ffffffffffffffffffffffffffffffffffffffff16815260200190815260200160002060008282546132809190615082565b925050819055505b60156000600e600088815260200190815260200160002085815481106132b1576132b06150b6565b5b9060005260206000200154815260200190815260200160002054601460008484815181106132e2576132e16150b6565b5b602002602001015173ffffffffffffffffffffffffffffffffffffffff1673ffffffffffffffffffffffffffffffffffffffff16815260200190815260200160002060008282546133339190615082565b925050819055508080613345906150e5565b9150506131ab565b5050808061335a906150e5565b9150506130bf565b505050565b600033905090565b600073ffffffffffffffffffffffffffffffffffffffff168473ffffffffffffffffffffffffffffffffffffffff16036133e15760006040517f57f447ce0000000000000000000000000000000000000000000000000000000081526004016133d89190614cf3565b60405180910390fd5b600073ffffffffffffffffffffffffffffffffffffffff168573ffffffffffffffffffffffffffffffffffffffff16036134535760006040517f01a8351400000000000000000000000000000000000000000000000000000000815260040161344a9190614cf3565b60405180910390fd5b6134608585858585613cc5565b5050505050565b600060208202602084010151905092915050565b600060208202602084010151905092915050565b6000600360009054906101000a900473ffffffffffffffffffffffffffffffffffffffff16905081600360006101000a81548173ffffffffffffffffffffffffffffffffffffffff021916908373ffffffffffffffffffffffffffffffffffffffff1602179055508173ffffffffffffffffffffffffffffffffffffffff168173ffffffffffffffffffffffffffffffffffffffff167f8be0079c531659141344cd1fd0a4f28419497f9722a3daafe3b4186f6b6457e060405160405180910390a35050565b600073ffffffffffffffffffffffffffffffffffffffff168473ffffffffffffffffffffffffffffffffffffffff16036135c75760006040517f57f447ce0000000000000000000000000000000000000000000000000000000081526004016135be9190614cf3565b60405180910390fd5b6000806135d48585613d77565b915091506135e6600087848487613cc5565b505050505050565b803373ffffffffffffffffffffffffffffffffffffffff16600560009054906101000a900473ffffffffffffffffffffffffffffffffffffffff1673ffffffffffffffffffffffffffffffffffffffff16639870dce0836040518263ffffffff1660e01b815260040161366191906145b4565b602060405180830381865afa15801561367e573d6000803e3d6000fd5b505050506040513d601f19601f820116820180604052508101906136a29190615194565b73ffffffffffffffffffffffffffffffffffffffff16146136c257600080fd5b600082600c60003373ffffffffffffffffffffffffffffffffffffffff1673ffffffffffffffffffffffffffffffffffffffff1681526020019081526020016000206001600c60003373ffffffffffffffffffffffffffffffffffffffff1673ffffffffffffffffffffffffffffffffffffffff1681526020019081526020016000208054905061375391906152cf565b81548110613764576137636150b6565b5b9060005260206000200154036137de57600c60003373ffffffffffffffffffffffffffffffffffffffff1673ffffffffffffffffffffffffffffffffffffffff1681526020019081526020016000208054806137c3576137c2615332565b5b60019003818190600052602060002001600090559055613a45565b60005b6001600c60003373ffffffffffffffffffffffffffffffffffffffff1673ffffffffffffffffffffffffffffffffffffffff1681526020019081526020016000208054905061383091906152cf565b811015613a435783600c60003373ffffffffffffffffffffffffffffffffffffffff1673ffffffffffffffffffffffffffffffffffffffff1681526020019081526020016000208281548110613889576138886150b6565b5b9060005260206000200154036138fd5760019150600c60003373ffffffffffffffffffffffffffffffffffffffff1673ffffffffffffffffffffffffffffffffffffffff16815260200190815260200160002081815481106138ee576138ed6150b6565b5b90600052602060002001600090555b81156139cb57600c60003373ffffffffffffffffffffffffffffffffffffffff1673ffffffffffffffffffffffffffffffffffffffff16815260200190815260200160002060018261394f9190615082565b815481106139605761395f6150b6565b5b9060005260206000200154600c60003373ffffffffffffffffffffffffffffffffffffffff1673ffffffffffffffffffffffffffffffffffffffff16815260200190815260200160002082815481106139bc576139bb6150b6565b5b90600052602060002001819055505b600c60003373ffffffffffffffffffffffffffffffffffffffff1673ffffffffffffffffffffffffffffffffffffffff168152602001908152602001600020805480613a1a57613a19615332565b5b600190038181906000526020600020016000905590558080613a3b906150e5565b9150506137e1565b505b505050565b600073ffffffffffffffffffffffffffffffffffffffff168273ffffffffffffffffffffffffffffffffffffffff1603613abc5760006040517fced3e100000000000000000000000000000000000000000000000000000000008152600401613ab39190614cf3565b60405180910390fd5b80600160008573ffffffffffffffffffffffffffffffffffffffff1673ffffffffffffffffffffffffffffffffffffffff16815260200190815260200160002060008473ffffffffffffffffffffffffffffffffffffffff1673ffffffffffffffffffffffffffffffffffffffff16815260200190815260200160002060006101000a81548160ff0219169083151502179055508173ffffffffffffffffffffffffffffffffffffffff168373ffffffffffffffffffffffffffffffffffffffff167f17307eab39ab6107e8899845ad3d59bd9653f200f220920489ca2b5937696c3183604051613bad919061466f565b60405180910390a3505050565b600073ffffffffffffffffffffffffffffffffffffffff168473ffffffffffffffffffffffffffffffffffffffff1603613c2c5760006040517f57f447ce000000000000000000000000000000000000000000000000000000008152600401613c239190614cf3565b60405180910390fd5b600073ffffffffffffffffffffffffffffffffffffffff168573ffffffffffffffffffffffffffffffffffffffff1603613c9e5760006040517f01a83514000000000000000000000000000000000000000000000000000000008152600401613c959190614cf3565b60405180910390fd5b600080613cab8585613d77565b91509150613cbc8787848487613cc5565b50505050505050565b613cd185858585613da7565b600073ffffffffffffffffffffffffffffffffffffffff168473ffffffffffffffffffffffffffffffffffffffff1614613d70576000613d0f613367565b90506001845103613d5f576000613d3060008661347b90919063ffffffff16565b90506000613d4860008661347b90919063ffffffff16565b9050613d58838989858589614155565b5050613d6e565b613d6d818787878787614309565b5b505b5050505050565b60608060405191506001825283602083015260408201905060018152826020820152604081016040529250929050565b8051825114613df157815181516040517f5b059991000000000000000000000000000000000000000000000000000000008152600401613de8929190615156565b60405180910390fd5b6000613dfb613367565b905060005b8351811015614010576000613e1e828661347b90919063ffffffff16565b90506000613e35838661347b90919063ffffffff16565b9050600073ffffffffffffffffffffffffffffffffffffffff168873ffffffffffffffffffffffffffffffffffffffff1614613f6257600080600084815260200190815260200160002060008a73ffffffffffffffffffffffffffffffffffffffff1673ffffffffffffffffffffffffffffffffffffffff16815260200190815260200160002054905081811015613f0a57888183856040517f03dee4c5000000000000000000000000000000000000000000000000000000008152600401613f019493929190615361565b60405180910390fd5b81810360008085815260200190815260200160002060008b73ffffffffffffffffffffffffffffffffffffffff1673ffffffffffffffffffffffffffffffffffffffff16815260200190815260200160002081905550505b600073ffffffffffffffffffffffffffffffffffffffff168773ffffffffffffffffffffffffffffffffffffffff1614613ffd578060008084815260200190815260200160002060008973ffffffffffffffffffffffffffffffffffffffff1673ffffffffffffffffffffffffffffffffffffffff1681526020019081526020016000206000828254613ff59190615082565b925050819055505b505080614009906150e5565b9050613e00565b5060018351036140cf57600061403060008561347b90919063ffffffff16565b9050600061404860008561347b90919063ffffffff16565b90508573ffffffffffffffffffffffffffffffffffffffff168773ffffffffffffffffffffffffffffffffffffffff168473ffffffffffffffffffffffffffffffffffffffff167fc3d58168c5ae7397731d063d5bbf3d657854427343f4c083240f7aacaa2d0f6285856040516140c0929190615156565b60405180910390a4505061414e565b8373ffffffffffffffffffffffffffffffffffffffff168573ffffffffffffffffffffffffffffffffffffffff168273ffffffffffffffffffffffffffffffffffffffff167f4a39dc06d4c0dbc64b70af90fd698a233a518aa5d07e595d983b8c0526c8f7fb86866040516141459291906153a6565b60405180910390a45b5050505050565b60008473ffffffffffffffffffffffffffffffffffffffff163b1115614301578373ffffffffffffffffffffffffffffffffffffffff1663f23a6e6187878686866040518663ffffffff1660e01b81526004016141b6959493929190615432565b6020604051808303816000875af19250505080156141f257506040513d601f19601f820116820180604052508101906141ef91906154a1565b60015b614276573d8060008114614222576040519150601f19603f3d011682016040523d82523d6000602084013e614227565b606091505b50600081510361426e57846040517f57f447ce0000000000000000000000000000000000000000000000000000000081526004016142659190614cf3565b60405180910390fd5b805181602001fd5b63f23a6e6160e01b7bffffffffffffffffffffffffffffffffffffffffffffffffffffffff1916817bffffffffffffffffffffffffffffffffffffffffffffffffffffffff1916146142ff57846040517f57f447ce0000000000000000000000000000000000000000000000000000000081526004016142f69190614cf3565b60405180910390fd5b505b505050505050565b60008473ffffffffffffffffffffffffffffffffffffffff163b11156144b5578373ffffffffffffffffffffffffffffffffffffffff1663bc197c8187878686866040518663ffffffff1660e01b815260040161436a9594939291906154ce565b6020604051808303816000875af19250505080156143a657506040513d601f19601f820116820180604052508101906143a391906154a1565b60015b61442a573d80600081146143d6576040519150601f19603f3d011682016040523d82523d6000602084013e6143db565b606091505b50600081510361442257846040517f57f447ce0000000000000000000000000000000000000000000000000000000081526004016144199190614cf3565b60405180910390fd5b805181602001fd5b63bc197c8160e01b7bffffffffffffffffffffffffffffffffffffffffffffffffffffffff1916817bffffffffffffffffffffffffffffffffffffffffffffffffffffffff1916146144b357846040517f57f447ce0000000000000000000000000000000000000000000000000000000081526004016144aa9190614cf3565b60405180910390fd5b505b505050505050565b6000604051905090565b600080fd5b600080fd5b600073ffffffffffffffffffffffffffffffffffffffff82169050919050565b60006144fc826144d1565b9050919050565b61450c816144f1565b811461451757600080fd5b50565b60008135905061452981614503565b92915050565b6000819050919050565b6145428161452f565b811461454d57600080fd5b50565b60008135905061455f81614539565b92915050565b6000806040838503121561457c5761457b6144c7565b5b600061458a8582860161451a565b925050602061459b85828601614550565b9150509250929050565b6145ae8161452f565b82525050565b60006020820190506145c960008301846145a5565b92915050565b60007fffffffff0000000000000000000000000000000000000000000000000000000082169050919050565b614604816145cf565b811461460f57600080fd5b50565b600081359050614621816145fb565b92915050565b60006020828403121561463d5761463c6144c7565b5b600061464b84828501614612565b91505092915050565b60008115159050919050565b61466981614654565b82525050565b60006020820190506146846000830184614660565b92915050565b600081519050919050565b600082825260208201905092915050565b60005b838110156146c45780820151818401526020810190506146a9565b60008484015250505050565b6000601f19601f8301169050919050565b60006146ec8261468a565b6146f68185614695565b93506147068185602086016146a6565b61470f816146d0565b840191505092915050565b6000602082019050818103600083015261473481846146e1565b905092915050565b600060208284031215614752576147516144c7565b5b600061476084828501614550565b91505092915050565b600081519050919050565b600082825260208201905092915050565b6000819050602082019050919050565b61479e8161452f565b82525050565b60006147b08383614795565b60208301905092915050565b6000602082019050919050565b60006147d482614769565b6147de8185614774565b93506147e983614785565b8060005b8381101561481a57815161480188826147a4565b975061480c836147bc565b9250506001810190506147ed565b5085935050505092915050565b6000602082019050818103600083015261484181846147c9565b905092915050565b600080fd5b7f4e487b7100000000000000000000000000000000000000000000000000000000600052604160045260246000fd5b614886826146d0565b810181811067ffffffffffffffff821117156148a5576148a461484e565b5b80604052505050565b60006148b86144bd565b90506148c4828261487d565b919050565b600067ffffffffffffffff8211156148e4576148e361484e565b5b602082029050602081019050919050565b600080fd5b600061490d614908846148c9565b6148ae565b905080838252602082019050602084028301858111156149305761492f6148f5565b5b835b8181101561495957806149458882614550565b845260208401935050602081019050614932565b5050509392505050565b600082601f83011261497857614977614849565b5b81356149888482602086016148fa565b91505092915050565b600080fd5b600067ffffffffffffffff8211156149b1576149b061484e565b5b6149ba826146d0565b9050602081019050919050565b82818337600083830152505050565b60006149e96149e484614996565b6148ae565b905082815260208101848484011115614a0557614a04614991565b5b614a108482856149c7565b509392505050565b600082601f830112614a2d57614a2c614849565b5b8135614a3d8482602086016149d6565b91505092915050565b600080600080600060a08688031215614a6257614a616144c7565b5b6000614a708882890161451a565b9550506020614a818882890161451a565b945050604086013567ffffffffffffffff811115614aa257614aa16144cc565b5b614aae88828901614963565b935050606086013567ffffffffffffffff811115614acf57614ace6144cc565b5b614adb88828901614963565b925050608086013567ffffffffffffffff811115614afc57614afb6144cc565b5b614b0888828901614a18565b9150509295509295909350565b600067ffffffffffffffff821115614b3057614b2f61484e565b5b602082029050602081019050919050565b6000614b54614b4f84614b15565b6148ae565b90508083825260208201905060208402830185811115614b7757614b766148f5565b5b835b81811015614ba05780614b8c888261451a565b845260208401935050602081019050614b79565b5050509392505050565b600082601f830112614bbf57614bbe614849565b5b8135614bcf848260208601614b41565b91505092915050565b60008060408385031215614bef57614bee6144c7565b5b600083013567ffffffffffffffff811115614c0d57614c0c6144cc565b5b614c1985828601614baa565b925050602083013567ffffffffffffffff811115614c3a57614c396144cc565b5b614c4685828601614963565b9150509250929050565b600060208284031215614c6657614c656144c7565b5b6000614c748482850161451a565b91505092915050565b60008060008060808587031215614c9757614c966144c7565b5b6000614ca587828801614550565b9450506020614cb687828801614550565b9350506040614cc787828801614550565b9250506060614cd887828801614550565b91505092959194509250565b614ced816144f1565b82525050565b6000602082019050614d086000830184614ce4565b92915050565b614d1781614654565b8114614d2257600080fd5b50565b600081359050614d3481614d0e565b92915050565b60008060408385031215614d5157614d506144c7565b5b6000614d5f8582860161451a565b9250506020614d7085828601614d25565b9150509250929050565b600081519050919050565b600082825260208201905092915050565b6000819050602082019050919050565b614daf816144f1565b82525050565b6000614dc18383614da6565b60208301905092915050565b6000602082019050919050565b6000614de582614d7a565b614def8185614d85565b9350614dfa83614d96565b8060005b83811015614e2b578151614e128882614db5565b9750614e1d83614dcd565b925050600181019050614dfe565b5085935050505092915050565b60006020820190508181036000830152614e528184614dda565b905092915050565b60008060408385031215614e7157614e706144c7565b5b6000614e7f85828601614550565b9250506020614e908582860161451a565b9150509250929050565b60008060408385031215614eb157614eb06144c7565b5b6000614ebf8582860161451a565b9250506020614ed08582860161451a565b9150509250929050565b600080600080600060a08688031215614ef657614ef56144c7565b5b6000614f048882890161451a565b9550506020614f158882890161451a565b9450506040614f2688828901614550565b9350506060614f3788828901614550565b925050608086013567ffffffffffffffff811115614f5857614f576144cc565b5b614f6488828901614a18565b9150509295509295909350565b60008060408385031215614f8857614f876144c7565b5b6000614f9685828601614550565b9250506020614fa785828601614550565b9150509250929050565b600081519050614fc081614539565b92915050565b600060208284031215614fdc57614fdb6144c7565b5b6000614fea84828501614fb1565b91505092915050565b7f4e487b7100000000000000000000000000000000000000000000000000000000600052602260045260246000fd5b6000600282049050600182168061503a57607f821691505b60208210810361504d5761504c614ff3565b5b50919050565b7f4e487b7100000000000000000000000000000000000000000000000000000000600052601160045260246000fd5b600061508d8261452f565b91506150988361452f565b92508282019050808211156150b0576150af615053565b5b92915050565b7f4e487b7100000000000000000000000000000000000000000000000000000000600052603260045260246000fd5b60006150f08261452f565b91507fffffffffffffffffffffffffffffffffffffffffffffffffffffffffffffffff820361512257615121615053565b5b600182019050919050565b60006040820190506151426000830185614ce4565b61514f6020830184614ce4565b9392505050565b600060408201905061516b60008301856145a5565b61517860208301846145a5565b9392505050565b60008151905061518e81614503565b92915050565b6000602082840312156151aa576151a96144c7565b5b60006151b88482850161517f565b91505092915050565b60006040820190506151d660008301856145a5565b6151e36020830184614ce4565b9392505050565b6000815190506151f981614d0e565b92915050565b600060208284031215615215576152146144c7565b5b6000615223848285016151ea565b91505092915050565b7f506c65617365205265717565737420417070726f76616c000000000000000000600082015250565b6000615262601783614695565b915061526d8261522c565b602082019050919050565b6000602082019050818103600083015261529181615255565b9050919050565b60006060820190506152ad6000830186614ce4565b6152ba6020830185614ce4565b6152c760408301846145a5565b949350505050565b60006152da8261452f565b91506152e58361452f565b92508282039050818111156152fd576152fc615053565b5b92915050565b7f4e487b7100000000000000000000000000000000000000000000000000000000600052600160045260246000fd5b7f4e487b7100000000000000000000000000000000000000000000000000000000600052603160045260246000fd5b60006080820190506153766000830187614ce4565b61538360208301866145a5565b61539060408301856145a5565b61539d60608301846145a5565b95945050505050565b600060408201905081810360008301526153c081856147c9565b905081810360208301526153d481846147c9565b90509392505050565b600081519050919050565b600082825260208201905092915050565b6000615404826153dd565b61540e81856153e8565b935061541e8185602086016146a6565b615427816146d0565b840191505092915050565b600060a0820190506154476000830188614ce4565b6154546020830187614ce4565b61546160408301866145a5565b61546e60608301856145a5565b818103608083015261548081846153f9565b90509695505050505050565b60008151905061549b816145fb565b92915050565b6000602082840312156154b7576154b66144c7565b5b60006154c58482850161548c565b91505092915050565b600060a0820190506154e36000830188614ce4565b6154f06020830187614ce4565b818103604083015261550281866147c9565b9050818103606083015261551681856147c9565b9050818103608083015261552a81846153f9565b9050969550505050505056fea26469706673582212209bb11848ed15f4d819463721d22ae8b61795cd7e4c2cc8c1e359d7369417021964736f6c63430008130033",
  "immutableReferences": {},
  "source": "// SPDX-License-Identifier: MIT\r\n\r\n\r\n/*\r\nWarning when testing code\r\nSince transactions have to be approved within the contract they are created in\r\n(So like approving a erc20 transaction must be done in an erc20 contract)\r\nBefore doing a transaction please approve it in the respective contract\r\n*/\r\npragma solidity >=0.4.22 <0.9.0;\r\n\r\n\r\n    import \"@openzeppelin/contracts/access/Ownable.sol\";\r\n    import \"@openzeppelin/contracts/token/ERC1155/ERC1155.sol\";\r\n    import \"./DeedToken.sol\";\r\n    import \"./RentToken.sol\";\r\n\r\n\r\ncontract BuildingToken is ERC1155, Ownable {\r\n    //Data-------------------------------------------------------------------------------------------------------------------\r\n        //Tokens\r\n            RentToken                       private rentToken;\r\n            DeedToken                       private deedToken;\r\n            address                         private contractOwner;\r\n            string public name = \"RoomTokens\";\r\n            string public symbol = \"RTK\";\r\n\r\n\r\n\r\n\r\n        //Building Tracking\r\n            uint256[]                       public  Buildings;\r\n            uint256[]                       private Buildings_available;\r\n            mapping(uint256 => bool)        private Buildings_assigned;\r\n       \r\n            mapping (address => uint256[])  private owner_to_lands;\r\n            mapping (uint256 => address)    private land_to_owner;\r\n       \r\n            mapping (uint256 => uint256[])  private buildings_to_rooms;\r\n            mapping (uint256 => mapping(uint256=>uint)) private building_to_rooms_available;\r\n            mapping (uint256 => uint256)    private room_to_building;\r\n           \r\n            mapping (address => bool)       private tenant_in_room_available;\r\n            mapping (uint256 => address[])  private room_to_tenant;\r\n            mapping (address => uint256)    private tenant_to_room;\r\n\r\n\r\n\r\n\r\n        //Payment\r\n            mapping (address => uint)       private amountDue;\r\n            mapping (uint256 => uint)       private rentAmount;\r\n            mapping (address => uint)       private tenantLate;\r\n\r\n\r\n\r\n\r\n    //Modifiers-------------------------------------------------------------------------------------------------------------------\r\n        //Checks if the landlord owns the Deed of the house\r\n        modifier ownsLand(uint256 _land){\r\n            require(deedToken.checkOwner(_land) == msg.sender);\r\n            _;\r\n        }\r\n        //Checks if the deedID already exists\r\n        modifier UniqueBuildingExists(uint256 _id){\r\n            bool within = false;\r\n            for(uint i; i < Buildings.length; i++){\r\n                if(Buildings[i] == _id){\r\n                    within = true;\r\n                }\r\n            }\r\n            require(within);\r\n            _;\r\n        }\r\n\r\n\r\n\r\n\r\n        //Checks if the landlord is interacting with his tenant\r\n        modifier isLandlordofTenant(uint256 _roomid){\r\n            bool within = false;\r\n            for(uint i; i<room_to_tenant[_roomid].length; i++){\r\n                if(room_to_tenant[_roomid][i] == msg.sender){\r\n                    within=true;\r\n                }\r\n            }\r\n\r\n\r\n\r\n\r\n            require(deedToken.ownerOf(room_to_building[_roomid]) == msg.sender && within);\r\n            _;\r\n        }\r\n\r\n\r\n\r\n\r\n        //Checks if tenant is linked to the room\r\n        modifier tenantInRoom(uint256 _id){\r\n            require(balanceOf(msg.sender, _id) > 0);\r\n            _;\r\n        }\r\n\r\n\r\n\r\n\r\n        //Checks if the tenant has enough balance\r\n        modifier enoughBalance(address _user, uint _amount){\r\n            require(rentToken.balanceOf(_user) >= _amount);\r\n            _;\r\n        }\r\n\r\n\r\n\r\n\r\n        //Checks for non negative values\r\n        modifier non_negative(uint _amount){\r\n            require(_amount > 0);\r\n            _;\r\n        }\r\n\r\n\r\n\r\n\r\n    //Functions-------------------------------------------------------------------------------------------------------------------\r\n        constructor(address _rentToken, address _deedToken) ERC1155(\"\") Ownable(msg.sender) {\r\n            rentToken = RentToken(_rentToken);\r\n            deedToken = DeedToken(_deedToken);\r\n            rentToken.setBuildingContractAddress();\r\n            deedToken.setBuildingContractAddress();\r\n            contractOwner = msg.sender;\r\n\r\n\r\n            }\r\n\r\n\r\n        //_________________________________Rent Function_________________________________\r\n\r\n\r\n\r\n\r\n            //Charge Fees to a single room\r\n            function chargeFee(address _tenant, uint amount) public ownsLand(room_to_building[tenant_to_room[_tenant]]) non_negative(amount){\r\n                amountDue[_tenant] += amount;\r\n            }\r\n\r\n\r\n\r\n\r\n            //Charge rent to all people in a single building\r\n            function chargeRentinBuilding(uint256 building) private ownsLand(building){\r\n                for(uint i; i < buildings_to_rooms[building].length;i++){           //For each room in the building\r\n                    address[] memory _tenants = room_to_tenant[buildings_to_rooms[building][i]];    \r\n                    for(uint j; j < _tenants.length;j++){         //For each tenant linked to roomID\r\n                        if(amountDue[_tenants[j]] > 0){                       //If amount due is greater than 0, increase lateness\r\n                            tenantLate[_tenants[j]] += 1;\r\n                        }\r\n                        amountDue[_tenants[j]] += rentAmount[buildings_to_rooms[building][i]];\r\n                    }\r\n                }\r\n            }\r\n\r\n\r\n\r\n\r\n            //Charge rent to all properties the messenger owns\r\n            function chargeRentAllBuildings() public{\r\n                for(uint i; i < owner_to_lands[msg.sender].length;i++){\r\n                    chargeRentinBuilding(owner_to_lands[msg.sender][i]);\r\n                }\r\n            }\r\n\r\n\r\n\r\n\r\n            //Changes the amount of rent linked to a room\r\n            function changeRent(uint256 _id, uint _rentAmount) public ownsLand(_id){\r\n                rentAmount[_id] = _rentAmount;\r\n            }\r\n\r\n\r\n\r\n\r\n            //Pay the rent in tokens\r\n            function singlePayRent(uint _amount) public payable enoughBalance(msg.sender,_amount) non_negative(_amount){\r\n                address _tenant = msg.sender;\r\n                address _landlord = land_to_owner[room_to_building[tenant_to_room[msg.sender]]];\r\n                uint due = amountDue[_tenant];\r\n                if(_amount >= due){\r\n                    assert(rentToken.allowance(msg.sender, address(this)) >= due);\r\n                    rentToken.transferFrom(_tenant,_landlord, due);\r\n                    amountDue[_tenant] = 0;\r\n                }\r\n                else{\r\n                    assert(rentToken.allowance(msg.sender, address(this)) >= _amount);\r\n                    rentToken.transferFrom(_tenant,_landlord, _amount);\r\n                    amountDue[_tenant] -= _amount;\r\n                }\r\n            }\r\n\r\n\r\n\r\n\r\n\r\n\r\n\r\n\r\n        //_________________________________Viewing Info Functions_________________________________\r\n\r\n\r\n\r\n\r\n            //Check your rent\r\n            function viewRent (uint256 _room) public view returns(uint){\r\n                return rentAmount[_room];\r\n            }\r\n\r\n\r\n\r\n\r\n            //Check the amount due\r\n            function viewDue (address _tenant) public view returns(uint){\r\n                return amountDue[_tenant];\r\n            }\r\n\r\n\r\n\r\n\r\n            //Check the amount of payments they missed\r\n            function viewLateness(address _tenant) public view returns(uint){\r\n                return tenantLate[_tenant];\r\n            }\r\n\r\n\r\n\r\n\r\n            //View rooms associated to Building\r\n            function viewRooms(uint256 _building) public view returns(uint256[] memory){\r\n                return buildings_to_rooms[_building];\r\n            }\r\n\r\n\r\n\r\n\r\n            //View amount of rent tokens for an address\r\n            function viewBalance(address _tenant) public view returns(uint){\r\n                return rentToken.balanceOf(_tenant);\r\n            }\r\n\r\n\r\n\r\n\r\n            //View all the buildings\r\n            function viewBuildings() public view  returns(uint256[] memory){\r\n                return Buildings;\r\n            }\r\n\r\n\r\n\r\n\r\n            //View all unlinked buildings\r\n            function viewBuildingsAvailable() public view returns(uint256[] memory){\r\n                return Buildings_available;\r\n            }\r\n\r\n\r\n\r\n\r\n            //View all buildings owned\r\n            function viewBuildingsOwned() public view returns(uint256[] memory){\r\n                return owner_to_lands[msg.sender];\r\n            }\r\n\r\n\r\n\r\n\r\n            //view tenants linked to room\r\n            function viewTenantswithRoom(uint _room) public view returns(address[] memory){\r\n                return room_to_tenant[_room];\r\n            }\r\n\r\n\r\n\r\n            function viewAvailableRooms (uint256 roomID) public view returns(uint256){\r\n                return building_to_rooms_available[room_to_building[roomID]][roomID];\r\n}\r\n\r\n\r\n\r\n\r\n        //_________________________________Token Creation Functions_________________________________\r\n\r\n\r\n\r\n\r\n            function createDeed() public onlyOwner{\r\n                Buildings.push(deedToken.nextTokenId());\r\n                Buildings_assigned[deedToken.nextTokenId()] == false;\r\n                Buildings_available.push(deedToken.nextTokenId());\r\n                deedToken.safeMint(msg.sender);\r\n            }\r\n\r\n\r\n\r\n\r\n            function buyRentTokens() public payable  {\r\n                require(msg.sender.balance >= msg.value);\r\n                rentToken.buyRentTokens(msg.value,msg.sender);\r\n            }\r\n\r\n\r\n\r\n\r\n            function createRooms(uint256 deed, uint256 id, uint256 amount, uint _rentAmount) public ownsLand(deed){\r\n                require(room_to_building[id] == 0x0 || room_to_building[id] == deed);\r\n                _mint(msg.sender,id,amount,\"\");\r\n                if(room_to_building[id] != deed){\r\n                buildings_to_rooms[deed].push(id);\r\n                }\r\n                building_to_rooms_available[deed][id] += amount;\r\n                room_to_building[id] = deed;\r\n                rentAmount[id] = _rentAmount;\r\n            }\r\n\r\n\r\n\r\n\r\n        //_________________________________Token Transfer Functions_________________________________\r\n\r\n\r\n\r\n\r\n            //Assigns a deed to a address\r\n            function assignDeed(uint256 _deedId, address _to) public onlyOwner{\r\n                for(uint i; i < owner_to_lands[_to].length;i++){\r\n                    if(owner_to_lands[_to][i] == _deedId){\r\n                        revert();\r\n                    }\r\n                }\r\n                Buildings_assigned[_deedId] = true;\r\n                for(uint i;i < Buildings_available.length;i++){\r\n                    if(Buildings_available[i] == _deedId){\r\n                        delete Buildings_available[i];\r\n                    }\r\n                }\r\n                if(deedToken.ownerOf(_deedId) != msg.sender) {  \r\n                    require(deedToken.isApprovedForAll(_to, address(this)),\"Please Request Approval\");\r\n                    deedToken.safeTransferFrom(msg.sender, _to, _deedId);}\r\n                land_to_owner[_deedId] = _to;\r\n                owner_to_lands[_to].push(_deedId);\r\n            }\r\n\r\n\r\n\r\n\r\n            //Sends\r\n            function sendDeedToContractOwner(uint256 _deedId) public ownsLand(_deedId){\r\n                require(deedToken.isApprovedForAll(msg.sender, address(this)),\"Please Request Approval\");\r\n                removeFromOwned(_deedId);\r\n                deedToken.safeTransferFrom(msg.sender, contractOwner, _deedId);\r\n                Buildings_assigned[_deedId]=false;\r\n                Buildings_available[_deedId-1]=(_deedId);\r\n                land_to_owner[_deedId] = address(0);\r\n            }\r\n\r\n\r\n\r\n\r\n            function removeFromOwned(uint256 _id) private ownsLand(_id){\r\n                bool backing = false;\r\n                if(owner_to_lands[msg.sender][owner_to_lands[msg.sender].length - 1] == _id){\r\n                    owner_to_lands[msg.sender].pop();\r\n                }\r\n                else{\r\n                    for(uint i; i < owner_to_lands[msg.sender].length - 1;i++){\r\n                        if(owner_to_lands[msg.sender][i] == _id){\r\n                            backing = true;\r\n                            delete owner_to_lands[msg.sender][i];\r\n                        }\r\n                        if(backing){\r\n                            owner_to_lands[msg.sender][i] = owner_to_lands[msg.sender][i+1];\r\n                        }\r\n                        owner_to_lands[msg.sender].pop();\r\n                    }\r\n                }\r\n            }\r\n\r\n\r\n            function assignTenant(address tenant, uint256 roomID) public ownsLand(room_to_building[roomID]){\r\n                uint rooms_available = building_to_rooms_available[room_to_building[roomID]][roomID];\r\n                if (rooms_available > 0){\r\n                        building_to_rooms_available[room_to_building[roomID]][roomID] -= 1;\r\n                        safeTransferFrom(msg.sender, tenant, roomID,1,\"\");\r\n                        tenant_to_room[tenant] = roomID;\r\n                        room_to_tenant[roomID].push(tenant);\r\n                    }else{\r\n                        revert();\r\n                    }\r\n                }\r\n           \r\n\r\n\r\n            function deleteFromRoom(address _tenant, uint256 room) private{\r\n                bool backing = false;\r\n                if(room_to_tenant[room][room_to_tenant[room].length - 1] == _tenant){\r\n                    room_to_tenant[room].pop();\r\n                }\r\n                else{\r\n                    for(uint i; i < room_to_tenant[room].length - 1;i++){\r\n                        if(room_to_tenant[room][i] == _tenant){\r\n                            backing = true;\r\n                            delete owner_to_lands[msg.sender][i];\r\n                        }\r\n                        if(backing){\r\n                            room_to_tenant[room][i] = room_to_tenant[room][i+1];\r\n                        }\r\n                        room_to_tenant[room].pop();\r\n                    }\r\n                }\r\n            }\r\n\r\n\r\n\r\n\r\n           function refundRoom(uint256 roomID) public tenantInRoom(roomID) {\r\n                address landLord = land_to_owner[room_to_building[roomID]];\r\n                safeTransferFrom(msg.sender,landLord, roomID,1,\"\");\r\n                building_to_rooms_available[room_to_building[roomID]][roomID] += 1;\r\n                delete tenant_to_room[msg.sender];\r\n                deleteFromRoom(msg.sender,roomID);\r\n           }\r\n       \r\n    }",
  "sourcePath": "C:\\Users\\kumko\\OneDrive\\Desktop\\landlord-tenant-project\\contract-folder\\contracts\\BuildingToken.sol",
  "compiler": {
    "name": "solc",
    "version": "0.8.19+commit.7dd6d404.Emscripten.clang"
  },
  "schemaVersion": "3.4.16",
  "updatedAt": "2023-11-19T21:03:18.948Z",
  "networkType": "ethereum",
  "devdoc": {
    "errors": {
      "ERC1155InsufficientBalance(address,uint256,uint256,uint256)": [
        {
          "details": "Indicates an error related to the current `balance` of a `sender`. Used in transfers.",
          "params": {
            "balance": "Current balance for the interacting account.",
            "needed": "Minimum amount required to perform a transfer.",
            "sender": "Address whose tokens are being transferred.",
            "tokenId": "Identifier number of a token."
          }
        }
      ],
      "ERC1155InvalidApprover(address)": [
        {
          "details": "Indicates a failure with the `approver` of a token to be approved. Used in approvals.",
          "params": {
            "approver": "Address initiating an approval operation."
          }
        }
      ],
      "ERC1155InvalidArrayLength(uint256,uint256)": [
        {
          "details": "Indicates an array length mismatch between ids and values in a safeBatchTransferFrom operation. Used in batch transfers.",
          "params": {
            "idsLength": "Length of the array of token identifiers",
            "valuesLength": "Length of the array of token amounts"
          }
        }
      ],
      "ERC1155InvalidOperator(address)": [
        {
          "details": "Indicates a failure with the `operator` to be approved. Used in approvals.",
          "params": {
            "operator": "Address that may be allowed to operate on tokens without being their owner."
          }
        }
      ],
      "ERC1155InvalidReceiver(address)": [
        {
          "details": "Indicates a failure with the token `receiver`. Used in transfers.",
          "params": {
            "receiver": "Address to which tokens are being transferred."
          }
        }
      ],
      "ERC1155InvalidSender(address)": [
        {
          "details": "Indicates a failure with the token `sender`. Used in transfers.",
          "params": {
            "sender": "Address whose tokens are being transferred."
          }
        }
      ],
      "ERC1155MissingApprovalForAll(address,address)": [
        {
          "details": "Indicates a failure with the `operator`s approval. Used in transfers.",
          "params": {
            "operator": "Address that may be allowed to operate on tokens without being their owner.",
            "owner": "Address of the current owner of a token."
          }
        }
      ],
      "OwnableInvalidOwner(address)": [
        {
          "details": "The owner is not a valid owner account. (eg. `address(0)`)"
        }
      ],
      "OwnableUnauthorizedAccount(address)": [
        {
          "details": "The caller account is not authorized to perform an operation."
        }
      ]
    },
    "events": {
      "ApprovalForAll(address,address,bool)": {
        "details": "Emitted when `account` grants or revokes permission to `operator` to transfer their tokens, according to `approved`."
      },
      "TransferBatch(address,address,address,uint256[],uint256[])": {
        "details": "Equivalent to multiple {TransferSingle} events, where `operator`, `from` and `to` are the same for all transfers."
      },
      "TransferSingle(address,address,address,uint256,uint256)": {
        "details": "Emitted when `value` amount of tokens of type `id` are transferred from `from` to `to` by `operator`."
      },
      "URI(string,uint256)": {
        "details": "Emitted when the URI for token type `id` changes to `value`, if it is a non-programmatic URI. If an {URI} event was emitted for `id`, the standard https://eips.ethereum.org/EIPS/eip-1155#metadata-extensions[guarantees] that `value` will equal the value returned by {IERC1155MetadataURI-uri}."
      }
    },
    "kind": "dev",
    "methods": {
      "balanceOf(address,uint256)": {
        "details": "See {IERC1155-balanceOf}."
      },
      "balanceOfBatch(address[],uint256[])": {
        "details": "See {IERC1155-balanceOfBatch}. Requirements: - `accounts` and `ids` must have the same length."
      },
      "isApprovedForAll(address,address)": {
        "details": "See {IERC1155-isApprovedForAll}."
      },
      "owner()": {
        "details": "Returns the address of the current owner."
      },
      "renounceOwnership()": {
        "details": "Leaves the contract without owner. It will not be possible to call `onlyOwner` functions. Can only be called by the current owner. NOTE: Renouncing ownership will leave the contract without an owner, thereby disabling any functionality that is only available to the owner."
      },
      "safeBatchTransferFrom(address,address,uint256[],uint256[],bytes)": {
        "details": "See {IERC1155-safeBatchTransferFrom}."
      },
      "safeTransferFrom(address,address,uint256,uint256,bytes)": {
        "details": "See {IERC1155-safeTransferFrom}."
      },
      "setApprovalForAll(address,bool)": {
        "details": "See {IERC1155-setApprovalForAll}."
      },
      "supportsInterface(bytes4)": {
        "details": "See {IERC165-supportsInterface}."
      },
      "transferOwnership(address)": {
        "details": "Transfers ownership of the contract to a new account (`newOwner`). Can only be called by the current owner."
      },
      "uri(uint256)": {
        "details": "See {IERC1155MetadataURI-uri}. This implementation returns the same URI for *all* token types. It relies on the token type ID substitution mechanism https://eips.ethereum.org/EIPS/eip-1155#metadata[defined in the EIP]. Clients calling this function must replace the `\\{id\\}` substring with the actual token type ID."
      }
    },
    "version": 1
  },
  "userdoc": {
    "kind": "user",
    "methods": {},
    "version": 1
  }
}