{
  "contractName": "BuildingToken",
  "abi": [
    {
      "inputs": [
        {
          "internalType": "address",
          "name": "_rentToken",
          "type": "address"
        },
        {
          "internalType": "address",
          "name": "_deedToken",
          "type": "address"
        }
      ],
      "stateMutability": "nonpayable",
      "type": "constructor"
    },
    {
      "inputs": [
        {
          "internalType": "address",
          "name": "sender",
          "type": "address"
        },
        {
          "internalType": "uint256",
          "name": "balance",
          "type": "uint256"
        },
        {
          "internalType": "uint256",
          "name": "needed",
          "type": "uint256"
        },
        {
          "internalType": "uint256",
          "name": "tokenId",
          "type": "uint256"
        }
      ],
      "name": "ERC1155InsufficientBalance",
      "type": "error"
    },
    {
      "inputs": [
        {
          "internalType": "address",
          "name": "approver",
          "type": "address"
        }
      ],
      "name": "ERC1155InvalidApprover",
      "type": "error"
    },
    {
      "inputs": [
        {
          "internalType": "uint256",
          "name": "idsLength",
          "type": "uint256"
        },
        {
          "internalType": "uint256",
          "name": "valuesLength",
          "type": "uint256"
        }
      ],
      "name": "ERC1155InvalidArrayLength",
      "type": "error"
    },
    {
      "inputs": [
        {
          "internalType": "address",
          "name": "operator",
          "type": "address"
        }
      ],
      "name": "ERC1155InvalidOperator",
      "type": "error"
    },
    {
      "inputs": [
        {
          "internalType": "address",
          "name": "receiver",
          "type": "address"
        }
      ],
      "name": "ERC1155InvalidReceiver",
      "type": "error"
    },
    {
      "inputs": [
        {
          "internalType": "address",
          "name": "sender",
          "type": "address"
        }
      ],
      "name": "ERC1155InvalidSender",
      "type": "error"
    },
    {
      "inputs": [
        {
          "internalType": "address",
          "name": "operator",
          "type": "address"
        },
        {
          "internalType": "address",
          "name": "owner",
          "type": "address"
        }
      ],
      "name": "ERC1155MissingApprovalForAll",
      "type": "error"
    },
    {
      "inputs": [
        {
          "internalType": "address",
          "name": "owner",
          "type": "address"
        }
      ],
      "name": "OwnableInvalidOwner",
      "type": "error"
    },
    {
      "inputs": [
        {
          "internalType": "address",
          "name": "account",
          "type": "address"
        }
      ],
      "name": "OwnableUnauthorizedAccount",
      "type": "error"
    },
    {
      "anonymous": false,
      "inputs": [
        {
          "indexed": true,
          "internalType": "address",
          "name": "account",
          "type": "address"
        },
        {
          "indexed": true,
          "internalType": "address",
          "name": "operator",
          "type": "address"
        },
        {
          "indexed": false,
          "internalType": "bool",
          "name": "approved",
          "type": "bool"
        }
      ],
      "name": "ApprovalForAll",
      "type": "event"
    },
    {
      "anonymous": false,
      "inputs": [
        {
          "indexed": false,
          "internalType": "address",
          "name": "_from",
          "type": "address"
        },
        {
          "indexed": false,
          "internalType": "uint256",
          "name": "_to",
          "type": "uint256"
        }
      ],
      "name": "MoneyRequested",
      "type": "event"
    },
    {
      "anonymous": false,
      "inputs": [
        {
          "indexed": true,
          "internalType": "address",
          "name": "previousOwner",
          "type": "address"
        },
        {
          "indexed": true,
          "internalType": "address",
          "name": "newOwner",
          "type": "address"
        }
      ],
      "name": "OwnershipTransferred",
      "type": "event"
    },
    {
      "anonymous": false,
      "inputs": [
        {
          "indexed": true,
          "internalType": "address",
          "name": "operator",
          "type": "address"
        },
        {
          "indexed": true,
          "internalType": "address",
          "name": "from",
          "type": "address"
        },
        {
          "indexed": true,
          "internalType": "address",
          "name": "to",
          "type": "address"
        },
        {
          "indexed": false,
          "internalType": "uint256[]",
          "name": "ids",
          "type": "uint256[]"
        },
        {
          "indexed": false,
          "internalType": "uint256[]",
          "name": "values",
          "type": "uint256[]"
        }
      ],
      "name": "TransferBatch",
      "type": "event"
    },
    {
      "anonymous": false,
      "inputs": [
        {
          "indexed": true,
          "internalType": "address",
          "name": "operator",
          "type": "address"
        },
        {
          "indexed": true,
          "internalType": "address",
          "name": "from",
          "type": "address"
        },
        {
          "indexed": true,
          "internalType": "address",
          "name": "to",
          "type": "address"
        },
        {
          "indexed": false,
          "internalType": "uint256",
          "name": "id",
          "type": "uint256"
        },
        {
          "indexed": false,
          "internalType": "uint256",
          "name": "value",
          "type": "uint256"
        }
      ],
      "name": "TransferSingle",
      "type": "event"
    },
    {
      "anonymous": false,
      "inputs": [
        {
          "indexed": false,
          "internalType": "string",
          "name": "value",
          "type": "string"
        },
        {
          "indexed": true,
          "internalType": "uint256",
          "name": "id",
          "type": "uint256"
        }
      ],
      "name": "URI",
      "type": "event"
    },
    {
      "inputs": [
        {
          "internalType": "uint256",
          "name": "",
          "type": "uint256"
        }
      ],
      "name": "Buildings",
      "outputs": [
        {
          "internalType": "uint256",
          "name": "",
          "type": "uint256"
        }
      ],
      "stateMutability": "view",
      "type": "function",
      "constant": true
    },
    {
      "inputs": [
        {
          "internalType": "address",
          "name": "account",
          "type": "address"
        },
        {
          "internalType": "uint256",
          "name": "id",
          "type": "uint256"
        }
      ],
      "name": "balanceOf",
      "outputs": [
        {
          "internalType": "uint256",
          "name": "",
          "type": "uint256"
        }
      ],
      "stateMutability": "view",
      "type": "function",
      "constant": true
    },
    {
      "inputs": [
        {
          "internalType": "address[]",
          "name": "accounts",
          "type": "address[]"
        },
        {
          "internalType": "uint256[]",
          "name": "ids",
          "type": "uint256[]"
        }
      ],
      "name": "balanceOfBatch",
      "outputs": [
        {
          "internalType": "uint256[]",
          "name": "",
          "type": "uint256[]"
        }
      ],
      "stateMutability": "view",
      "type": "function",
      "constant": true
    },
    {
      "inputs": [
        {
          "internalType": "address",
          "name": "account",
          "type": "address"
        },
        {
          "internalType": "address",
          "name": "operator",
          "type": "address"
        }
      ],
      "name": "isApprovedForAll",
      "outputs": [
        {
          "internalType": "bool",
          "name": "",
          "type": "bool"
        }
      ],
      "stateMutability": "view",
      "type": "function",
      "constant": true
    },
    {
      "inputs": [],
      "name": "name",
      "outputs": [
        {
          "internalType": "string",
          "name": "",
          "type": "string"
        }
      ],
      "stateMutability": "view",
      "type": "function",
      "constant": true
    },
    {
      "inputs": [],
      "name": "owner",
      "outputs": [
        {
          "internalType": "address",
          "name": "",
          "type": "address"
        }
      ],
      "stateMutability": "view",
      "type": "function",
      "constant": true
    },
    {
      "inputs": [],
      "name": "renounceOwnership",
      "outputs": [],
      "stateMutability": "nonpayable",
      "type": "function"
    },
    {
      "inputs": [
        {
          "internalType": "address",
          "name": "from",
          "type": "address"
        },
        {
          "internalType": "address",
          "name": "to",
          "type": "address"
        },
        {
          "internalType": "uint256[]",
          "name": "ids",
          "type": "uint256[]"
        },
        {
          "internalType": "uint256[]",
          "name": "values",
          "type": "uint256[]"
        },
        {
          "internalType": "bytes",
          "name": "data",
          "type": "bytes"
        }
      ],
      "name": "safeBatchTransferFrom",
      "outputs": [],
      "stateMutability": "nonpayable",
      "type": "function"
    },
    {
      "inputs": [
        {
          "internalType": "address",
          "name": "from",
          "type": "address"
        },
        {
          "internalType": "address",
          "name": "to",
          "type": "address"
        },
        {
          "internalType": "uint256",
          "name": "id",
          "type": "uint256"
        },
        {
          "internalType": "uint256",
          "name": "value",
          "type": "uint256"
        },
        {
          "internalType": "bytes",
          "name": "data",
          "type": "bytes"
        }
      ],
      "name": "safeTransferFrom",
      "outputs": [],
      "stateMutability": "nonpayable",
      "type": "function"
    },
    {
      "inputs": [
        {
          "internalType": "address",
          "name": "operator",
          "type": "address"
        },
        {
          "internalType": "bool",
          "name": "approved",
          "type": "bool"
        }
      ],
      "name": "setApprovalForAll",
      "outputs": [],
      "stateMutability": "nonpayable",
      "type": "function"
    },
    {
      "inputs": [
        {
          "internalType": "bytes4",
          "name": "interfaceId",
          "type": "bytes4"
        }
      ],
      "name": "supportsInterface",
      "outputs": [
        {
          "internalType": "bool",
          "name": "",
          "type": "bool"
        }
      ],
      "stateMutability": "view",
      "type": "function",
      "constant": true
    },
    {
      "inputs": [],
      "name": "symbol",
      "outputs": [
        {
          "internalType": "string",
          "name": "",
          "type": "string"
        }
      ],
      "stateMutability": "view",
      "type": "function",
      "constant": true
    },
    {
      "inputs": [
        {
          "internalType": "address",
          "name": "newOwner",
          "type": "address"
        }
      ],
      "name": "transferOwnership",
      "outputs": [],
      "stateMutability": "nonpayable",
      "type": "function"
    },
    {
      "inputs": [
        {
          "internalType": "uint256",
          "name": "",
          "type": "uint256"
        }
      ],
      "name": "uri",
      "outputs": [
        {
          "internalType": "string",
          "name": "",
          "type": "string"
        }
      ],
      "stateMutability": "view",
      "type": "function",
      "constant": true
    },
    {
      "inputs": [
        {
          "internalType": "address",
          "name": "_tenant",
          "type": "address"
        },
        {
          "internalType": "uint256",
          "name": "amount",
          "type": "uint256"
        }
      ],
      "name": "chargeFee",
      "outputs": [],
      "stateMutability": "nonpayable",
      "type": "function"
    },
    {
      "inputs": [],
      "name": "chargeRentAllBuildings",
      "outputs": [],
      "stateMutability": "nonpayable",
      "type": "function"
    },
    {
      "inputs": [
        {
          "internalType": "uint256",
          "name": "_amount",
          "type": "uint256"
        }
      ],
      "name": "singlePayRent",
      "outputs": [],
      "stateMutability": "payable",
      "type": "function",
      "payable": true
    },
    {
      "inputs": [
        {
          "internalType": "uint256",
          "name": "_room",
          "type": "uint256"
        }
      ],
      "name": "viewRent",
      "outputs": [
        {
          "internalType": "uint256",
          "name": "",
          "type": "uint256"
        }
      ],
      "stateMutability": "view",
      "type": "function",
      "constant": true
    },
    {
      "inputs": [
        {
          "internalType": "address",
          "name": "_tenant",
          "type": "address"
        }
      ],
      "name": "viewDue",
      "outputs": [
        {
          "internalType": "uint256",
          "name": "",
          "type": "uint256"
        }
      ],
      "stateMutability": "view",
      "type": "function",
      "constant": true
    },
    {
      "inputs": [
        {
          "internalType": "uint256",
          "name": "_building",
          "type": "uint256"
        }
      ],
      "name": "viewRooms",
      "outputs": [
        {
          "internalType": "uint256[]",
          "name": "",
          "type": "uint256[]"
        }
      ],
      "stateMutability": "view",
      "type": "function",
      "constant": true
    },
    {
      "inputs": [
        {
          "internalType": "address",
          "name": "_tenant",
          "type": "address"
        }
      ],
      "name": "viewBalance",
      "outputs": [
        {
          "internalType": "uint256",
          "name": "",
          "type": "uint256"
        }
      ],
      "stateMutability": "view",
      "type": "function",
      "constant": true
    },
    {
      "inputs": [],
      "name": "viewBuildings",
      "outputs": [
        {
          "internalType": "uint256[]",
          "name": "",
          "type": "uint256[]"
        }
      ],
      "stateMutability": "view",
      "type": "function",
      "constant": true
    },
    {
      "inputs": [],
      "name": "viewBuildingsAvailable",
      "outputs": [
        {
          "internalType": "uint256[]",
          "name": "",
          "type": "uint256[]"
        }
      ],
      "stateMutability": "view",
      "type": "function",
      "constant": true
    },
    {
      "inputs": [],
      "name": "viewBuildingsOwned",
      "outputs": [
        {
          "internalType": "uint256[]",
          "name": "",
          "type": "uint256[]"
        }
      ],
      "stateMutability": "view",
      "type": "function",
      "constant": true
    },
    {
      "inputs": [
        {
          "internalType": "uint256",
          "name": "_room",
          "type": "uint256"
        }
      ],
      "name": "viewTenantswithRoom",
      "outputs": [
        {
          "internalType": "address[]",
          "name": "",
          "type": "address[]"
        }
      ],
      "stateMutability": "view",
      "type": "function",
      "constant": true
    },
    {
      "inputs": [
        {
          "internalType": "uint256",
          "name": "roomID",
          "type": "uint256"
        }
      ],
      "name": "viewAvailableRooms",
      "outputs": [
        {
          "internalType": "uint256",
          "name": "",
          "type": "uint256"
        }
      ],
      "stateMutability": "view",
      "type": "function",
      "constant": true
    },
    {
      "inputs": [],
      "name": "createDeed",
      "outputs": [],
      "stateMutability": "nonpayable",
      "type": "function"
    },
    {
      "inputs": [],
      "name": "buyRentTokens",
      "outputs": [],
      "stateMutability": "payable",
      "type": "function",
      "payable": true
    },
    {
      "inputs": [
        {
          "internalType": "uint256",
          "name": "deed",
          "type": "uint256"
        },
        {
          "internalType": "uint256",
          "name": "id",
          "type": "uint256"
        },
        {
          "internalType": "uint256",
          "name": "amount",
          "type": "uint256"
        },
        {
          "internalType": "uint256",
          "name": "_rentAmount",
          "type": "uint256"
        }
      ],
      "name": "createRooms",
      "outputs": [],
      "stateMutability": "nonpayable",
      "type": "function"
    },
    {
      "inputs": [
        {
          "internalType": "uint256",
          "name": "_deedId",
          "type": "uint256"
        },
        {
          "internalType": "address",
          "name": "_to",
          "type": "address"
        }
      ],
      "name": "assignDeed",
      "outputs": [],
      "stateMutability": "nonpayable",
      "type": "function"
    },
    {
      "inputs": [
        {
          "internalType": "uint256",
          "name": "_deedId",
          "type": "uint256"
        }
      ],
      "name": "sendDeedToContractOwner",
      "outputs": [],
      "stateMutability": "nonpayable",
      "type": "function"
    },
    {
      "inputs": [
        {
          "internalType": "address",
          "name": "tenant",
          "type": "address"
        },
        {
          "internalType": "uint256",
          "name": "roomID",
          "type": "uint256"
        }
      ],
      "name": "assignTenant",
      "outputs": [],
      "stateMutability": "nonpayable",
      "type": "function"
    },
    {
      "inputs": [
        {
          "internalType": "uint256",
          "name": "roomID",
          "type": "uint256"
        }
      ],
      "name": "refundRoom",
      "outputs": [],
      "stateMutability": "nonpayable",
      "type": "function"
    }
  ],
  "bytecode": "0x60806040526040518060400160405280600a81526020017f526f6f6d546f6b656e7300000000000000000000000000000000000000000000815250600790816200004a91906200058f565b506040518060400160405280600381526020017f52544b0000000000000000000000000000000000000000000000000000000000815250600890816200009191906200058f565b503480156200009f57600080fd5b5060405162005bb138038062005bb18339818101604052810190620000c59190620006e0565b3360405180602001604052806000815250620000e7816200023a60201b60201c565b50600073ffffffffffffffffffffffffffffffffffffffff168173ffffffffffffffffffffffffffffffffffffffff16036200015d5760006040517f1e4fbdf700000000000000000000000000000000000000000000000000000000815260040162000154919062000738565b60405180910390fd5b6200016e816200024f60201b60201c565b5081600460006101000a81548173ffffffffffffffffffffffffffffffffffffffff021916908373ffffffffffffffffffffffffffffffffffffffff16021790555080600560006101000a81548173ffffffffffffffffffffffffffffffffffffffff021916908373ffffffffffffffffffffffffffffffffffffffff16021790555033600660006101000a81548173ffffffffffffffffffffffffffffffffffffffff021916908373ffffffffffffffffffffffffffffffffffffffff160217905550505062000755565b80600290816200024b91906200058f565b5050565b6000600360009054906101000a900473ffffffffffffffffffffffffffffffffffffffff16905081600360006101000a81548173ffffffffffffffffffffffffffffffffffffffff021916908373ffffffffffffffffffffffffffffffffffffffff1602179055508173ffffffffffffffffffffffffffffffffffffffff168173ffffffffffffffffffffffffffffffffffffffff167f8be0079c531659141344cd1fd0a4f28419497f9722a3daafe3b4186f6b6457e060405160405180910390a35050565b600081519050919050565b7f4e487b7100000000000000000000000000000000000000000000000000000000600052604160045260246000fd5b7f4e487b7100000000000000000000000000000000000000000000000000000000600052602260045260246000fd5b600060028204905060018216806200039757607f821691505b602082108103620003ad57620003ac6200034f565b5b50919050565b60008190508160005260206000209050919050565b60006020601f8301049050919050565b600082821b905092915050565b600060088302620004177fffffffffffffffffffffffffffffffffffffffffffffffffffffffffffffffff82620003d8565b620004238683620003d8565b95508019841693508086168417925050509392505050565b6000819050919050565b6000819050919050565b6000620004706200046a62000464846200043b565b62000445565b6200043b565b9050919050565b6000819050919050565b6200048c836200044f565b620004a46200049b8262000477565b848454620003e5565b825550505050565b600090565b620004bb620004ac565b620004c881848462000481565b505050565b5b81811015620004f057620004e4600082620004b1565b600181019050620004ce565b5050565b601f8211156200053f576200050981620003b3565b6200051484620003c8565b8101602085101562000524578190505b6200053c6200053385620003c8565b830182620004cd565b50505b505050565b600082821c905092915050565b6000620005646000198460080262000544565b1980831691505092915050565b60006200057f838362000551565b9150826002028217905092915050565b6200059a8262000315565b67ffffffffffffffff811115620005b657620005b562000320565b5b620005c282546200037e565b620005cf828285620004f4565b600060209050601f831160018114620006075760008415620005f2578287015190505b620005fe858262000571565b8655506200066e565b601f1984166200061786620003b3565b60005b8281101562000641578489015182556001820191506020850194506020810190506200061a565b868310156200066157848901516200065d601f89168262000551565b8355505b6001600288020188555050505b505050505050565b600080fd5b600073ffffffffffffffffffffffffffffffffffffffff82169050919050565b6000620006a8826200067b565b9050919050565b620006ba816200069b565b8114620006c657600080fd5b50565b600081519050620006da81620006af565b92915050565b60008060408385031215620006fa57620006f962000676565b5b60006200070a85828601620006c9565b92505060206200071d85828601620006c9565b9150509250929050565b62000732816200069b565b82525050565b60006020820190506200074f600083018462000727565b92915050565b61544c80620007656000396000f3fe6080604052600436106101ed5760003560e01c806391ccaf901161010d578063c1a13d1a116100a0578063dfafb13b1161006f578063dfafb13b14610701578063e985e9c51461072a578063eb7f3b0514610767578063f242432a14610783578063f2fde38b146107ac576101ed565b8063c1a13d1a14610621578063ca2f003d1461065e578063d3beb2981461069b578063d52c58e9146106c4576101ed565b8063a22cb465116100dc578063a22cb46514610555578063a8aff0d21461057e578063a9efa214146105a7578063ae508229146105e4576101ed565b806391ccaf90146104cc5780639310c337146104f757806395d89b4114610501578063a0d587d31461052c576101ed565b80631cce58dc116101855780636e0f15eb116101545780636e0f15eb14610424578063715018a61461046157806377ab85ca146104785780638da5cb5b146104a1576101ed565b80631cce58dc1461037c5780631f3defbe146103a75780632eb2c2d6146103be5780634e1273f4146103e7576101ed565b80630b231e30116101c15780630b231e30146102ae5780630dba5d42146102d75780630e89341c14610302578063171841191461033f576101ed565b8062fdd58e146101f257806301ffc9a71461022f5780630363816a1461026c57806306fdde0314610283575b600080fd5b3480156101fe57600080fd5b5061021960048036038101906102149190614485565b6107d5565b60405161022691906144d4565b60405180910390f35b34801561023b57600080fd5b5061025660048036038101906102519190614547565b61082f565b604051610263919061458f565b60405180910390f35b34801561027857600080fd5b50610281610911565b005b34801561028f57600080fd5b50610298610bce565b6040516102a5919061463a565b60405180910390f35b3480156102ba57600080fd5b506102d560048036038101906102d0919061465c565b610c5c565b005b3480156102e357600080fd5b506102ec610d7c565b6040516102f99190614747565b60405180910390f35b34801561030e57600080fd5b506103296004803603810190610324919061465c565b610dd4565b604051610336919061463a565b60405180910390f35b34801561034b57600080fd5b506103666004803603810190610361919061465c565b610e68565b6040516103739190614747565b60405180910390f35b34801561038857600080fd5b50610391610ed3565b60405161039e9190614747565b60405180910390f35b3480156103b357600080fd5b506103bc610f68565b005b3480156103ca57600080fd5b506103e560048036038101906103e09190614966565b61102f565b005b3480156103f357600080fd5b5061040e60048036038101906104099190614af8565b6110d7565b60405161041b9190614747565b60405180910390f35b34801561043057600080fd5b5061044b6004803603810190610446919061465c565b6111e6565b60405161045891906144d4565b60405180910390f35b34801561046d57600080fd5b50610476611203565b005b34801561048457600080fd5b5061049f600480360381019061049a9190614b70565b611217565b005b3480156104ad57600080fd5b506104b661140a565b6040516104c39190614be6565b60405180910390f35b3480156104d857600080fd5b506104e1611434565b6040516104ee9190614747565b60405180910390f35b6104ff61148c565b005b34801561050d57600080fd5b50610516611541565b604051610523919061463a565b60405180910390f35b34801561053857600080fd5b50610553600480360381019061054e919061465c565b6115cf565b005b34801561056157600080fd5b5061057c60048036038101906105779190614c2d565b61193b565b005b34801561058a57600080fd5b506105a560048036038101906105a09190614485565b611951565b005b3480156105b357600080fd5b506105ce60048036038101906105c9919061465c565b611bb1565b6040516105db9190614d2b565b60405180910390f35b3480156105f057600080fd5b5061060b6004803603810190610606919061465c565b611c52565b60405161061891906144d4565b60405180910390f35b34801561062d57600080fd5b5061064860048036038101906106439190614d4d565b611c76565b60405161065591906144d4565b60405180910390f35b34801561066a57600080fd5b5061068560048036038101906106809190614d4d565b611d1b565b60405161069291906144d4565b60405180910390f35b3480156106a757600080fd5b506106c260048036038101906106bd9190614485565b611d64565b005b3480156106d057600080fd5b506106eb60048036038101906106e6919061465c565b611ef4565b6040516106f891906144d4565b60405180910390f35b34801561070d57600080fd5b5061072860048036038101906107239190614d7a565b611f35565b005b34801561073657600080fd5b50610751600480360381019061074c9190614dba565b6122d1565b60405161075e919061458f565b60405180910390f35b610781600480360381019061077c919061465c565b612365565b005b34801561078f57600080fd5b506107aa60048036038101906107a59190614dfa565b612843565b005b3480156107b857600080fd5b506107d360048036038101906107ce9190614d4d565b6128eb565b005b600080600083815260200190815260200160002060008473ffffffffffffffffffffffffffffffffffffffff1673ffffffffffffffffffffffffffffffffffffffff16815260200190815260200160002054905092915050565b60007fd9b67a26000000000000000000000000000000000000000000000000000000007bffffffffffffffffffffffffffffffffffffffffffffffffffffffff1916827bffffffffffffffffffffffffffffffffffffffffffffffffffffffff191614806108fa57507f0e89341c000000000000000000000000000000000000000000000000000000007bffffffffffffffffffffffffffffffffffffffffffffffffffffffff1916827bffffffffffffffffffffffffffffffffffffffffffffffffffffffff1916145b8061090a575061090982612971565b5b9050919050565b6109196129db565b6009600560009054906101000a900473ffffffffffffffffffffffffffffffffffffffff1673ffffffffffffffffffffffffffffffffffffffff166375794a3c6040518163ffffffff1660e01b8152600401602060405180830381865afa158015610988573d6000803e3d6000fd5b505050506040513d601f19601f820116820180604052508101906109ac9190614ea6565b908060018154018082558091505060019003906000526020600020016000909190919091505560001515600b6000600560009054906101000a900473ffffffffffffffffffffffffffffffffffffffff1673ffffffffffffffffffffffffffffffffffffffff166375794a3c6040518163ffffffff1660e01b8152600401602060405180830381865afa158015610a47573d6000803e3d6000fd5b505050506040513d601f19601f82011682018060405250810190610a6b9190614ea6565b815260200190815260200160002060009054906101000a90505050600a600560009054906101000a900473ffffffffffffffffffffffffffffffffffffffff1673ffffffffffffffffffffffffffffffffffffffff166375794a3c6040518163ffffffff1660e01b8152600401602060405180830381865afa158015610af5573d6000803e3d6000fd5b505050506040513d601f19601f82011682018060405250810190610b199190614ea6565b9080600181540180825580915050600190039060005260206000200160009091909190915055600560009054906101000a900473ffffffffffffffffffffffffffffffffffffffff1673ffffffffffffffffffffffffffffffffffffffff166340d097c3336040518263ffffffff1660e01b8152600401610b9a9190614be6565b600060405180830381600087803b158015610bb457600080fd5b505af1158015610bc8573d6000803e3d6000fd5b50505050565b60078054610bdb90614f02565b80601f0160208091040260200160405190810160405280929190818152602001828054610c0790614f02565b8015610c545780601f10610c2957610100808354040283529160200191610c54565b820191906000526020600020905b815481529060010190602001808311610c3757829003601f168201915b505050505081565b806000610c6933836107d5565b11610c7357600080fd5b6000600d60006010600086815260200190815260200160002054815260200190815260200160002060009054906101000a900473ffffffffffffffffffffffffffffffffffffffff169050610cdb338285600160405180602001604052806000815250612843565b6001600f60006010600087815260200190815260200160002054815260200190815260200160002060008581526020019081526020016000206000828254610d239190614f62565b92505081905550601360003373ffffffffffffffffffffffffffffffffffffffff1673ffffffffffffffffffffffffffffffffffffffff16815260200190815260200160002060009055610d773384612a62565b505050565b6060600a805480602002602001604051908101604052809291908181526020018280548015610dca57602002820191906000526020600020905b815481526020019060010190808311610db6575b5050505050905090565b606060028054610de390614f02565b80601f0160208091040260200160405190810160405280929190818152602001828054610e0f90614f02565b8015610e5c5780601f10610e3157610100808354040283529160200191610e5c565b820191906000526020600020905b815481529060010190602001808311610e3f57829003601f168201915b50505050509050919050565b6060600e6000838152602001908152602001600020805480602002602001604051908101604052809291908181526020018280548015610ec757602002820191906000526020600020905b815481526020019060010190808311610eb3575b50505050509050919050565b6060600c60003373ffffffffffffffffffffffffffffffffffffffff1673ffffffffffffffffffffffffffffffffffffffff168152602001908152602001600020805480602002602001604051908101604052809291908181526020018280548015610f5e57602002820191906000526020600020905b815481526020019060010190808311610f4a575b5050505050905090565b60005b600c60003373ffffffffffffffffffffffffffffffffffffffff1673ffffffffffffffffffffffffffffffffffffffff1681526020019081526020016000208054905081101561102c57611019600c60003373ffffffffffffffffffffffffffffffffffffffff1673ffffffffffffffffffffffffffffffffffffffff168152602001908152602001600020828154811061100957611008614f96565b5b9060005260206000200154612dba565b808061102490614fc5565b915050610f6b565b50565b6000611039613065565b90508073ffffffffffffffffffffffffffffffffffffffff168673ffffffffffffffffffffffffffffffffffffffff161415801561107e575061107c86826122d1565b155b156110c25780866040517fe237d9220000000000000000000000000000000000000000000000000000000081526004016110b992919061500d565b60405180910390fd5b6110cf868686868661306d565b505050505050565b6060815183511461112357815183516040517f5b05999100000000000000000000000000000000000000000000000000000000815260040161111a929190615036565b60405180910390fd5b6000835167ffffffffffffffff8111156111405761113f61476e565b5b60405190808252806020026020018201604052801561116e5781602001602082028036833780820191505090505b50905060005b84518110156111db576111ab611193828761316590919063ffffffff16565b6111a6838761317990919063ffffffff16565b6107d5565b8282815181106111be576111bd614f96565b5b602002602001018181525050806111d490614fc5565b9050611174565b508091505092915050565b600060156000838152602001908152602001600020549050919050565b61120b6129db565b611215600061318d565b565b833373ffffffffffffffffffffffffffffffffffffffff16600560009054906101000a900473ffffffffffffffffffffffffffffffffffffffff1673ffffffffffffffffffffffffffffffffffffffff16639870dce0836040518263ffffffff1660e01b815260040161128a91906144d4565b602060405180830381865afa1580156112a7573d6000803e3d6000fd5b505050506040513d601f19601f820116820180604052508101906112cb9190615074565b73ffffffffffffffffffffffffffffffffffffffff16146112eb57600080fd5b60006010600086815260200190815260200160002054148061131f5750846010600086815260200190815260200160002054145b61132857600080fd5b61134333858560405180602001604052806000815250613253565b8460106000868152602001908152602001600020541461139857600e60008681526020019081526020016000208490806001815401808255809150506001900390600052602060002001600090919091909150555b82600f6000878152602001908152602001600020600086815260200190815260200160002060008282546113cc9190614f62565b925050819055508460106000868152602001908152602001600020819055508160156000868152602001908152602001600020819055505050505050565b6000600360009054906101000a900473ffffffffffffffffffffffffffffffffffffffff16905090565b6060600980548060200260200160405190810160405280929190818152602001828054801561148257602002820191906000526020600020905b81548152602001906001019080831161146e575b5050505050905090565b343373ffffffffffffffffffffffffffffffffffffffff163110156114b057600080fd5b600460009054906101000a900473ffffffffffffffffffffffffffffffffffffffff1673ffffffffffffffffffffffffffffffffffffffff1663191dd14934336040518363ffffffff1660e01b815260040161150d9291906150a1565b600060405180830381600087803b15801561152757600080fd5b505af115801561153b573d6000803e3d6000fd5b50505050565b6008805461154e90614f02565b80601f016020809104026020016040519081016040528092919081815260200182805461157a90614f02565b80156115c75780601f1061159c576101008083540402835291602001916115c7565b820191906000526020600020905b8154815290600101906020018083116115aa57829003601f168201915b505050505081565b803373ffffffffffffffffffffffffffffffffffffffff16600560009054906101000a900473ffffffffffffffffffffffffffffffffffffffff1673ffffffffffffffffffffffffffffffffffffffff16639870dce0836040518263ffffffff1660e01b815260040161164291906144d4565b602060405180830381865afa15801561165f573d6000803e3d6000fd5b505050506040513d601f19601f820116820180604052508101906116839190615074565b73ffffffffffffffffffffffffffffffffffffffff16146116a357600080fd5b600560009054906101000a900473ffffffffffffffffffffffffffffffffffffffff1673ffffffffffffffffffffffffffffffffffffffff1663e985e9c533306040518363ffffffff1660e01b815260040161170092919061500d565b602060405180830381865afa15801561171d573d6000803e3d6000fd5b505050506040513d601f19601f8201168201806040525081019061174191906150df565b611780576040517f08c379a000000000000000000000000000000000000000000000000000000000815260040161177790615158565b60405180910390fd5b6117ac82600660009054906101000a900473ffffffffffffffffffffffffffffffffffffffff166132ec565b6117b58261350e565b600560009054906101000a900473ffffffffffffffffffffffffffffffffffffffff1673ffffffffffffffffffffffffffffffffffffffff166342842e0e33600660009054906101000a900473ffffffffffffffffffffffffffffffffffffffff16856040518463ffffffff1660e01b815260040161183693929190615178565b600060405180830381600087803b15801561185057600080fd5b505af1158015611864573d6000803e3d6000fd5b505050506000600b600084815260200190815260200160002060006101000a81548160ff02191690831515021790555081600a6001846118a491906151af565b815481106118b5576118b4614f96565b5b9060005260206000200181905550600660009054906101000a900473ffffffffffffffffffffffffffffffffffffffff16600d600084815260200190815260200160002060006101000a81548173ffffffffffffffffffffffffffffffffffffffff021916908373ffffffffffffffffffffffffffffffffffffffff1602179055505050565b61194d611946613065565b838361396a565b5050565b60106000828152602001908152602001600020543373ffffffffffffffffffffffffffffffffffffffff16600560009054906101000a900473ffffffffffffffffffffffffffffffffffffffff1673ffffffffffffffffffffffffffffffffffffffff16639870dce0836040518263ffffffff1660e01b81526004016119d791906144d4565b602060405180830381865afa1580156119f4573d6000803e3d6000fd5b505050506040513d601f19601f82011682018060405250810190611a189190615074565b73ffffffffffffffffffffffffffffffffffffffff1614611a3857600080fd5b6000600f60006010600086815260200190815260200160002054815260200190815260200160002060008481526020019081526020016000205490506000811115611ba6576001600f60006010600087815260200190815260200160002054815260200190815260200160002060008581526020019081526020016000206000828254611ac591906151af565b92505081905550611ae9338585600160405180602001604052806000815250612843565b82601360008673ffffffffffffffffffffffffffffffffffffffff1673ffffffffffffffffffffffffffffffffffffffff1681526020019081526020016000208190555060126000848152602001908152602001600020849080600181540180825580915050600190039060005260206000200160009091909190916101000a81548173ffffffffffffffffffffffffffffffffffffffff021916908373ffffffffffffffffffffffffffffffffffffffff160217905550611bab565b600080fd5b50505050565b606060126000838152602001908152602001600020805480602002602001604051908101604052809291908181526020018280548015611c4657602002820191906000526020600020905b8160009054906101000a900473ffffffffffffffffffffffffffffffffffffffff1673ffffffffffffffffffffffffffffffffffffffff1681526020019060010190808311611bfc575b50505050509050919050565b60098181548110611c6257600080fd5b906000526020600020016000915090505481565b6000600460009054906101000a900473ffffffffffffffffffffffffffffffffffffffff1673ffffffffffffffffffffffffffffffffffffffff166370a08231836040518263ffffffff1660e01b8152600401611cd39190614be6565b602060405180830381865afa158015611cf0573d6000803e3d6000fd5b505050506040513d601f19601f82011682018060405250810190611d149190614ea6565b9050919050565b6000601460008373ffffffffffffffffffffffffffffffffffffffff1673ffffffffffffffffffffffffffffffffffffffff168152602001908152602001600020549050919050565b60106000601360008573ffffffffffffffffffffffffffffffffffffffff1673ffffffffffffffffffffffffffffffffffffffff168152602001908152602001600020548152602001908152602001600020543373ffffffffffffffffffffffffffffffffffffffff16600560009054906101000a900473ffffffffffffffffffffffffffffffffffffffff1673ffffffffffffffffffffffffffffffffffffffff16639870dce0836040518263ffffffff1660e01b8152600401611e2991906144d4565b602060405180830381865afa158015611e46573d6000803e3d6000fd5b505050506040513d601f19601f82011682018060405250810190611e6a9190615074565b73ffffffffffffffffffffffffffffffffffffffff1614611e8a57600080fd5b8160008111611e9857600080fd5b82601460008673ffffffffffffffffffffffffffffffffffffffff1673ffffffffffffffffffffffffffffffffffffffff1681526020019081526020016000206000828254611ee79190614f62565b9250508190555050505050565b6000600f6000601060008581526020019081526020016000205481526020019081526020016000206000838152602001908152602001600020549050919050565b611f3d6129db565b60005b600c60008373ffffffffffffffffffffffffffffffffffffffff1673ffffffffffffffffffffffffffffffffffffffff168152602001908152602001600020805490508110156120045782600c60008473ffffffffffffffffffffffffffffffffffffffff1673ffffffffffffffffffffffffffffffffffffffff1681526020019081526020016000208281548110611fdc57611fdb614f96565b5b906000526020600020015403611ff157600080fd5b8080611ffc90614fc5565b915050611f40565b506001600b600084815260200190815260200160002060006101000a81548160ff02191690831515021790555060005b600a8054905081101561209c5782600a828154811061205657612055614f96565b5b90600052602060002001540361208957600a818154811061207a57612079614f96565b5b90600052602060002001600090555b808061209490614fc5565b915050612034565b50600560009054906101000a900473ffffffffffffffffffffffffffffffffffffffff1673ffffffffffffffffffffffffffffffffffffffff1663e985e9c582306040518363ffffffff1660e01b81526004016120fa92919061500d565b602060405180830381865afa158015612117573d6000803e3d6000fd5b505050506040513d601f19601f8201168201806040525081019061213b91906150df565b61217a576040517f08c379a000000000000000000000000000000000000000000000000000000000815260040161217190615158565b60405180910390fd5b61218482826132ec565b600560009054906101000a900473ffffffffffffffffffffffffffffffffffffffff1673ffffffffffffffffffffffffffffffffffffffff166342842e0e3383856040518463ffffffff1660e01b81526004016121e393929190615178565b600060405180830381600087803b1580156121fd57600080fd5b505af1158015612211573d6000803e3d6000fd5b5050505080600d600084815260200190815260200160002060006101000a81548173ffffffffffffffffffffffffffffffffffffffff021916908373ffffffffffffffffffffffffffffffffffffffff160217905550600c60008273ffffffffffffffffffffffffffffffffffffffff1673ffffffffffffffffffffffffffffffffffffffff1681526020019081526020016000208290806001815401808255809150506001900390600052602060002001600090919091909150555050565b6000600160008473ffffffffffffffffffffffffffffffffffffffff1673ffffffffffffffffffffffffffffffffffffffff16815260200190815260200160002060008373ffffffffffffffffffffffffffffffffffffffff1673ffffffffffffffffffffffffffffffffffffffff16815260200190815260200160002060009054906101000a900460ff16905092915050565b338180600460009054906101000a900473ffffffffffffffffffffffffffffffffffffffff1673ffffffffffffffffffffffffffffffffffffffff166370a08231846040518263ffffffff1660e01b81526004016123c39190614be6565b602060405180830381865afa1580156123e0573d6000803e3d6000fd5b505050506040513d601f19601f820116820180604052508101906124049190614ea6565b101561240f57600080fd5b826000811161241d57600080fd5b60003390506000600d600060106000601360003373ffffffffffffffffffffffffffffffffffffffff1673ffffffffffffffffffffffffffffffffffffffff16815260200190815260200160002054815260200190815260200160002054815260200190815260200160002060009054906101000a900473ffffffffffffffffffffffffffffffffffffffff1690506000601460008473ffffffffffffffffffffffffffffffffffffffff1673ffffffffffffffffffffffffffffffffffffffff1681526020019081526020016000205490508087106126925780600460009054906101000a900473ffffffffffffffffffffffffffffffffffffffff1673ffffffffffffffffffffffffffffffffffffffff1663dd62ed3e33306040518363ffffffff1660e01b815260040161255592919061500d565b602060405180830381865afa158015612572573d6000803e3d6000fd5b505050506040513d601f19601f820116820180604052508101906125969190614ea6565b10156125a5576125a46151e3565b5b600460009054906101000a900473ffffffffffffffffffffffffffffffffffffffff1673ffffffffffffffffffffffffffffffffffffffff166323b872dd8484846040518463ffffffff1660e01b815260040161260493929190615178565b6020604051808303816000875af1158015612623573d6000803e3d6000fd5b505050506040513d601f19601f8201168201806040525081019061264791906150df565b506000601460008573ffffffffffffffffffffffffffffffffffffffff1673ffffffffffffffffffffffffffffffffffffffff1681526020019081526020016000208190555061283a565b86600460009054906101000a900473ffffffffffffffffffffffffffffffffffffffff1673ffffffffffffffffffffffffffffffffffffffff1663dd62ed3e33306040518363ffffffff1660e01b81526004016126f092919061500d565b602060405180830381865afa15801561270d573d6000803e3d6000fd5b505050506040513d601f19601f820116820180604052508101906127319190614ea6565b10156127405761273f6151e3565b5b600460009054906101000a900473ffffffffffffffffffffffffffffffffffffffff1673ffffffffffffffffffffffffffffffffffffffff166323b872dd84848a6040518463ffffffff1660e01b815260040161279f93929190615178565b6020604051808303816000875af11580156127be573d6000803e3d6000fd5b505050506040513d601f19601f820116820180604052508101906127e291906150df565b5086601460008573ffffffffffffffffffffffffffffffffffffffff1673ffffffffffffffffffffffffffffffffffffffff168152602001908152602001600020600082825461283291906151af565b925050819055505b50505050505050565b600061284d613065565b90508073ffffffffffffffffffffffffffffffffffffffff168673ffffffffffffffffffffffffffffffffffffffff1614158015612892575061289086826122d1565b155b156128d65780866040517fe237d9220000000000000000000000000000000000000000000000000000000081526004016128cd92919061500d565b60405180910390fd5b6128e38686868686613ada565b505050505050565b6128f36129db565b600073ffffffffffffffffffffffffffffffffffffffff168173ffffffffffffffffffffffffffffffffffffffff16036129655760006040517f1e4fbdf700000000000000000000000000000000000000000000000000000000815260040161295c9190614be6565b60405180910390fd5b61296e8161318d565b50565b60007f01ffc9a7000000000000000000000000000000000000000000000000000000007bffffffffffffffffffffffffffffffffffffffffffffffffffffffff1916827bffffffffffffffffffffffffffffffffffffffffffffffffffffffff1916149050919050565b6129e3613065565b73ffffffffffffffffffffffffffffffffffffffff16612a0161140a565b73ffffffffffffffffffffffffffffffffffffffff1614612a6057612a24613065565b6040517f118cdaa7000000000000000000000000000000000000000000000000000000008152600401612a579190614be6565b60405180910390fd5b565b60008273ffffffffffffffffffffffffffffffffffffffff166012600084815260200190815260200160002060016012600086815260200190815260200160002080549050612ab191906151af565b81548110612ac257612ac1614f96565b5b9060005260206000200160009054906101000a900473ffffffffffffffffffffffffffffffffffffffff1673ffffffffffffffffffffffffffffffffffffffff1603612b655760126000838152602001908152602001600020805480612b2b57612b2a615212565b5b6001900381819060005260206000200160006101000a81549073ffffffffffffffffffffffffffffffffffffffff02191690559055612db5565b60005b60016012600085815260200190815260200160002080549050612b8b91906151af565b811015612db3578373ffffffffffffffffffffffffffffffffffffffff16601260008581526020019081526020016000208281548110612bce57612bcd614f96565b5b9060005260206000200160009054906101000a900473ffffffffffffffffffffffffffffffffffffffff1673ffffffffffffffffffffffffffffffffffffffff1603612c785760019150600c60003373ffffffffffffffffffffffffffffffffffffffff1673ffffffffffffffffffffffffffffffffffffffff1681526020019081526020016000208181548110612c6957612c68614f96565b5b90600052602060002001600090555b8115612d485760126000848152602001908152602001600020600182612c9e9190614f62565b81548110612caf57612cae614f96565b5b9060005260206000200160009054906101000a900473ffffffffffffffffffffffffffffffffffffffff16601260008581526020019081526020016000208281548110612cff57612cfe614f96565b5b9060005260206000200160006101000a81548173ffffffffffffffffffffffffffffffffffffffff021916908373ffffffffffffffffffffffffffffffffffffffff1602179055505b60126000848152602001908152602001600020805480612d6b57612d6a615212565b5b6001900381819060005260206000200160006101000a81549073ffffffffffffffffffffffffffffffffffffffff021916905590558080612dab90614fc5565b915050612b68565b505b505050565b803373ffffffffffffffffffffffffffffffffffffffff16600560009054906101000a900473ffffffffffffffffffffffffffffffffffffffff1673ffffffffffffffffffffffffffffffffffffffff16639870dce0836040518263ffffffff1660e01b8152600401612e2d91906144d4565b602060405180830381865afa158015612e4a573d6000803e3d6000fd5b505050506040513d601f19601f82011682018060405250810190612e6e9190615074565b73ffffffffffffffffffffffffffffffffffffffff1614612e8e57600080fd5b60005b600e60008481526020019081526020016000208054905081101561306057600060126000600e60008781526020019081526020016000208481548110612eda57612ed9614f96565b5b90600052602060002001548152602001908152602001600020805480602002602001604051908101604052809291908181526020018280548015612f7357602002820191906000526020600020905b8160009054906101000a900473ffffffffffffffffffffffffffffffffffffffff1673ffffffffffffffffffffffffffffffffffffffff1681526020019060010190808311612f29575b5050505050905060005b815181101561304b5760156000600e60008881526020019081526020016000208581548110612faf57612fae614f96565b5b906000526020600020015481526020019081526020016000205460146000848481518110612fe057612fdf614f96565b5b602002602001015173ffffffffffffffffffffffffffffffffffffffff1673ffffffffffffffffffffffffffffffffffffffff16815260200190815260200160002060008282546130319190614f62565b92505081905550808061304390614fc5565b915050612f7d565b5050808061305890614fc5565b915050612e91565b505050565b600033905090565b600073ffffffffffffffffffffffffffffffffffffffff168473ffffffffffffffffffffffffffffffffffffffff16036130df5760006040517f57f447ce0000000000000000000000000000000000000000000000000000000081526004016130d69190614be6565b60405180910390fd5b600073ffffffffffffffffffffffffffffffffffffffff168573ffffffffffffffffffffffffffffffffffffffff16036131515760006040517f01a835140000000000000000000000000000000000000000000000000000000081526004016131489190614be6565b60405180910390fd5b61315e8585858585613be5565b5050505050565b600060208202602084010151905092915050565b600060208202602084010151905092915050565b6000600360009054906101000a900473ffffffffffffffffffffffffffffffffffffffff16905081600360006101000a81548173ffffffffffffffffffffffffffffffffffffffff021916908373ffffffffffffffffffffffffffffffffffffffff1602179055508173ffffffffffffffffffffffffffffffffffffffff168173ffffffffffffffffffffffffffffffffffffffff167f8be0079c531659141344cd1fd0a4f28419497f9722a3daafe3b4186f6b6457e060405160405180910390a35050565b600073ffffffffffffffffffffffffffffffffffffffff168473ffffffffffffffffffffffffffffffffffffffff16036132c55760006040517f57f447ce0000000000000000000000000000000000000000000000000000000081526004016132bc9190614be6565b60405180910390fd5b6000806132d28585613c97565b915091506132e4600087848487613be5565b505050505050565b6000600e600084815260200190815260200160002080548060200260200160405190810160405280929190818152602001828054801561334b57602002820191906000526020600020905b815481526020019060010190808311613337575b505050505090506000600167ffffffffffffffff81111561336f5761336e61476e565b5b60405190808252806020026020018201604052801561339d5781602001602082028036833780820191505090505b5090506000825167ffffffffffffffff8111156133bd576133bc61476e565b5b6040519080825280602002602001820160405280156133eb5781602001602082028036833780820191505090505b509050338260008151811061340357613402614f96565b5b602002602001019073ffffffffffffffffffffffffffffffffffffffff16908173ffffffffffffffffffffffffffffffffffffffff168152505060005b83518110156134ba57600f6000878152602001908152602001600020600085838151811061347157613470614f96565b5b602002602001015181526020019081526020016000205482828151811061349b5761349a614f96565b5b60200260200101818152505080806134b290614fc5565b915050613440565b50600083511461350757613506338585846040518060400160405280600381526020017f307830000000000000000000000000000000000000000000000000000000000081525061102f565b5b5050505050565b803373ffffffffffffffffffffffffffffffffffffffff16600560009054906101000a900473ffffffffffffffffffffffffffffffffffffffff1673ffffffffffffffffffffffffffffffffffffffff16639870dce0836040518263ffffffff1660e01b815260040161358191906144d4565b602060405180830381865afa15801561359e573d6000803e3d6000fd5b505050506040513d601f19601f820116820180604052508101906135c29190615074565b73ffffffffffffffffffffffffffffffffffffffff16146135e257600080fd5b600082600c60003373ffffffffffffffffffffffffffffffffffffffff1673ffffffffffffffffffffffffffffffffffffffff1681526020019081526020016000206001600c60003373ffffffffffffffffffffffffffffffffffffffff1673ffffffffffffffffffffffffffffffffffffffff1681526020019081526020016000208054905061367391906151af565b8154811061368457613683614f96565b5b9060005260206000200154036136fe57600c60003373ffffffffffffffffffffffffffffffffffffffff1673ffffffffffffffffffffffffffffffffffffffff1681526020019081526020016000208054806136e3576136e2615212565b5b60019003818190600052602060002001600090559055613965565b60005b6001600c60003373ffffffffffffffffffffffffffffffffffffffff1673ffffffffffffffffffffffffffffffffffffffff1681526020019081526020016000208054905061375091906151af565b8110156139635783600c60003373ffffffffffffffffffffffffffffffffffffffff1673ffffffffffffffffffffffffffffffffffffffff16815260200190815260200160002082815481106137a9576137a8614f96565b5b90600052602060002001540361381d5760019150600c60003373ffffffffffffffffffffffffffffffffffffffff1673ffffffffffffffffffffffffffffffffffffffff168152602001908152602001600020818154811061380e5761380d614f96565b5b90600052602060002001600090555b81156138eb57600c60003373ffffffffffffffffffffffffffffffffffffffff1673ffffffffffffffffffffffffffffffffffffffff16815260200190815260200160002060018261386f9190614f62565b815481106138805761387f614f96565b5b9060005260206000200154600c60003373ffffffffffffffffffffffffffffffffffffffff1673ffffffffffffffffffffffffffffffffffffffff16815260200190815260200160002082815481106138dc576138db614f96565b5b90600052602060002001819055505b600c60003373ffffffffffffffffffffffffffffffffffffffff1673ffffffffffffffffffffffffffffffffffffffff16815260200190815260200160002080548061393a57613939615212565b5b60019003818190600052602060002001600090559055808061395b90614fc5565b915050613701565b505b505050565b600073ffffffffffffffffffffffffffffffffffffffff168273ffffffffffffffffffffffffffffffffffffffff16036139dc5760006040517fced3e1000000000000000000000000000000000000000000000000000000000081526004016139d39190614be6565b60405180910390fd5b80600160008573ffffffffffffffffffffffffffffffffffffffff1673ffffffffffffffffffffffffffffffffffffffff16815260200190815260200160002060008473ffffffffffffffffffffffffffffffffffffffff1673ffffffffffffffffffffffffffffffffffffffff16815260200190815260200160002060006101000a81548160ff0219169083151502179055508173ffffffffffffffffffffffffffffffffffffffff168373ffffffffffffffffffffffffffffffffffffffff167f17307eab39ab6107e8899845ad3d59bd9653f200f220920489ca2b5937696c3183604051613acd919061458f565b60405180910390a3505050565b600073ffffffffffffffffffffffffffffffffffffffff168473ffffffffffffffffffffffffffffffffffffffff1603613b4c5760006040517f57f447ce000000000000000000000000000000000000000000000000000000008152600401613b439190614be6565b60405180910390fd5b600073ffffffffffffffffffffffffffffffffffffffff168573ffffffffffffffffffffffffffffffffffffffff1603613bbe5760006040517f01a83514000000000000000000000000000000000000000000000000000000008152600401613bb59190614be6565b60405180910390fd5b600080613bcb8585613c97565b91509150613bdc8787848487613be5565b50505050505050565b613bf185858585613cc7565b600073ffffffffffffffffffffffffffffffffffffffff168473ffffffffffffffffffffffffffffffffffffffff1614613c90576000613c2f613065565b90506001845103613c7f576000613c5060008661317990919063ffffffff16565b90506000613c6860008661317990919063ffffffff16565b9050613c78838989858589614075565b5050613c8e565b613c8d818787878787614229565b5b505b5050505050565b60608060405191506001825283602083015260408201905060018152826020820152604081016040529250929050565b8051825114613d1157815181516040517f5b059991000000000000000000000000000000000000000000000000000000008152600401613d08929190615036565b60405180910390fd5b6000613d1b613065565b905060005b8351811015613f30576000613d3e828661317990919063ffffffff16565b90506000613d55838661317990919063ffffffff16565b9050600073ffffffffffffffffffffffffffffffffffffffff168873ffffffffffffffffffffffffffffffffffffffff1614613e8257600080600084815260200190815260200160002060008a73ffffffffffffffffffffffffffffffffffffffff1673ffffffffffffffffffffffffffffffffffffffff16815260200190815260200160002054905081811015613e2a57888183856040517f03dee4c5000000000000000000000000000000000000000000000000000000008152600401613e219493929190615241565b60405180910390fd5b81810360008085815260200190815260200160002060008b73ffffffffffffffffffffffffffffffffffffffff1673ffffffffffffffffffffffffffffffffffffffff16815260200190815260200160002081905550505b600073ffffffffffffffffffffffffffffffffffffffff168773ffffffffffffffffffffffffffffffffffffffff1614613f1d578060008084815260200190815260200160002060008973ffffffffffffffffffffffffffffffffffffffff1673ffffffffffffffffffffffffffffffffffffffff1681526020019081526020016000206000828254613f159190614f62565b925050819055505b505080613f2990614fc5565b9050613d20565b506001835103613fef576000613f5060008561317990919063ffffffff16565b90506000613f6860008561317990919063ffffffff16565b90508573ffffffffffffffffffffffffffffffffffffffff168773ffffffffffffffffffffffffffffffffffffffff168473ffffffffffffffffffffffffffffffffffffffff167fc3d58168c5ae7397731d063d5bbf3d657854427343f4c083240f7aacaa2d0f628585604051613fe0929190615036565b60405180910390a4505061406e565b8373ffffffffffffffffffffffffffffffffffffffff168573ffffffffffffffffffffffffffffffffffffffff168273ffffffffffffffffffffffffffffffffffffffff167f4a39dc06d4c0dbc64b70af90fd698a233a518aa5d07e595d983b8c0526c8f7fb8686604051614065929190615286565b60405180910390a45b5050505050565b60008473ffffffffffffffffffffffffffffffffffffffff163b1115614221578373ffffffffffffffffffffffffffffffffffffffff1663f23a6e6187878686866040518663ffffffff1660e01b81526004016140d6959493929190615312565b6020604051808303816000875af192505050801561411257506040513d601f19601f8201168201806040525081019061410f9190615381565b60015b614196573d8060008114614142576040519150601f19603f3d011682016040523d82523d6000602084013e614147565b606091505b50600081510361418e57846040517f57f447ce0000000000000000000000000000000000000000000000000000000081526004016141859190614be6565b60405180910390fd5b805181602001fd5b63f23a6e6160e01b7bffffffffffffffffffffffffffffffffffffffffffffffffffffffff1916817bffffffffffffffffffffffffffffffffffffffffffffffffffffffff19161461421f57846040517f57f447ce0000000000000000000000000000000000000000000000000000000081526004016142169190614be6565b60405180910390fd5b505b505050505050565b60008473ffffffffffffffffffffffffffffffffffffffff163b11156143d5578373ffffffffffffffffffffffffffffffffffffffff1663bc197c8187878686866040518663ffffffff1660e01b815260040161428a9594939291906153ae565b6020604051808303816000875af19250505080156142c657506040513d601f19601f820116820180604052508101906142c39190615381565b60015b61434a573d80600081146142f6576040519150601f19603f3d011682016040523d82523d6000602084013e6142fb565b606091505b50600081510361434257846040517f57f447ce0000000000000000000000000000000000000000000000000000000081526004016143399190614be6565b60405180910390fd5b805181602001fd5b63bc197c8160e01b7bffffffffffffffffffffffffffffffffffffffffffffffffffffffff1916817bffffffffffffffffffffffffffffffffffffffffffffffffffffffff1916146143d357846040517f57f447ce0000000000000000000000000000000000000000000000000000000081526004016143ca9190614be6565b60405180910390fd5b505b505050505050565b6000604051905090565b600080fd5b600080fd5b600073ffffffffffffffffffffffffffffffffffffffff82169050919050565b600061441c826143f1565b9050919050565b61442c81614411565b811461443757600080fd5b50565b60008135905061444981614423565b92915050565b6000819050919050565b6144628161444f565b811461446d57600080fd5b50565b60008135905061447f81614459565b92915050565b6000806040838503121561449c5761449b6143e7565b5b60006144aa8582860161443a565b92505060206144bb85828601614470565b9150509250929050565b6144ce8161444f565b82525050565b60006020820190506144e960008301846144c5565b92915050565b60007fffffffff0000000000000000000000000000000000000000000000000000000082169050919050565b614524816144ef565b811461452f57600080fd5b50565b6000813590506145418161451b565b92915050565b60006020828403121561455d5761455c6143e7565b5b600061456b84828501614532565b91505092915050565b60008115159050919050565b61458981614574565b82525050565b60006020820190506145a46000830184614580565b92915050565b600081519050919050565b600082825260208201905092915050565b60005b838110156145e45780820151818401526020810190506145c9565b60008484015250505050565b6000601f19601f8301169050919050565b600061460c826145aa565b61461681856145b5565b93506146268185602086016145c6565b61462f816145f0565b840191505092915050565b600060208201905081810360008301526146548184614601565b905092915050565b600060208284031215614672576146716143e7565b5b600061468084828501614470565b91505092915050565b600081519050919050565b600082825260208201905092915050565b6000819050602082019050919050565b6146be8161444f565b82525050565b60006146d083836146b5565b60208301905092915050565b6000602082019050919050565b60006146f482614689565b6146fe8185614694565b9350614709836146a5565b8060005b8381101561473a57815161472188826146c4565b975061472c836146dc565b92505060018101905061470d565b5085935050505092915050565b6000602082019050818103600083015261476181846146e9565b905092915050565b600080fd5b7f4e487b7100000000000000000000000000000000000000000000000000000000600052604160045260246000fd5b6147a6826145f0565b810181811067ffffffffffffffff821117156147c5576147c461476e565b5b80604052505050565b60006147d86143dd565b90506147e4828261479d565b919050565b600067ffffffffffffffff8211156148045761480361476e565b5b602082029050602081019050919050565b600080fd5b600061482d614828846147e9565b6147ce565b905080838252602082019050602084028301858111156148505761484f614815565b5b835b8181101561487957806148658882614470565b845260208401935050602081019050614852565b5050509392505050565b600082601f83011261489857614897614769565b5b81356148a884826020860161481a565b91505092915050565b600080fd5b600067ffffffffffffffff8211156148d1576148d061476e565b5b6148da826145f0565b9050602081019050919050565b82818337600083830152505050565b6000614909614904846148b6565b6147ce565b905082815260208101848484011115614925576149246148b1565b5b6149308482856148e7565b509392505050565b600082601f83011261494d5761494c614769565b5b813561495d8482602086016148f6565b91505092915050565b600080600080600060a08688031215614982576149816143e7565b5b60006149908882890161443a565b95505060206149a18882890161443a565b945050604086013567ffffffffffffffff8111156149c2576149c16143ec565b5b6149ce88828901614883565b935050606086013567ffffffffffffffff8111156149ef576149ee6143ec565b5b6149fb88828901614883565b925050608086013567ffffffffffffffff811115614a1c57614a1b6143ec565b5b614a2888828901614938565b9150509295509295909350565b600067ffffffffffffffff821115614a5057614a4f61476e565b5b602082029050602081019050919050565b6000614a74614a6f84614a35565b6147ce565b90508083825260208201905060208402830185811115614a9757614a96614815565b5b835b81811015614ac05780614aac888261443a565b845260208401935050602081019050614a99565b5050509392505050565b600082601f830112614adf57614ade614769565b5b8135614aef848260208601614a61565b91505092915050565b60008060408385031215614b0f57614b0e6143e7565b5b600083013567ffffffffffffffff811115614b2d57614b2c6143ec565b5b614b3985828601614aca565b925050602083013567ffffffffffffffff811115614b5a57614b596143ec565b5b614b6685828601614883565b9150509250929050565b60008060008060808587031215614b8a57614b896143e7565b5b6000614b9887828801614470565b9450506020614ba987828801614470565b9350506040614bba87828801614470565b9250506060614bcb87828801614470565b91505092959194509250565b614be081614411565b82525050565b6000602082019050614bfb6000830184614bd7565b92915050565b614c0a81614574565b8114614c1557600080fd5b50565b600081359050614c2781614c01565b92915050565b60008060408385031215614c4457614c436143e7565b5b6000614c528582860161443a565b9250506020614c6385828601614c18565b9150509250929050565b600081519050919050565b600082825260208201905092915050565b6000819050602082019050919050565b614ca281614411565b82525050565b6000614cb48383614c99565b60208301905092915050565b6000602082019050919050565b6000614cd882614c6d565b614ce28185614c78565b9350614ced83614c89565b8060005b83811015614d1e578151614d058882614ca8565b9750614d1083614cc0565b925050600181019050614cf1565b5085935050505092915050565b60006020820190508181036000830152614d458184614ccd565b905092915050565b600060208284031215614d6357614d626143e7565b5b6000614d718482850161443a565b91505092915050565b60008060408385031215614d9157614d906143e7565b5b6000614d9f85828601614470565b9250506020614db08582860161443a565b9150509250929050565b60008060408385031215614dd157614dd06143e7565b5b6000614ddf8582860161443a565b9250506020614df08582860161443a565b9150509250929050565b600080600080600060a08688031215614e1657614e156143e7565b5b6000614e248882890161443a565b9550506020614e358882890161443a565b9450506040614e4688828901614470565b9350506060614e5788828901614470565b925050608086013567ffffffffffffffff811115614e7857614e776143ec565b5b614e8488828901614938565b9150509295509295909350565b600081519050614ea081614459565b92915050565b600060208284031215614ebc57614ebb6143e7565b5b6000614eca84828501614e91565b91505092915050565b7f4e487b7100000000000000000000000000000000000000000000000000000000600052602260045260246000fd5b60006002820490506001821680614f1a57607f821691505b602082108103614f2d57614f2c614ed3565b5b50919050565b7f4e487b7100000000000000000000000000000000000000000000000000000000600052601160045260246000fd5b6000614f6d8261444f565b9150614f788361444f565b9250828201905080821115614f9057614f8f614f33565b5b92915050565b7f4e487b7100000000000000000000000000000000000000000000000000000000600052603260045260246000fd5b6000614fd08261444f565b91507fffffffffffffffffffffffffffffffffffffffffffffffffffffffffffffffff820361500257615001614f33565b5b600182019050919050565b60006040820190506150226000830185614bd7565b61502f6020830184614bd7565b9392505050565b600060408201905061504b60008301856144c5565b61505860208301846144c5565b9392505050565b60008151905061506e81614423565b92915050565b60006020828403121561508a576150896143e7565b5b60006150988482850161505f565b91505092915050565b60006040820190506150b660008301856144c5565b6150c36020830184614bd7565b9392505050565b6000815190506150d981614c01565b92915050565b6000602082840312156150f5576150f46143e7565b5b6000615103848285016150ca565b91505092915050565b7f506c65617365205265717565737420417070726f76616c000000000000000000600082015250565b60006151426017836145b5565b915061514d8261510c565b602082019050919050565b6000602082019050818103600083015261517181615135565b9050919050565b600060608201905061518d6000830186614bd7565b61519a6020830185614bd7565b6151a760408301846144c5565b949350505050565b60006151ba8261444f565b91506151c58361444f565b92508282039050818111156151dd576151dc614f33565b5b92915050565b7f4e487b7100000000000000000000000000000000000000000000000000000000600052600160045260246000fd5b7f4e487b7100000000000000000000000000000000000000000000000000000000600052603160045260246000fd5b60006080820190506152566000830187614bd7565b61526360208301866144c5565b61527060408301856144c5565b61527d60608301846144c5565b95945050505050565b600060408201905081810360008301526152a081856146e9565b905081810360208301526152b481846146e9565b90509392505050565b600081519050919050565b600082825260208201905092915050565b60006152e4826152bd565b6152ee81856152c8565b93506152fe8185602086016145c6565b615307816145f0565b840191505092915050565b600060a0820190506153276000830188614bd7565b6153346020830187614bd7565b61534160408301866144c5565b61534e60608301856144c5565b818103608083015261536081846152d9565b90509695505050505050565b60008151905061537b8161451b565b92915050565b600060208284031215615397576153966143e7565b5b60006153a58482850161536c565b91505092915050565b600060a0820190506153c36000830188614bd7565b6153d06020830187614bd7565b81810360408301526153e281866146e9565b905081810360608301526153f681856146e9565b9050818103608083015261540a81846152d9565b9050969550505050505056fea2646970667358221220d9cc25873444239fa20a971c11ab85d17624242142f18e23dc324b8e5e30992a64736f6c63430008130033",
  "immutableReferences": {},
  "source": "// SPDX-License-Identifier: MIT\r\n\r\n\r\n/*\r\nWarning when testing code\r\nSince transactions have to be approved within the contract they are created in\r\n(So like approving a erc20 transaction must be done in an erc20 contract)\r\nBefore doing a transaction please approve it in the respective contract\r\n*/\r\npragma solidity >=0.4.22 <0.9.0;\r\n\r\n\r\n    import \"@openzeppelin/contracts/access/Ownable.sol\";\r\n    import \"@openzeppelin/contracts/token/ERC1155/ERC1155.sol\";\r\n    import \"./DeedToken.sol\";\r\n    import \"./RentToken.sol\";\r\n\r\n\r\ncontract BuildingToken is ERC1155, Ownable {\r\n    //Data-------------------------------------------------------------------------------------------------------------------\r\n        //Tokens\r\n            RentToken                       private rentToken;\r\n            DeedToken                       private deedToken;\r\n            address                         private contractOwner;\r\n            string public name = \"RoomTokens\";\r\n            string public symbol = \"RTK\";\r\n\r\n        //Building Tracking\r\n            uint256[]                       public  Buildings;\r\n            uint256[]                       private Buildings_available;\r\n            mapping(uint256 => bool)        private Buildings_assigned;\r\n       \r\n            mapping (address => uint256[])  private owner_to_lands;\r\n            mapping (uint256 => address)    private land_to_owner;\r\n       \r\n            mapping (uint256 => uint256[])  private buildings_to_rooms;\r\n            mapping (uint256 => mapping(uint256=>uint)) private building_to_rooms_available;\r\n            mapping (uint256 => uint256)    private room_to_building;\r\n           \r\n            mapping (address => bool)       private tenant_in_room_available;\r\n            mapping (uint256 => address[])  private room_to_tenant;\r\n            mapping (address => uint256)    private tenant_to_room;\r\n        //Payment\r\n            mapping (address => uint)       private amountDue;\r\n            mapping (uint256 => uint)       private rentAmount;\r\n    //Modifiers-------------------------------------------------------------------------------------------------------------------\r\n        //Checks if the landlord owns the Deed of the house\r\n        modifier ownsLand(uint256 _land){\r\n            require(deedToken.checkOwner(_land) == msg.sender);\r\n            _;\r\n            }\r\n        //Checks if the deedID already exists\r\n        modifier UniqueBuildingExists(uint256 _id){\r\n            bool within = false;\r\n            for(uint i; i < Buildings.length; i++){\r\n                if(Buildings[i] == _id){\r\n                    within = true;\r\n                }\r\n            }\r\n            require(within);\r\n            _;\r\n            }\r\n        //Checks if the landlord is interacting with his tenant\r\n        modifier isLandlordofTenant(uint256 _roomid){\r\n            bool within = false;\r\n            for(uint i; i<room_to_tenant[_roomid].length; i++){\r\n                if(room_to_tenant[_roomid][i] == msg.sender){\r\n                    within=true;\r\n                }\r\n            }\r\n            require(deedToken.ownerOf(room_to_building[_roomid]) == msg.sender && within);\r\n            _;\r\n            }\r\n        //Checks if tenant is linked to the room\r\n        modifier tenantInRoom(uint256 _id){\r\n            require(balanceOf(msg.sender, _id) > 0);\r\n            _;\r\n            }\r\n        //Checks if the tenant has enough balance\r\n        modifier enoughBalance(address _user, uint _amount){\r\n            require(rentToken.balanceOf(_user) >= _amount);\r\n            _;\r\n            }\r\n        //Checks for non negative values\r\n        modifier non_negative(uint _amount){\r\n            require(_amount > 0);\r\n            _;\r\n            }\r\n\r\n    //Events-------------------------------------------------------------------------------------------------------------------\r\n\r\n        event MoneyRequested(address _from, uint256 _to);\r\n    //Functions-------------------------------------------------------------------------------------------------------------------\r\n        constructor(address _rentToken, address _deedToken) ERC1155(\"\") Ownable(msg.sender) {\r\n            rentToken = RentToken(_rentToken);\r\n            deedToken = DeedToken(_deedToken);\r\n            // rentToken.setBuildingContractAddress();\r\n            // deedToken.setBuildingContractAddress();\r\n            contractOwner = msg.sender;\r\n            }\r\n        //_________________________________Rent Function_________________________________\r\n            //Charge Fees to a single room\r\n            function chargeFee(address _tenant, uint amount) public ownsLand(room_to_building[tenant_to_room[_tenant]]) non_negative(amount){\r\n                amountDue[_tenant] += amount;\r\n                }\r\n            //Charge rent to all people in a single building\r\n            function chargeRentinBuilding(uint256 building) private ownsLand(building){\r\n                for(uint i; i < buildings_to_rooms[building].length;i++){           //For each room in the building\r\n                    address[] memory _tenants = room_to_tenant[buildings_to_rooms[building][i]];    \r\n                    for(uint j; j < _tenants.length;j++){         //For each tenant linked to roomID\r\n                        amountDue[_tenants[j]] += rentAmount[buildings_to_rooms[building][i]];\r\n                    }\r\n                }\r\n                }\r\n\r\n            //Charge rent to all properties the messenger owns\r\n            function chargeRentAllBuildings() public{\r\n                for(uint i; i < owner_to_lands[msg.sender].length;i++){\r\n                    chargeRentinBuilding(owner_to_lands[msg.sender][i]);\r\n                }\r\n               }\r\n            //Changes the amount of rent linked to a room\r\n            function changeRent(uint256 _id, uint _rentAmount) private ownsLand(_id){\r\n                rentAmount[_id] = _rentAmount;\r\n                emit MoneyRequested(msg.sender,_id);\r\n                }\r\n            //Pay the rent in tokens\r\n            function singlePayRent(uint _amount) public payable enoughBalance(msg.sender,_amount) non_negative(_amount){\r\n                address _tenant = msg.sender;\r\n                address _landlord = land_to_owner[room_to_building[tenant_to_room[msg.sender]]];\r\n                uint due = amountDue[_tenant];\r\n                if(_amount >= due){\r\n                    assert(rentToken.allowance(msg.sender, address(this)) >= due);\r\n                    rentToken.transferFrom(_tenant,_landlord, due);\r\n                    amountDue[_tenant] = 0;\r\n                }\r\n                else{\r\n                    assert(rentToken.allowance(msg.sender, address(this)) >= _amount);\r\n                    rentToken.transferFrom(_tenant,_landlord, _amount);\r\n                    amountDue[_tenant] -= _amount;\r\n                }\r\n                }\r\n        //_________________________________Viewing Info Functions_________________________________\r\n            //Check your rent\r\n            function viewRent (uint256 _room) public view returns(uint){\r\n                return rentAmount[_room];\r\n                }\r\n            //Check the amount due\r\n            function viewDue (address _tenant) public view returns(uint){\r\n                return amountDue[_tenant];\r\n                }\r\n            //View rooms associated to Building\r\n            function viewRooms(uint256 _building) public view returns(uint256[] memory){\r\n                return buildings_to_rooms[_building];\r\n                }\r\n            //View amount of rent tokens for an address\r\n            function viewBalance(address _tenant) public view returns(uint){\r\n                return rentToken.balanceOf(_tenant);\r\n                }\r\n            //View all the buildings\r\n            function viewBuildings() public view  returns(uint256[] memory){\r\n                return Buildings;\r\n                }\r\n            //View all unlinked buildings\r\n            function viewBuildingsAvailable() public view returns(uint256[] memory){\r\n                return Buildings_available;\r\n                }\r\n            //View all buildings owned\r\n            function viewBuildingsOwned() public view returns(uint256[] memory){\r\n                return owner_to_lands[msg.sender];\r\n                }\r\n            //view tenants linked to room\r\n            function viewTenantswithRoom(uint _room) public view returns(address[] memory){\r\n                return room_to_tenant[_room];\r\n                }\r\n            function viewAvailableRooms (uint256 roomID) public view returns(uint256){\r\n                return building_to_rooms_available[room_to_building[roomID]][roomID];}\r\n        //_________________________________Token Creation Functions_________________________________\r\n            function createDeed() public onlyOwner{\r\n                Buildings.push(deedToken.nextTokenId());\r\n                Buildings_assigned[deedToken.nextTokenId()] == false;\r\n                Buildings_available.push(deedToken.nextTokenId());\r\n                deedToken.safeMint(msg.sender);\r\n                }\r\n            function buyRentTokens() public payable  {\r\n                require(msg.sender.balance >= msg.value);\r\n                rentToken.buyRentTokens(msg.value,msg.sender);\r\n                }\r\n            function createRooms(uint256 deed, uint256 id, uint256 amount, uint _rentAmount)public ownsLand(deed){\r\n                require(room_to_building[id] == 0x0 || room_to_building[id] == deed);\r\n                _mint(msg.sender,id,amount,\"\");\r\n                if(room_to_building[id] != deed){\r\n                buildings_to_rooms[deed].push(id);\r\n                }\r\n                building_to_rooms_available[deed][id] += amount;\r\n                room_to_building[id] = deed;\r\n                rentAmount[id] = _rentAmount;\r\n                }\r\n        //_________________________________Token Transfer Functions_________________________________\r\n            //Assigns a deed to a address\r\n            function assignDeed(uint256 _deedId, address _to) public onlyOwner{\r\n                for(uint i; i < owner_to_lands[_to].length;i++){\r\n                    if(owner_to_lands[_to][i] == _deedId){\r\n                        revert();\r\n                    }\r\n                }\r\n                Buildings_assigned[_deedId] = true;\r\n                for(uint i;i < Buildings_available.length;i++){\r\n                    if(Buildings_available[i] == _deedId){\r\n                        delete Buildings_available[i];\r\n                    }\r\n                }\r\n                require(deedToken.isApprovedForAll(_to, address(this)),\"Please Request Approval\");\r\n                sendAllRoomTokensToLandlord(_deedId,_to);\r\n                deedToken.safeTransferFrom(msg.sender, _to, _deedId);\r\n                land_to_owner[_deedId] = _to;\r\n                owner_to_lands[_to].push(_deedId);\r\n                    \r\n                }\r\n\r\n            function sendDeedToContractOwner(uint256 _deedId) public ownsLand(_deedId){\r\n                require(deedToken.isApprovedForAll(msg.sender, address(this)),\"Please Request Approval\");\r\n                sendAllRoomTokensToLandlord(_deedId,contractOwner);\r\n                removeFromOwned(_deedId);\r\n                deedToken.safeTransferFrom(msg.sender, contractOwner, _deedId);\r\n                Buildings_assigned[_deedId]=false;\r\n                Buildings_available[_deedId-1]=(_deedId);\r\n                land_to_owner[_deedId] = address(contractOwner);\r\n                }\r\n            function removeFromOwned(uint256 _id) private ownsLand(_id){\r\n                bool backing = false;\r\n                if(owner_to_lands[msg.sender][owner_to_lands[msg.sender].length - 1] == _id){\r\n                    owner_to_lands[msg.sender].pop();\r\n                }\r\n                else{\r\n                    for(uint i; i < owner_to_lands[msg.sender].length - 1;i++){\r\n                        if(owner_to_lands[msg.sender][i] == _id){\r\n                            backing = true;\r\n                            delete owner_to_lands[msg.sender][i];\r\n                        }\r\n                        if(backing){\r\n                            owner_to_lands[msg.sender][i] = owner_to_lands[msg.sender][i+1];\r\n                        }\r\n                        owner_to_lands[msg.sender].pop();\r\n                    }\r\n                }\r\n                }\r\n            function assignTenant(address tenant, uint256 roomID) public ownsLand(room_to_building[roomID]){\r\n                uint rooms_available = building_to_rooms_available[room_to_building[roomID]][roomID];\r\n                if (rooms_available > 0){\r\n                        building_to_rooms_available[room_to_building[roomID]][roomID] -= 1;\r\n                        safeTransferFrom(msg.sender, tenant, roomID,1,\"\");\r\n                        tenant_to_room[tenant] = roomID;\r\n                        room_to_tenant[roomID].push(tenant);\r\n                    }else{\r\n                        revert();\r\n                    }\r\n                }\r\n           \r\n            function deleteFromRoom(address _tenant, uint256 room) private{\r\n                bool backing = false;\r\n                if(room_to_tenant[room][room_to_tenant[room].length - 1] == _tenant){\r\n                    room_to_tenant[room].pop();\r\n                }\r\n                else{\r\n                    for(uint i; i < room_to_tenant[room].length - 1;i++){\r\n                        if(room_to_tenant[room][i] == _tenant){\r\n                            backing = true;\r\n                            delete owner_to_lands[msg.sender][i];\r\n                        }\r\n                        if(backing){\r\n                            room_to_tenant[room][i] = room_to_tenant[room][i+1];\r\n                        }\r\n                        room_to_tenant[room].pop();\r\n                    }\r\n                }\r\n                }\r\n            function refundRoom(uint256 roomID) public tenantInRoom(roomID) {\r\n                    address landLord = land_to_owner[room_to_building[roomID]];\r\n                    safeTransferFrom(msg.sender,landLord, roomID,1,\"\");\r\n                    building_to_rooms_available[room_to_building[roomID]][roomID] += 1;\r\n                    delete tenant_to_room[msg.sender];\r\n                    deleteFromRoom(msg.sender,roomID);\r\n                }\r\n\r\n            function sendAllRoomTokensToLandlord(uint256 buildingId,address _to) private{\r\n                uint256[] memory temp = buildings_to_rooms[buildingId];\r\n                address[] memory a = new address[](1);\r\n                uint[] memory amounts = new uint[](temp.length);\r\n                a[0] = msg.sender;\r\n                for(uint i; i < temp.length; i++){\r\n                    amounts[i] = building_to_rooms_available[buildingId][temp[i]];\r\n                    }\r\n                if(temp.length != 0){\r\n                safeBatchTransferFrom(msg.sender,_to,temp,amounts,\"0x0\");\r\n                }\r\n                }\r\n            }       \r\n    \r\n   \r\n\r\n\r\n\r\n\r\n",
  "sourcePath": "C:\\Users\\kumko\\OneDrive\\Desktop\\landlord-tenant-project\\contract-folder\\contracts\\BuildingToken.sol",
  "compiler": {
    "name": "solc",
    "version": "0.8.19+commit.7dd6d404.Emscripten.clang"
  },
  "schemaVersion": "3.4.16",
  "updatedAt": "2023-12-03T21:40:13.972Z",
  "networkType": "ethereum",
  "devdoc": {
    "errors": {
      "ERC1155InsufficientBalance(address,uint256,uint256,uint256)": [
        {
          "details": "Indicates an error related to the current `balance` of a `sender`. Used in transfers.",
          "params": {
            "balance": "Current balance for the interacting account.",
            "needed": "Minimum amount required to perform a transfer.",
            "sender": "Address whose tokens are being transferred.",
            "tokenId": "Identifier number of a token."
          }
        }
      ],
      "ERC1155InvalidApprover(address)": [
        {
          "details": "Indicates a failure with the `approver` of a token to be approved. Used in approvals.",
          "params": {
            "approver": "Address initiating an approval operation."
          }
        }
      ],
      "ERC1155InvalidArrayLength(uint256,uint256)": [
        {
          "details": "Indicates an array length mismatch between ids and values in a safeBatchTransferFrom operation. Used in batch transfers.",
          "params": {
            "idsLength": "Length of the array of token identifiers",
            "valuesLength": "Length of the array of token amounts"
          }
        }
      ],
      "ERC1155InvalidOperator(address)": [
        {
          "details": "Indicates a failure with the `operator` to be approved. Used in approvals.",
          "params": {
            "operator": "Address that may be allowed to operate on tokens without being their owner."
          }
        }
      ],
      "ERC1155InvalidReceiver(address)": [
        {
          "details": "Indicates a failure with the token `receiver`. Used in transfers.",
          "params": {
            "receiver": "Address to which tokens are being transferred."
          }
        }
      ],
      "ERC1155InvalidSender(address)": [
        {
          "details": "Indicates a failure with the token `sender`. Used in transfers.",
          "params": {
            "sender": "Address whose tokens are being transferred."
          }
        }
      ],
      "ERC1155MissingApprovalForAll(address,address)": [
        {
          "details": "Indicates a failure with the `operator`s approval. Used in transfers.",
          "params": {
            "operator": "Address that may be allowed to operate on tokens without being their owner.",
            "owner": "Address of the current owner of a token."
          }
        }
      ],
      "OwnableInvalidOwner(address)": [
        {
          "details": "The owner is not a valid owner account. (eg. `address(0)`)"
        }
      ],
      "OwnableUnauthorizedAccount(address)": [
        {
          "details": "The caller account is not authorized to perform an operation."
        }
      ]
    },
    "events": {
      "ApprovalForAll(address,address,bool)": {
        "details": "Emitted when `account` grants or revokes permission to `operator` to transfer their tokens, according to `approved`."
      },
      "TransferBatch(address,address,address,uint256[],uint256[])": {
        "details": "Equivalent to multiple {TransferSingle} events, where `operator`, `from` and `to` are the same for all transfers."
      },
      "TransferSingle(address,address,address,uint256,uint256)": {
        "details": "Emitted when `value` amount of tokens of type `id` are transferred from `from` to `to` by `operator`."
      },
      "URI(string,uint256)": {
        "details": "Emitted when the URI for token type `id` changes to `value`, if it is a non-programmatic URI. If an {URI} event was emitted for `id`, the standard https://eips.ethereum.org/EIPS/eip-1155#metadata-extensions[guarantees] that `value` will equal the value returned by {IERC1155MetadataURI-uri}."
      }
    },
    "kind": "dev",
    "methods": {
      "balanceOf(address,uint256)": {
        "details": "See {IERC1155-balanceOf}."
      },
      "balanceOfBatch(address[],uint256[])": {
        "details": "See {IERC1155-balanceOfBatch}. Requirements: - `accounts` and `ids` must have the same length."
      },
      "isApprovedForAll(address,address)": {
        "details": "See {IERC1155-isApprovedForAll}."
      },
      "owner()": {
        "details": "Returns the address of the current owner."
      },
      "renounceOwnership()": {
        "details": "Leaves the contract without owner. It will not be possible to call `onlyOwner` functions. Can only be called by the current owner. NOTE: Renouncing ownership will leave the contract without an owner, thereby disabling any functionality that is only available to the owner."
      },
      "safeBatchTransferFrom(address,address,uint256[],uint256[],bytes)": {
        "details": "See {IERC1155-safeBatchTransferFrom}."
      },
      "safeTransferFrom(address,address,uint256,uint256,bytes)": {
        "details": "See {IERC1155-safeTransferFrom}."
      },
      "setApprovalForAll(address,bool)": {
        "details": "See {IERC1155-setApprovalForAll}."
      },
      "supportsInterface(bytes4)": {
        "details": "See {IERC165-supportsInterface}."
      },
      "transferOwnership(address)": {
        "details": "Transfers ownership of the contract to a new account (`newOwner`). Can only be called by the current owner."
      },
      "uri(uint256)": {
        "details": "See {IERC1155MetadataURI-uri}. This implementation returns the same URI for *all* token types. It relies on the token type ID substitution mechanism https://eips.ethereum.org/EIPS/eip-1155#metadata[defined in the EIP]. Clients calling this function must replace the `\\{id\\}` substring with the actual token type ID."
      }
    },
    "version": 1
  },
  "userdoc": {
    "kind": "user",
    "methods": {},
    "version": 1
  }
}