{
  "contractName": "DeedToken",
  "abi": [
    {
      "inputs": [],
      "stateMutability": "nonpayable",
      "type": "constructor"
    },
    {
      "inputs": [
        {
          "internalType": "address",
          "name": "sender",
          "type": "address"
        },
        {
          "internalType": "uint256",
          "name": "tokenId",
          "type": "uint256"
        },
        {
          "internalType": "address",
          "name": "owner",
          "type": "address"
        }
      ],
      "name": "ERC721IncorrectOwner",
      "type": "error"
    },
    {
      "inputs": [
        {
          "internalType": "address",
          "name": "operator",
          "type": "address"
        },
        {
          "internalType": "uint256",
          "name": "tokenId",
          "type": "uint256"
        }
      ],
      "name": "ERC721InsufficientApproval",
      "type": "error"
    },
    {
      "inputs": [
        {
          "internalType": "address",
          "name": "approver",
          "type": "address"
        }
      ],
      "name": "ERC721InvalidApprover",
      "type": "error"
    },
    {
      "inputs": [
        {
          "internalType": "address",
          "name": "operator",
          "type": "address"
        }
      ],
      "name": "ERC721InvalidOperator",
      "type": "error"
    },
    {
      "inputs": [
        {
          "internalType": "address",
          "name": "owner",
          "type": "address"
        }
      ],
      "name": "ERC721InvalidOwner",
      "type": "error"
    },
    {
      "inputs": [
        {
          "internalType": "address",
          "name": "receiver",
          "type": "address"
        }
      ],
      "name": "ERC721InvalidReceiver",
      "type": "error"
    },
    {
      "inputs": [
        {
          "internalType": "address",
          "name": "sender",
          "type": "address"
        }
      ],
      "name": "ERC721InvalidSender",
      "type": "error"
    },
    {
      "inputs": [
        {
          "internalType": "uint256",
          "name": "tokenId",
          "type": "uint256"
        }
      ],
      "name": "ERC721NonexistentToken",
      "type": "error"
    },
    {
      "inputs": [
        {
          "internalType": "address",
          "name": "owner",
          "type": "address"
        }
      ],
      "name": "OwnableInvalidOwner",
      "type": "error"
    },
    {
      "inputs": [
        {
          "internalType": "address",
          "name": "account",
          "type": "address"
        }
      ],
      "name": "OwnableUnauthorizedAccount",
      "type": "error"
    },
    {
      "anonymous": false,
      "inputs": [
        {
          "indexed": true,
          "internalType": "address",
          "name": "owner",
          "type": "address"
        },
        {
          "indexed": true,
          "internalType": "address",
          "name": "approved",
          "type": "address"
        },
        {
          "indexed": true,
          "internalType": "uint256",
          "name": "tokenId",
          "type": "uint256"
        }
      ],
      "name": "Approval",
      "type": "event"
    },
    {
      "anonymous": false,
      "inputs": [
        {
          "indexed": true,
          "internalType": "address",
          "name": "owner",
          "type": "address"
        },
        {
          "indexed": true,
          "internalType": "address",
          "name": "operator",
          "type": "address"
        },
        {
          "indexed": false,
          "internalType": "bool",
          "name": "approved",
          "type": "bool"
        }
      ],
      "name": "ApprovalForAll",
      "type": "event"
    },
    {
      "anonymous": false,
      "inputs": [
        {
          "indexed": true,
          "internalType": "address",
          "name": "previousOwner",
          "type": "address"
        },
        {
          "indexed": true,
          "internalType": "address",
          "name": "newOwner",
          "type": "address"
        }
      ],
      "name": "OwnershipTransferred",
      "type": "event"
    },
    {
      "anonymous": false,
      "inputs": [
        {
          "indexed": true,
          "internalType": "address",
          "name": "from",
          "type": "address"
        },
        {
          "indexed": true,
          "internalType": "address",
          "name": "to",
          "type": "address"
        },
        {
          "indexed": true,
          "internalType": "uint256",
          "name": "tokenId",
          "type": "uint256"
        }
      ],
      "name": "Transfer",
      "type": "event"
    },
    {
      "inputs": [
        {
          "internalType": "address",
          "name": "to",
          "type": "address"
        },
        {
          "internalType": "uint256",
          "name": "tokenId",
          "type": "uint256"
        }
      ],
      "name": "approve",
      "outputs": [],
      "stateMutability": "nonpayable",
      "type": "function"
    },
    {
      "inputs": [
        {
          "internalType": "address",
          "name": "owner",
          "type": "address"
        }
      ],
      "name": "balanceOf",
      "outputs": [
        {
          "internalType": "uint256",
          "name": "",
          "type": "uint256"
        }
      ],
      "stateMutability": "view",
      "type": "function",
      "constant": true
    },
    {
      "inputs": [
        {
          "internalType": "uint256",
          "name": "tokenId",
          "type": "uint256"
        }
      ],
      "name": "getApproved",
      "outputs": [
        {
          "internalType": "address",
          "name": "",
          "type": "address"
        }
      ],
      "stateMutability": "view",
      "type": "function",
      "constant": true
    },
    {
      "inputs": [
        {
          "internalType": "address",
          "name": "owner",
          "type": "address"
        },
        {
          "internalType": "address",
          "name": "operator",
          "type": "address"
        }
      ],
      "name": "isApprovedForAll",
      "outputs": [
        {
          "internalType": "bool",
          "name": "",
          "type": "bool"
        }
      ],
      "stateMutability": "view",
      "type": "function",
      "constant": true
    },
    {
      "inputs": [],
      "name": "name",
      "outputs": [
        {
          "internalType": "string",
          "name": "",
          "type": "string"
        }
      ],
      "stateMutability": "view",
      "type": "function",
      "constant": true
    },
    {
      "inputs": [],
      "name": "owner",
      "outputs": [
        {
          "internalType": "address",
          "name": "",
          "type": "address"
        }
      ],
      "stateMutability": "view",
      "type": "function",
      "constant": true
    },
    {
      "inputs": [
        {
          "internalType": "uint256",
          "name": "tokenId",
          "type": "uint256"
        }
      ],
      "name": "ownerOf",
      "outputs": [
        {
          "internalType": "address",
          "name": "",
          "type": "address"
        }
      ],
      "stateMutability": "view",
      "type": "function",
      "constant": true
    },
    {
      "inputs": [],
      "name": "renounceOwnership",
      "outputs": [],
      "stateMutability": "nonpayable",
      "type": "function"
    },
    {
      "inputs": [
        {
          "internalType": "address",
          "name": "from",
          "type": "address"
        },
        {
          "internalType": "address",
          "name": "to",
          "type": "address"
        },
        {
          "internalType": "uint256",
          "name": "tokenId",
          "type": "uint256"
        }
      ],
      "name": "safeTransferFrom",
      "outputs": [],
      "stateMutability": "nonpayable",
      "type": "function"
    },
    {
      "inputs": [
        {
          "internalType": "address",
          "name": "from",
          "type": "address"
        },
        {
          "internalType": "address",
          "name": "to",
          "type": "address"
        },
        {
          "internalType": "uint256",
          "name": "tokenId",
          "type": "uint256"
        },
        {
          "internalType": "bytes",
          "name": "data",
          "type": "bytes"
        }
      ],
      "name": "safeTransferFrom",
      "outputs": [],
      "stateMutability": "nonpayable",
      "type": "function"
    },
    {
      "inputs": [
        {
          "internalType": "address",
          "name": "operator",
          "type": "address"
        },
        {
          "internalType": "bool",
          "name": "approved",
          "type": "bool"
        }
      ],
      "name": "setApprovalForAll",
      "outputs": [],
      "stateMutability": "nonpayable",
      "type": "function"
    },
    {
      "inputs": [
        {
          "internalType": "bytes4",
          "name": "interfaceId",
          "type": "bytes4"
        }
      ],
      "name": "supportsInterface",
      "outputs": [
        {
          "internalType": "bool",
          "name": "",
          "type": "bool"
        }
      ],
      "stateMutability": "view",
      "type": "function",
      "constant": true
    },
    {
      "inputs": [],
      "name": "symbol",
      "outputs": [
        {
          "internalType": "string",
          "name": "",
          "type": "string"
        }
      ],
      "stateMutability": "view",
      "type": "function",
      "constant": true
    },
    {
      "inputs": [
        {
          "internalType": "uint256",
          "name": "tokenId",
          "type": "uint256"
        }
      ],
      "name": "tokenURI",
      "outputs": [
        {
          "internalType": "string",
          "name": "",
          "type": "string"
        }
      ],
      "stateMutability": "view",
      "type": "function",
      "constant": true
    },
    {
      "inputs": [
        {
          "internalType": "address",
          "name": "from",
          "type": "address"
        },
        {
          "internalType": "address",
          "name": "to",
          "type": "address"
        },
        {
          "internalType": "uint256",
          "name": "tokenId",
          "type": "uint256"
        }
      ],
      "name": "transferFrom",
      "outputs": [],
      "stateMutability": "nonpayable",
      "type": "function"
    },
    {
      "inputs": [
        {
          "internalType": "address",
          "name": "newOwner",
          "type": "address"
        }
      ],
      "name": "transferOwnership",
      "outputs": [],
      "stateMutability": "nonpayable",
      "type": "function"
    },
    {
      "inputs": [],
      "name": "setBuildingContractAddress",
      "outputs": [],
      "stateMutability": "nonpayable",
      "type": "function"
    },
    {
      "inputs": [
        {
          "internalType": "address",
          "name": "to",
          "type": "address"
        }
      ],
      "name": "safeMint",
      "outputs": [],
      "stateMutability": "nonpayable",
      "type": "function"
    },
    {
      "inputs": [
        {
          "internalType": "uint256",
          "name": "_id",
          "type": "uint256"
        }
      ],
      "name": "checkOwner",
      "outputs": [
        {
          "internalType": "address",
          "name": "",
          "type": "address"
        }
      ],
      "stateMutability": "view",
      "type": "function",
      "constant": true
    },
    {
      "inputs": [],
      "name": "nextTokenId",
      "outputs": [
        {
          "internalType": "uint256",
          "name": "",
          "type": "uint256"
        }
      ],
      "stateMutability": "view",
      "type": "function",
      "constant": true
    },
    {
      "inputs": [],
      "name": "requestApproval",
      "outputs": [],
      "stateMutability": "nonpayable",
      "type": "function"
    }
  ],
  "bytecode": "0x608060405260016007556000600860006101000a81548173ffffffffffffffffffffffffffffffffffffffff021916908373ffffffffffffffffffffffffffffffffffffffff1602179055503480156200005857600080fd5b50336040518060400160405280600981526020017f44656564546f6b656e00000000000000000000000000000000000000000000008152506040518060400160405280600481526020017f4444544b000000000000000000000000000000000000000000000000000000008152508160009081620000d79190620004b9565b508060019081620000e99190620004b9565b505050600073ffffffffffffffffffffffffffffffffffffffff168173ffffffffffffffffffffffffffffffffffffffff1603620001615760006040517f1e4fbdf7000000000000000000000000000000000000000000000000000000008152600401620001589190620005e5565b60405180910390fd5b62000172816200017960201b60201c565b5062000602565b6000600660009054906101000a900473ffffffffffffffffffffffffffffffffffffffff16905081600660006101000a81548173ffffffffffffffffffffffffffffffffffffffff021916908373ffffffffffffffffffffffffffffffffffffffff1602179055508173ffffffffffffffffffffffffffffffffffffffff168173ffffffffffffffffffffffffffffffffffffffff167f8be0079c531659141344cd1fd0a4f28419497f9722a3daafe3b4186f6b6457e060405160405180910390a35050565b600081519050919050565b7f4e487b7100000000000000000000000000000000000000000000000000000000600052604160045260246000fd5b7f4e487b7100000000000000000000000000000000000000000000000000000000600052602260045260246000fd5b60006002820490506001821680620002c157607f821691505b602082108103620002d757620002d662000279565b5b50919050565b60008190508160005260206000209050919050565b60006020601f8301049050919050565b600082821b905092915050565b600060088302620003417fffffffffffffffffffffffffffffffffffffffffffffffffffffffffffffffff8262000302565b6200034d868362000302565b95508019841693508086168417925050509392505050565b6000819050919050565b6000819050919050565b60006200039a620003946200038e8462000365565b6200036f565b62000365565b9050919050565b6000819050919050565b620003b68362000379565b620003ce620003c582620003a1565b8484546200030f565b825550505050565b600090565b620003e5620003d6565b620003f2818484620003ab565b505050565b5b818110156200041a576200040e600082620003db565b600181019050620003f8565b5050565b601f82111562000469576200043381620002dd565b6200043e84620002f2565b810160208510156200044e578190505b620004666200045d85620002f2565b830182620003f7565b50505b505050565b600082821c905092915050565b60006200048e600019846008026200046e565b1980831691505092915050565b6000620004a983836200047b565b9150826002028217905092915050565b620004c4826200023f565b67ffffffffffffffff811115620004e057620004df6200024a565b5b620004ec8254620002a8565b620004f98282856200041e565b600060209050601f8311600181146200053157600084156200051c578287015190505b6200052885826200049b565b86555062000598565b601f1984166200054186620002dd565b60005b828110156200056b5784890151825560018201915060208501945060208101905062000544565b868310156200058b578489015162000587601f8916826200047b565b8355505b6001600288020188555050505b505050505050565b600073ffffffffffffffffffffffffffffffffffffffff82169050919050565b6000620005cd82620005a0565b9050919050565b620005df81620005c0565b82525050565b6000602082019050620005fc6000830184620005d4565b92915050565b6123be80620006126000396000f3fe608060405234801561001057600080fd5b50600436106101375760003560e01c8063715018a6116100b8578063a22cb4651161007c578063a22cb46514610328578063b88d4fde14610344578063c87b56dd14610360578063e8c8cc2814610390578063e985e9c51461039a578063f2fde38b146103ca57610137565b8063715018a61461029457806375794a3c1461029e5780638da5cb5b146102bc57806395d89b41146102da5780639870dce0146102f857610137565b806340d097c3116100ff57806340d097c3146101f257806342842e0e1461020e5780635dbcf0f71461022a5780636352211e1461023457806370a082311461026457610137565b806301ffc9a71461013c57806306fdde031461016c578063081812fc1461018a578063095ea7b3146101ba57806323b872dd146101d6575b600080fd5b61015660048036038101906101519190611b62565b6103e6565b6040516101639190611baa565b60405180910390f35b6101746104c8565b6040516101819190611c55565b60405180910390f35b6101a4600480360381019061019f9190611cad565b61055a565b6040516101b19190611d1b565b60405180910390f35b6101d460048036038101906101cf9190611d62565b610576565b005b6101f060048036038101906101eb9190611da2565b61058c565b005b61020c60048036038101906102079190611df5565b61068e565b005b61022860048036038101906102239190611da2565b610770565b005b610232610790565b005b61024e60048036038101906102499190611cad565b61081e565b60405161025b9190611d1b565b60405180910390f35b61027e60048036038101906102799190611df5565b610830565b60405161028b9190611e31565b60405180910390f35b61029c6108ea565b005b6102a66108fe565b6040516102b39190611e31565b60405180910390f35b6102c4610908565b6040516102d19190611d1b565b60405180910390f35b6102e2610932565b6040516102ef9190611c55565b60405180910390f35b610312600480360381019061030d9190611cad565b6109c4565b60405161031f9190611d1b565b60405180910390f35b610342600480360381019061033d9190611e78565b6109d6565b005b61035e60048036038101906103599190611fed565b6109ec565b005b61037a60048036038101906103759190611cad565b610a09565b6040516103879190611c55565b60405180910390f35b610398610a72565b005b6103b460048036038101906103af9190612070565b610b14565b6040516103c19190611baa565b60405180910390f35b6103e460048036038101906103df9190611df5565b610ba8565b005b60007f80ac58cd000000000000000000000000000000000000000000000000000000007bffffffffffffffffffffffffffffffffffffffffffffffffffffffff1916827bffffffffffffffffffffffffffffffffffffffffffffffffffffffff191614806104b157507f5b5e139f000000000000000000000000000000000000000000000000000000007bffffffffffffffffffffffffffffffffffffffffffffffffffffffff1916827bffffffffffffffffffffffffffffffffffffffffffffffffffffffff1916145b806104c157506104c082610c2e565b5b9050919050565b6060600080546104d7906120df565b80601f0160208091040260200160405190810160405280929190818152602001828054610503906120df565b80156105505780601f1061052557610100808354040283529160200191610550565b820191906000526020600020905b81548152906001019060200180831161053357829003601f168201915b5050505050905090565b600061056582610c98565b5061056f82610d20565b9050919050565b6105888282610583610d5d565b610d65565b5050565b600073ffffffffffffffffffffffffffffffffffffffff168273ffffffffffffffffffffffffffffffffffffffff16036105fe5760006040517f64a0ae920000000000000000000000000000000000000000000000000000000081526004016105f59190611d1b565b60405180910390fd5b6000610612838361060d610d5d565b610d77565b90508373ffffffffffffffffffffffffffffffffffffffff168173ffffffffffffffffffffffffffffffffffffffff1614610688578382826040517f64283d7b00000000000000000000000000000000000000000000000000000000815260040161067f93929190612110565b60405180910390fd5b50505050565b600073ffffffffffffffffffffffffffffffffffffffff16600860009054906101000a900473ffffffffffffffffffffffffffffffffffffffff1673ffffffffffffffffffffffffffffffffffffffff16036106ed576106ec612147565b5b600860009054906101000a900473ffffffffffffffffffffffffffffffffffffffff1673ffffffffffffffffffffffffffffffffffffffff163373ffffffffffffffffffffffffffffffffffffffff161461074757600080fd5b60006007600081548092919061075c906121a5565b91905055905061076c8282610f91565b5050565b61078b838383604051806020016040528060008152506109ec565b505050565b600073ffffffffffffffffffffffffffffffffffffffff16600860009054906101000a900473ffffffffffffffffffffffffffffffffffffffff1673ffffffffffffffffffffffffffffffffffffffff16036107ef576107ee612147565b5b61081c600860009054906101000a900473ffffffffffffffffffffffffffffffffffffffff1660016109d6565b565b600061082982610c98565b9050919050565b60008073ffffffffffffffffffffffffffffffffffffffff168273ffffffffffffffffffffffffffffffffffffffff16036108a35760006040517f89c62b6400000000000000000000000000000000000000000000000000000000815260040161089a9190611d1b565b60405180910390fd5b600360008373ffffffffffffffffffffffffffffffffffffffff1673ffffffffffffffffffffffffffffffffffffffff168152602001908152602001600020549050919050565b6108f2610faf565b6108fc6000611036565b565b6000600754905090565b6000600660009054906101000a900473ffffffffffffffffffffffffffffffffffffffff16905090565b606060018054610941906120df565b80601f016020809104026020016040519081016040528092919081815260200182805461096d906120df565b80156109ba5780601f1061098f576101008083540402835291602001916109ba565b820191906000526020600020905b81548152906001019060200180831161099d57829003601f168201915b5050505050905090565b60006109cf8261081e565b9050919050565b6109e86109e1610d5d565b83836110fc565b5050565b6109f784848461058c565b610a038484848461126b565b50505050565b6060610a1482610c98565b506000610a1f611422565b90506000815111610a3f5760405180602001604052806000815250610a6a565b80610a4984611439565b604051602001610a5a929190612229565b6040516020818303038152906040525b915050919050565b600073ffffffffffffffffffffffffffffffffffffffff16600860009054906101000a900473ffffffffffffffffffffffffffffffffffffffff1673ffffffffffffffffffffffffffffffffffffffff1614610ad157610ad0612147565b5b33600860006101000a81548173ffffffffffffffffffffffffffffffffffffffff021916908373ffffffffffffffffffffffffffffffffffffffff160217905550565b6000600560008473ffffffffffffffffffffffffffffffffffffffff1673ffffffffffffffffffffffffffffffffffffffff16815260200190815260200160002060008373ffffffffffffffffffffffffffffffffffffffff1673ffffffffffffffffffffffffffffffffffffffff16815260200190815260200160002060009054906101000a900460ff16905092915050565b610bb0610faf565b600073ffffffffffffffffffffffffffffffffffffffff168173ffffffffffffffffffffffffffffffffffffffff1603610c225760006040517f1e4fbdf7000000000000000000000000000000000000000000000000000000008152600401610c199190611d1b565b60405180910390fd5b610c2b81611036565b50565b60007f01ffc9a7000000000000000000000000000000000000000000000000000000007bffffffffffffffffffffffffffffffffffffffffffffffffffffffff1916827bffffffffffffffffffffffffffffffffffffffffffffffffffffffff1916149050919050565b600080610ca483611507565b9050600073ffffffffffffffffffffffffffffffffffffffff168173ffffffffffffffffffffffffffffffffffffffff1603610d1757826040517f7e273289000000000000000000000000000000000000000000000000000000008152600401610d0e9190611e31565b60405180910390fd5b80915050919050565b60006004600083815260200190815260200160002060009054906101000a900473ffffffffffffffffffffffffffffffffffffffff169050919050565b600033905090565b610d728383836001611544565b505050565b600080610d8384611507565b9050600073ffffffffffffffffffffffffffffffffffffffff168373ffffffffffffffffffffffffffffffffffffffff1614610dc557610dc4818486611709565b5b600073ffffffffffffffffffffffffffffffffffffffff168173ffffffffffffffffffffffffffffffffffffffff1614610e5657610e07600085600080611544565b6001600360008373ffffffffffffffffffffffffffffffffffffffff1673ffffffffffffffffffffffffffffffffffffffff168152602001908152602001600020600082825403925050819055505b600073ffffffffffffffffffffffffffffffffffffffff168573ffffffffffffffffffffffffffffffffffffffff1614610ed9576001600360008773ffffffffffffffffffffffffffffffffffffffff1673ffffffffffffffffffffffffffffffffffffffff168152602001908152602001600020600082825401925050819055505b846002600086815260200190815260200160002060006101000a81548173ffffffffffffffffffffffffffffffffffffffff021916908373ffffffffffffffffffffffffffffffffffffffff160217905550838573ffffffffffffffffffffffffffffffffffffffff168273ffffffffffffffffffffffffffffffffffffffff167fddf252ad1be2c89b69c2b068fc378daa952ba7f163c4a11628f55a4df523b3ef60405160405180910390a4809150509392505050565b610fab8282604051806020016040528060008152506117cd565b5050565b610fb7610d5d565b73ffffffffffffffffffffffffffffffffffffffff16610fd5610908565b73ffffffffffffffffffffffffffffffffffffffff161461103457610ff8610d5d565b6040517f118cdaa700000000000000000000000000000000000000000000000000000000815260040161102b9190611d1b565b60405180910390fd5b565b6000600660009054906101000a900473ffffffffffffffffffffffffffffffffffffffff16905081600660006101000a81548173ffffffffffffffffffffffffffffffffffffffff021916908373ffffffffffffffffffffffffffffffffffffffff1602179055508173ffffffffffffffffffffffffffffffffffffffff168173ffffffffffffffffffffffffffffffffffffffff167f8be0079c531659141344cd1fd0a4f28419497f9722a3daafe3b4186f6b6457e060405160405180910390a35050565b600073ffffffffffffffffffffffffffffffffffffffff168273ffffffffffffffffffffffffffffffffffffffff160361116d57816040517f5b08ba180000000000000000000000000000000000000000000000000000000081526004016111649190611d1b565b60405180910390fd5b80600560008573ffffffffffffffffffffffffffffffffffffffff1673ffffffffffffffffffffffffffffffffffffffff16815260200190815260200160002060008473ffffffffffffffffffffffffffffffffffffffff1673ffffffffffffffffffffffffffffffffffffffff16815260200190815260200160002060006101000a81548160ff0219169083151502179055508173ffffffffffffffffffffffffffffffffffffffff168373ffffffffffffffffffffffffffffffffffffffff167f17307eab39ab6107e8899845ad3d59bd9653f200f220920489ca2b5937696c318360405161125e9190611baa565b60405180910390a3505050565b60008373ffffffffffffffffffffffffffffffffffffffff163b111561141c578273ffffffffffffffffffffffffffffffffffffffff1663150b7a026112af610d5d565b8685856040518563ffffffff1660e01b81526004016112d194939291906122a2565b6020604051808303816000875af192505050801561130d57506040513d601f19601f8201168201806040525081019061130a9190612303565b60015b611391573d806000811461133d576040519150601f19603f3d011682016040523d82523d6000602084013e611342565b606091505b50600081510361138957836040517f64a0ae920000000000000000000000000000000000000000000000000000000081526004016113809190611d1b565b60405180910390fd5b805181602001fd5b63150b7a0260e01b7bffffffffffffffffffffffffffffffffffffffffffffffffffffffff1916817bffffffffffffffffffffffffffffffffffffffffffffffffffffffff19161461141a57836040517f64a0ae920000000000000000000000000000000000000000000000000000000081526004016114119190611d1b565b60405180910390fd5b505b50505050565b606060405180602001604052806000815250905090565b606060006001611448846117e9565b01905060008167ffffffffffffffff81111561146757611466611ec2565b5b6040519080825280601f01601f1916602001820160405280156114995781602001600182028036833780820191505090505b509050600082602001820190505b6001156114fc578080600190039150507f3031323334353637383961626364656600000000000000000000000000000000600a86061a8153600a85816114f0576114ef612330565b5b049450600085036114a7575b819350505050919050565b60006002600083815260200190815260200160002060009054906101000a900473ffffffffffffffffffffffffffffffffffffffff169050919050565b808061157d5750600073ffffffffffffffffffffffffffffffffffffffff168273ffffffffffffffffffffffffffffffffffffffff1614155b156116b157600061158d84610c98565b9050600073ffffffffffffffffffffffffffffffffffffffff168373ffffffffffffffffffffffffffffffffffffffff16141580156115f857508273ffffffffffffffffffffffffffffffffffffffff168173ffffffffffffffffffffffffffffffffffffffff1614155b801561160b57506116098184610b14565b155b1561164d57826040517fa9fbf51f0000000000000000000000000000000000000000000000000000000081526004016116449190611d1b565b60405180910390fd5b81156116af57838573ffffffffffffffffffffffffffffffffffffffff168273ffffffffffffffffffffffffffffffffffffffff167f8c5be1e5ebec7d5bd14f71427d1e84f3dd0314c0f7b2291e5b200ac8c7c3b92560405160405180910390a45b505b836004600085815260200190815260200160002060006101000a81548173ffffffffffffffffffffffffffffffffffffffff021916908373ffffffffffffffffffffffffffffffffffffffff16021790555050505050565b61171483838361193c565b6117c857600073ffffffffffffffffffffffffffffffffffffffff168373ffffffffffffffffffffffffffffffffffffffff160361178957806040517f7e2732890000000000000000000000000000000000000000000000000000000081526004016117809190611e31565b60405180910390fd5b81816040517f177e802f0000000000000000000000000000000000000000000000000000000081526004016117bf92919061235f565b60405180910390fd5b505050565b6117d783836119fd565b6117e4600084848461126b565b505050565b600080600090507a184f03e93ff9f4daa797ed6e38ed64bf6a1f0100000000000000008310611847577a184f03e93ff9f4daa797ed6e38ed64bf6a1f010000000000000000838161183d5761183c612330565b5b0492506040810190505b6d04ee2d6d415b85acef81000000008310611884576d04ee2d6d415b85acef8100000000838161187a57611879612330565b5b0492506020810190505b662386f26fc1000083106118b357662386f26fc1000083816118a9576118a8612330565b5b0492506010810190505b6305f5e10083106118dc576305f5e10083816118d2576118d1612330565b5b0492506008810190505b61271083106119015761271083816118f7576118f6612330565b5b0492506004810190505b60648310611924576064838161191a57611919612330565b5b0492506002810190505b600a8310611933576001810190505b80915050919050565b60008073ffffffffffffffffffffffffffffffffffffffff168373ffffffffffffffffffffffffffffffffffffffff16141580156119f457508273ffffffffffffffffffffffffffffffffffffffff168473ffffffffffffffffffffffffffffffffffffffff1614806119b557506119b48484610b14565b5b806119f357508273ffffffffffffffffffffffffffffffffffffffff166119db83610d20565b73ffffffffffffffffffffffffffffffffffffffff16145b5b90509392505050565b600073ffffffffffffffffffffffffffffffffffffffff168273ffffffffffffffffffffffffffffffffffffffff1603611a6f5760006040517f64a0ae92000000000000000000000000000000000000000000000000000000008152600401611a669190611d1b565b60405180910390fd5b6000611a7d83836000610d77565b9050600073ffffffffffffffffffffffffffffffffffffffff168173ffffffffffffffffffffffffffffffffffffffff1614611af15760006040517f73c6ac6e000000000000000000000000000000000000000000000000000000008152600401611ae89190611d1b565b60405180910390fd5b505050565b6000604051905090565b600080fd5b600080fd5b60007fffffffff0000000000000000000000000000000000000000000000000000000082169050919050565b611b3f81611b0a565b8114611b4a57600080fd5b50565b600081359050611b5c81611b36565b92915050565b600060208284031215611b7857611b77611b00565b5b6000611b8684828501611b4d565b91505092915050565b60008115159050919050565b611ba481611b8f565b82525050565b6000602082019050611bbf6000830184611b9b565b92915050565b600081519050919050565b600082825260208201905092915050565b60005b83811015611bff578082015181840152602081019050611be4565b60008484015250505050565b6000601f19601f8301169050919050565b6000611c2782611bc5565b611c318185611bd0565b9350611c41818560208601611be1565b611c4a81611c0b565b840191505092915050565b60006020820190508181036000830152611c6f8184611c1c565b905092915050565b6000819050919050565b611c8a81611c77565b8114611c9557600080fd5b50565b600081359050611ca781611c81565b92915050565b600060208284031215611cc357611cc2611b00565b5b6000611cd184828501611c98565b91505092915050565b600073ffffffffffffffffffffffffffffffffffffffff82169050919050565b6000611d0582611cda565b9050919050565b611d1581611cfa565b82525050565b6000602082019050611d306000830184611d0c565b92915050565b611d3f81611cfa565b8114611d4a57600080fd5b50565b600081359050611d5c81611d36565b92915050565b60008060408385031215611d7957611d78611b00565b5b6000611d8785828601611d4d565b9250506020611d9885828601611c98565b9150509250929050565b600080600060608486031215611dbb57611dba611b00565b5b6000611dc986828701611d4d565b9350506020611dda86828701611d4d565b9250506040611deb86828701611c98565b9150509250925092565b600060208284031215611e0b57611e0a611b00565b5b6000611e1984828501611d4d565b91505092915050565b611e2b81611c77565b82525050565b6000602082019050611e466000830184611e22565b92915050565b611e5581611b8f565b8114611e6057600080fd5b50565b600081359050611e7281611e4c565b92915050565b60008060408385031215611e8f57611e8e611b00565b5b6000611e9d85828601611d4d565b9250506020611eae85828601611e63565b9150509250929050565b600080fd5b600080fd5b7f4e487b7100000000000000000000000000000000000000000000000000000000600052604160045260246000fd5b611efa82611c0b565b810181811067ffffffffffffffff82111715611f1957611f18611ec2565b5b80604052505050565b6000611f2c611af6565b9050611f388282611ef1565b919050565b600067ffffffffffffffff821115611f5857611f57611ec2565b5b611f6182611c0b565b9050602081019050919050565b82818337600083830152505050565b6000611f90611f8b84611f3d565b611f22565b905082815260208101848484011115611fac57611fab611ebd565b5b611fb7848285611f6e565b509392505050565b600082601f830112611fd457611fd3611eb8565b5b8135611fe4848260208601611f7d565b91505092915050565b6000806000806080858703121561200757612006611b00565b5b600061201587828801611d4d565b945050602061202687828801611d4d565b935050604061203787828801611c98565b925050606085013567ffffffffffffffff81111561205857612057611b05565b5b61206487828801611fbf565b91505092959194509250565b6000806040838503121561208757612086611b00565b5b600061209585828601611d4d565b92505060206120a685828601611d4d565b9150509250929050565b7f4e487b7100000000000000000000000000000000000000000000000000000000600052602260045260246000fd5b600060028204905060018216806120f757607f821691505b60208210810361210a576121096120b0565b5b50919050565b60006060820190506121256000830186611d0c565b6121326020830185611e22565b61213f6040830184611d0c565b949350505050565b7f4e487b7100000000000000000000000000000000000000000000000000000000600052600160045260246000fd5b7f4e487b7100000000000000000000000000000000000000000000000000000000600052601160045260246000fd5b60006121b082611c77565b91507fffffffffffffffffffffffffffffffffffffffffffffffffffffffffffffffff82036121e2576121e1612176565b5b600182019050919050565b600081905092915050565b600061220382611bc5565b61220d81856121ed565b935061221d818560208601611be1565b80840191505092915050565b600061223582856121f8565b915061224182846121f8565b91508190509392505050565b600081519050919050565b600082825260208201905092915050565b60006122748261224d565b61227e8185612258565b935061228e818560208601611be1565b61229781611c0b565b840191505092915050565b60006080820190506122b76000830187611d0c565b6122c46020830186611d0c565b6122d16040830185611e22565b81810360608301526122e38184612269565b905095945050505050565b6000815190506122fd81611b36565b92915050565b60006020828403121561231957612318611b00565b5b6000612327848285016122ee565b91505092915050565b7f4e487b7100000000000000000000000000000000000000000000000000000000600052601260045260246000fd5b60006040820190506123746000830185611d0c565b6123816020830184611e22565b939250505056fea26469706673582212205f1da5840499f942ede1eea2132dd0ef80e8c02537e76ebb4860630054da404464736f6c63430008130033",
  "immutableReferences": {},
  "source": "// SPDX-License-Identifier: MIT\r\n\r\n/*\r\nWarning when testing code\r\nSince transactions have to be approved within the contract they are created in\r\n(So like approving a erc20 transaction must be done in an erc20 contract)\r\nBefore doing a transaction please approve it in the respective contract\r\n*/\r\npragma solidity >=0.4.22 <0.9.0;\r\n\r\n\r\nimport \"@openzeppelin/contracts/token/ERC721/ERC721.sol\";\r\nimport \"@openzeppelin/contracts/access/Ownable.sol\";\r\n\r\n\r\n\r\n\r\ncontract DeedToken is ERC721, Ownable {\r\n    /*\r\n        This token may have meta data about basic info about the house such as square footage and address\r\n    */\r\n    //Data-------------------------------------------------------------------------------------------------------------------\r\n        uint256 private _nextTokenId = 1;\r\n        address private BuildingContract = address(0);\r\n\r\n    //Modifiers-------------------------------------------------------------------------------------------------------------------\r\n        //Checks if BuildingContract has not been filled out\r\n        modifier NullBuildingContractAddress(){\r\n            assert(BuildingContract ==  address(0));\r\n            _;\r\n        }   \r\n        //Checks if BuildingContract has been filled out\r\n        modifier MustHaveBuildingContract(){\r\n            assert(BuildingContract !=  address(0));\r\n            _;\r\n        }\r\n        //Checks if only the buildingContract is calling the function\r\n        modifier OnlyBuildingToken(){\r\n            require(msg.sender == BuildingContract);\r\n            _;\r\n        }\r\n    //Functions-------------------------------------------------------------------------------------------------------------------\r\n        constructor()\r\n            ERC721(\"DeedToken\", \"DDTK\")\r\n            Ownable(msg.sender)\r\n        {    }\r\n        \r\n        //Is called upon creation of BuildingTokenContract and will automatically set BuildingContract when that occurs\r\n        function setBuildingContractAddress() external NullBuildingContractAddress{\r\n            BuildingContract = msg.sender;\r\n        }\r\n\r\n        //This is called from the 1155 where it just creates a new erc721 token\r\n        function safeMint(address to) external MustHaveBuildingContract OnlyBuildingToken{\r\n            uint256 tokenId = _nextTokenId++;\r\n            _safeMint(to, tokenId);\r\n        }\r\n        //This checks the owner of a token\r\n        function checkOwner(uint256 _id) public view returns(address){\r\n            return ownerOf(_id);\r\n        }\r\n        //This just gets the next tokenID\r\n        function nextTokenId() public view returns(uint256){\r\n            return _nextTokenId;\r\n        }\r\n        function requestApproval() public MustHaveBuildingContract{\r\n            setApprovalForAll(BuildingContract,true);\r\n        }\r\n\r\n    }",
  "sourcePath": "C:\\Users\\matth\\UB\\Fall2023\\landlord-tenant-project\\contract-folder\\contracts\\DeedToken.sol",
  "compiler": {
    "name": "solc",
    "version": "0.8.19+commit.7dd6d404.Emscripten.clang"
  },
  "schemaVersion": "3.4.16",
  "updatedAt": "2023-12-04T00:59:50.111Z",
  "networkType": "ethereum",
  "devdoc": {
    "errors": {
      "ERC721IncorrectOwner(address,uint256,address)": [
        {
          "details": "Indicates an error related to the ownership over a particular token. Used in transfers.",
          "params": {
            "owner": "Address of the current owner of a token.",
            "sender": "Address whose tokens are being transferred.",
            "tokenId": "Identifier number of a token."
          }
        }
      ],
      "ERC721InsufficientApproval(address,uint256)": [
        {
          "details": "Indicates a failure with the `operator`s approval. Used in transfers.",
          "params": {
            "operator": "Address that may be allowed to operate on tokens without being their owner.",
            "tokenId": "Identifier number of a token."
          }
        }
      ],
      "ERC721InvalidApprover(address)": [
        {
          "details": "Indicates a failure with the `approver` of a token to be approved. Used in approvals.",
          "params": {
            "approver": "Address initiating an approval operation."
          }
        }
      ],
      "ERC721InvalidOperator(address)": [
        {
          "details": "Indicates a failure with the `operator` to be approved. Used in approvals.",
          "params": {
            "operator": "Address that may be allowed to operate on tokens without being their owner."
          }
        }
      ],
      "ERC721InvalidOwner(address)": [
        {
          "details": "Indicates that an address can't be an owner. For example, `address(0)` is a forbidden owner in EIP-20. Used in balance queries.",
          "params": {
            "owner": "Address of the current owner of a token."
          }
        }
      ],
      "ERC721InvalidReceiver(address)": [
        {
          "details": "Indicates a failure with the token `receiver`. Used in transfers.",
          "params": {
            "receiver": "Address to which tokens are being transferred."
          }
        }
      ],
      "ERC721InvalidSender(address)": [
        {
          "details": "Indicates a failure with the token `sender`. Used in transfers.",
          "params": {
            "sender": "Address whose tokens are being transferred."
          }
        }
      ],
      "ERC721NonexistentToken(uint256)": [
        {
          "details": "Indicates a `tokenId` whose `owner` is the zero address.",
          "params": {
            "tokenId": "Identifier number of a token."
          }
        }
      ],
      "OwnableInvalidOwner(address)": [
        {
          "details": "The owner is not a valid owner account. (eg. `address(0)`)"
        }
      ],
      "OwnableUnauthorizedAccount(address)": [
        {
          "details": "The caller account is not authorized to perform an operation."
        }
      ]
    },
    "events": {
      "Approval(address,address,uint256)": {
        "details": "Emitted when `owner` enables `approved` to manage the `tokenId` token."
      },
      "ApprovalForAll(address,address,bool)": {
        "details": "Emitted when `owner` enables or disables (`approved`) `operator` to manage all of its assets."
      },
      "Transfer(address,address,uint256)": {
        "details": "Emitted when `tokenId` token is transferred from `from` to `to`."
      }
    },
    "kind": "dev",
    "methods": {
      "approve(address,uint256)": {
        "details": "See {IERC721-approve}."
      },
      "balanceOf(address)": {
        "details": "See {IERC721-balanceOf}."
      },
      "getApproved(uint256)": {
        "details": "See {IERC721-getApproved}."
      },
      "isApprovedForAll(address,address)": {
        "details": "See {IERC721-isApprovedForAll}."
      },
      "name()": {
        "details": "See {IERC721Metadata-name}."
      },
      "owner()": {
        "details": "Returns the address of the current owner."
      },
      "ownerOf(uint256)": {
        "details": "See {IERC721-ownerOf}."
      },
      "renounceOwnership()": {
        "details": "Leaves the contract without owner. It will not be possible to call `onlyOwner` functions. Can only be called by the current owner. NOTE: Renouncing ownership will leave the contract without an owner, thereby disabling any functionality that is only available to the owner."
      },
      "safeTransferFrom(address,address,uint256)": {
        "details": "See {IERC721-safeTransferFrom}."
      },
      "safeTransferFrom(address,address,uint256,bytes)": {
        "details": "See {IERC721-safeTransferFrom}."
      },
      "setApprovalForAll(address,bool)": {
        "details": "See {IERC721-setApprovalForAll}."
      },
      "supportsInterface(bytes4)": {
        "details": "See {IERC165-supportsInterface}."
      },
      "symbol()": {
        "details": "See {IERC721Metadata-symbol}."
      },
      "tokenURI(uint256)": {
        "details": "See {IERC721Metadata-tokenURI}."
      },
      "transferFrom(address,address,uint256)": {
        "details": "See {IERC721-transferFrom}."
      },
      "transferOwnership(address)": {
        "details": "Transfers ownership of the contract to a new account (`newOwner`). Can only be called by the current owner."
      }
    },
    "version": 1
  },
  "userdoc": {
    "kind": "user",
    "methods": {},
    "version": 1
  }
}