{
  "contractName": "BuildingToken",
  "abi": [
    {
      "inputs": [
        {
          "internalType": "address",
          "name": "_rentToken",
          "type": "address"
        },
        {
          "internalType": "address",
          "name": "_deedToken",
          "type": "address"
        }
      ],
      "stateMutability": "nonpayable",
      "type": "constructor"
    },
    {
      "inputs": [
        {
          "internalType": "address",
          "name": "sender",
          "type": "address"
        },
        {
          "internalType": "uint256",
          "name": "balance",
          "type": "uint256"
        },
        {
          "internalType": "uint256",
          "name": "needed",
          "type": "uint256"
        },
        {
          "internalType": "uint256",
          "name": "tokenId",
          "type": "uint256"
        }
      ],
      "name": "ERC1155InsufficientBalance",
      "type": "error"
    },
    {
      "inputs": [
        {
          "internalType": "address",
          "name": "approver",
          "type": "address"
        }
      ],
      "name": "ERC1155InvalidApprover",
      "type": "error"
    },
    {
      "inputs": [
        {
          "internalType": "uint256",
          "name": "idsLength",
          "type": "uint256"
        },
        {
          "internalType": "uint256",
          "name": "valuesLength",
          "type": "uint256"
        }
      ],
      "name": "ERC1155InvalidArrayLength",
      "type": "error"
    },
    {
      "inputs": [
        {
          "internalType": "address",
          "name": "operator",
          "type": "address"
        }
      ],
      "name": "ERC1155InvalidOperator",
      "type": "error"
    },
    {
      "inputs": [
        {
          "internalType": "address",
          "name": "receiver",
          "type": "address"
        }
      ],
      "name": "ERC1155InvalidReceiver",
      "type": "error"
    },
    {
      "inputs": [
        {
          "internalType": "address",
          "name": "sender",
          "type": "address"
        }
      ],
      "name": "ERC1155InvalidSender",
      "type": "error"
    },
    {
      "inputs": [
        {
          "internalType": "address",
          "name": "operator",
          "type": "address"
        },
        {
          "internalType": "address",
          "name": "owner",
          "type": "address"
        }
      ],
      "name": "ERC1155MissingApprovalForAll",
      "type": "error"
    },
    {
      "inputs": [
        {
          "internalType": "address",
          "name": "owner",
          "type": "address"
        }
      ],
      "name": "OwnableInvalidOwner",
      "type": "error"
    },
    {
      "inputs": [
        {
          "internalType": "address",
          "name": "account",
          "type": "address"
        }
      ],
      "name": "OwnableUnauthorizedAccount",
      "type": "error"
    },
    {
      "anonymous": false,
      "inputs": [
        {
          "indexed": true,
          "internalType": "address",
          "name": "account",
          "type": "address"
        },
        {
          "indexed": true,
          "internalType": "address",
          "name": "operator",
          "type": "address"
        },
        {
          "indexed": false,
          "internalType": "bool",
          "name": "approved",
          "type": "bool"
        }
      ],
      "name": "ApprovalForAll",
      "type": "event"
    },
    {
      "anonymous": false,
      "inputs": [
        {
          "indexed": true,
          "internalType": "address",
          "name": "previousOwner",
          "type": "address"
        },
        {
          "indexed": true,
          "internalType": "address",
          "name": "newOwner",
          "type": "address"
        }
      ],
      "name": "OwnershipTransferred",
      "type": "event"
    },
    {
      "anonymous": false,
      "inputs": [
        {
          "indexed": true,
          "internalType": "address",
          "name": "operator",
          "type": "address"
        },
        {
          "indexed": true,
          "internalType": "address",
          "name": "from",
          "type": "address"
        },
        {
          "indexed": true,
          "internalType": "address",
          "name": "to",
          "type": "address"
        },
        {
          "indexed": false,
          "internalType": "uint256[]",
          "name": "ids",
          "type": "uint256[]"
        },
        {
          "indexed": false,
          "internalType": "uint256[]",
          "name": "values",
          "type": "uint256[]"
        }
      ],
      "name": "TransferBatch",
      "type": "event"
    },
    {
      "anonymous": false,
      "inputs": [
        {
          "indexed": true,
          "internalType": "address",
          "name": "operator",
          "type": "address"
        },
        {
          "indexed": true,
          "internalType": "address",
          "name": "from",
          "type": "address"
        },
        {
          "indexed": true,
          "internalType": "address",
          "name": "to",
          "type": "address"
        },
        {
          "indexed": false,
          "internalType": "uint256",
          "name": "id",
          "type": "uint256"
        },
        {
          "indexed": false,
          "internalType": "uint256",
          "name": "value",
          "type": "uint256"
        }
      ],
      "name": "TransferSingle",
      "type": "event"
    },
    {
      "anonymous": false,
      "inputs": [
        {
          "indexed": false,
          "internalType": "string",
          "name": "value",
          "type": "string"
        },
        {
          "indexed": true,
          "internalType": "uint256",
          "name": "id",
          "type": "uint256"
        }
      ],
      "name": "URI",
      "type": "event"
    },
    {
      "inputs": [
        {
          "internalType": "uint256",
          "name": "",
          "type": "uint256"
        }
      ],
      "name": "Buildings",
      "outputs": [
        {
          "internalType": "uint256",
          "name": "",
          "type": "uint256"
        }
      ],
      "stateMutability": "view",
      "type": "function"
    },
    {
      "inputs": [
        {
          "internalType": "address",
          "name": "account",
          "type": "address"
        },
        {
          "internalType": "uint256",
          "name": "id",
          "type": "uint256"
        }
      ],
      "name": "balanceOf",
      "outputs": [
        {
          "internalType": "uint256",
          "name": "",
          "type": "uint256"
        }
      ],
      "stateMutability": "view",
      "type": "function"
    },
    {
      "inputs": [
        {
          "internalType": "address[]",
          "name": "accounts",
          "type": "address[]"
        },
        {
          "internalType": "uint256[]",
          "name": "ids",
          "type": "uint256[]"
        }
      ],
      "name": "balanceOfBatch",
      "outputs": [
        {
          "internalType": "uint256[]",
          "name": "",
          "type": "uint256[]"
        }
      ],
      "stateMutability": "view",
      "type": "function"
    },
    {
      "inputs": [
        {
          "internalType": "address",
          "name": "account",
          "type": "address"
        },
        {
          "internalType": "uint256",
          "name": "id",
          "type": "uint256"
        },
        {
          "internalType": "uint256",
          "name": "value",
          "type": "uint256"
        }
      ],
      "name": "burn",
      "outputs": [],
      "stateMutability": "nonpayable",
      "type": "function"
    },
    {
      "inputs": [
        {
          "internalType": "address",
          "name": "account",
          "type": "address"
        },
        {
          "internalType": "uint256[]",
          "name": "ids",
          "type": "uint256[]"
        },
        {
          "internalType": "uint256[]",
          "name": "values",
          "type": "uint256[]"
        }
      ],
      "name": "burnBatch",
      "outputs": [],
      "stateMutability": "nonpayable",
      "type": "function"
    },
    {
      "inputs": [
        {
          "internalType": "address",
          "name": "account",
          "type": "address"
        },
        {
          "internalType": "address",
          "name": "operator",
          "type": "address"
        }
      ],
      "name": "isApprovedForAll",
      "outputs": [
        {
          "internalType": "bool",
          "name": "",
          "type": "bool"
        }
      ],
      "stateMutability": "view",
      "type": "function"
    },
    {
      "inputs": [],
      "name": "name",
      "outputs": [
        {
          "internalType": "string",
          "name": "",
          "type": "string"
        }
      ],
      "stateMutability": "view",
      "type": "function"
    },
    {
      "inputs": [],
      "name": "owner",
      "outputs": [
        {
          "internalType": "address",
          "name": "",
          "type": "address"
        }
      ],
      "stateMutability": "view",
      "type": "function"
    },
    {
      "inputs": [],
      "name": "renounceOwnership",
      "outputs": [],
      "stateMutability": "nonpayable",
      "type": "function"
    },
    {
      "inputs": [
        {
          "internalType": "address",
          "name": "from",
          "type": "address"
        },
        {
          "internalType": "address",
          "name": "to",
          "type": "address"
        },
        {
          "internalType": "uint256[]",
          "name": "ids",
          "type": "uint256[]"
        },
        {
          "internalType": "uint256[]",
          "name": "values",
          "type": "uint256[]"
        },
        {
          "internalType": "bytes",
          "name": "data",
          "type": "bytes"
        }
      ],
      "name": "safeBatchTransferFrom",
      "outputs": [],
      "stateMutability": "nonpayable",
      "type": "function"
    },
    {
      "inputs": [
        {
          "internalType": "address",
          "name": "from",
          "type": "address"
        },
        {
          "internalType": "address",
          "name": "to",
          "type": "address"
        },
        {
          "internalType": "uint256",
          "name": "id",
          "type": "uint256"
        },
        {
          "internalType": "uint256",
          "name": "value",
          "type": "uint256"
        },
        {
          "internalType": "bytes",
          "name": "data",
          "type": "bytes"
        }
      ],
      "name": "safeTransferFrom",
      "outputs": [],
      "stateMutability": "nonpayable",
      "type": "function"
    },
    {
      "inputs": [
        {
          "internalType": "address",
          "name": "operator",
          "type": "address"
        },
        {
          "internalType": "bool",
          "name": "approved",
          "type": "bool"
        }
      ],
      "name": "setApprovalForAll",
      "outputs": [],
      "stateMutability": "nonpayable",
      "type": "function"
    },
    {
      "inputs": [
        {
          "internalType": "bytes4",
          "name": "interfaceId",
          "type": "bytes4"
        }
      ],
      "name": "supportsInterface",
      "outputs": [
        {
          "internalType": "bool",
          "name": "",
          "type": "bool"
        }
      ],
      "stateMutability": "view",
      "type": "function"
    },
    {
      "inputs": [],
      "name": "symbol",
      "outputs": [
        {
          "internalType": "string",
          "name": "",
          "type": "string"
        }
      ],
      "stateMutability": "view",
      "type": "function"
    },
    {
      "inputs": [
        {
          "internalType": "address",
          "name": "newOwner",
          "type": "address"
        }
      ],
      "name": "transferOwnership",
      "outputs": [],
      "stateMutability": "nonpayable",
      "type": "function"
    },
    {
      "inputs": [
        {
          "internalType": "uint256",
          "name": "",
          "type": "uint256"
        }
      ],
      "name": "uri",
      "outputs": [
        {
          "internalType": "string",
          "name": "",
          "type": "string"
        }
      ],
      "stateMutability": "view",
      "type": "function"
    },
    {
      "inputs": [
        {
          "internalType": "address",
          "name": "_tenant",
          "type": "address"
        },
        {
          "internalType": "uint256",
          "name": "amount",
          "type": "uint256"
        }
      ],
      "name": "chargeFee",
      "outputs": [],
      "stateMutability": "nonpayable",
      "type": "function"
    },
    {
      "inputs": [],
      "name": "chargeRentAllBuildings",
      "outputs": [],
      "stateMutability": "nonpayable",
      "type": "function"
    },
    {
      "inputs": [
        {
          "internalType": "uint256",
          "name": "_id",
          "type": "uint256"
        },
        {
          "internalType": "uint256",
          "name": "_rentAmount",
          "type": "uint256"
        }
      ],
      "name": "changeRent",
      "outputs": [],
      "stateMutability": "nonpayable",
      "type": "function"
    },
    {
      "inputs": [
        {
          "internalType": "uint256",
          "name": "_amount",
          "type": "uint256"
        }
      ],
      "name": "singlePayRent",
      "outputs": [],
      "stateMutability": "payable",
      "type": "function"
    },
    {
      "inputs": [
        {
          "internalType": "uint256",
          "name": "_room",
          "type": "uint256"
        }
      ],
      "name": "viewRent",
      "outputs": [
        {
          "internalType": "uint256",
          "name": "",
          "type": "uint256"
        }
      ],
      "stateMutability": "view",
      "type": "function"
    },
    {
      "inputs": [
        {
          "internalType": "address",
          "name": "_tenant",
          "type": "address"
        }
      ],
      "name": "viewDue",
      "outputs": [
        {
          "internalType": "uint256",
          "name": "",
          "type": "uint256"
        }
      ],
      "stateMutability": "view",
      "type": "function"
    },
    {
      "inputs": [
        {
          "internalType": "address",
          "name": "_tenant",
          "type": "address"
        }
      ],
      "name": "viewLateness",
      "outputs": [
        {
          "internalType": "uint256",
          "name": "",
          "type": "uint256"
        }
      ],
      "stateMutability": "view",
      "type": "function"
    },
    {
      "inputs": [
        {
          "internalType": "uint256",
          "name": "_building",
          "type": "uint256"
        }
      ],
      "name": "viewRooms",
      "outputs": [
        {
          "internalType": "uint256[]",
          "name": "",
          "type": "uint256[]"
        }
      ],
      "stateMutability": "view",
      "type": "function"
    },
    {
      "inputs": [
        {
          "internalType": "address",
          "name": "_tenant",
          "type": "address"
        }
      ],
      "name": "viewBalance",
      "outputs": [
        {
          "internalType": "uint256",
          "name": "",
          "type": "uint256"
        }
      ],
      "stateMutability": "view",
      "type": "function"
    },
    {
      "inputs": [],
      "name": "viewBuildings",
      "outputs": [
        {
          "internalType": "uint256[]",
          "name": "",
          "type": "uint256[]"
        }
      ],
      "stateMutability": "view",
      "type": "function"
    },
    {
      "inputs": [],
      "name": "viewBuildingsAvailable",
      "outputs": [
        {
          "internalType": "uint256[]",
          "name": "",
          "type": "uint256[]"
        }
      ],
      "stateMutability": "view",
      "type": "function"
    },
    {
      "inputs": [],
      "name": "viewBuildingsOwned",
      "outputs": [
        {
          "internalType": "uint256[]",
          "name": "",
          "type": "uint256[]"
        }
      ],
      "stateMutability": "view",
      "type": "function"
    },
    {
      "inputs": [
        {
          "internalType": "uint256",
          "name": "_room",
          "type": "uint256"
        }
      ],
      "name": "viewTenantswithRoom",
      "outputs": [
        {
          "internalType": "address[]",
          "name": "",
          "type": "address[]"
        }
      ],
      "stateMutability": "view",
      "type": "function"
    },
    {
      "inputs": [
        {
          "internalType": "uint256",
          "name": "roomID",
          "type": "uint256"
        }
      ],
      "name": "viewAvailableRooms",
      "outputs": [
        {
          "internalType": "uint256",
          "name": "",
          "type": "uint256"
        }
      ],
      "stateMutability": "view",
      "type": "function"
    },
    {
      "inputs": [],
      "name": "createDeed",
      "outputs": [],
      "stateMutability": "nonpayable",
      "type": "function"
    },
    {
      "inputs": [],
      "name": "buyRentTokens",
      "outputs": [],
      "stateMutability": "payable",
      "type": "function"
    },
    {
      "inputs": [
        {
          "internalType": "uint256",
          "name": "deed",
          "type": "uint256"
        },
        {
          "internalType": "uint256",
          "name": "id",
          "type": "uint256"
        },
        {
          "internalType": "uint256",
          "name": "amount",
          "type": "uint256"
        },
        {
          "internalType": "uint256",
          "name": "_rentAmount",
          "type": "uint256"
        }
      ],
      "name": "createRooms",
      "outputs": [],
      "stateMutability": "nonpayable",
      "type": "function"
    },
    {
      "inputs": [
        {
          "internalType": "uint256",
          "name": "_deedId",
          "type": "uint256"
        },
        {
          "internalType": "address",
          "name": "_to",
          "type": "address"
        }
      ],
      "name": "assignDeed",
      "outputs": [],
      "stateMutability": "nonpayable",
      "type": "function"
    },
    {
      "inputs": [
        {
          "internalType": "uint256",
          "name": "_deedId",
          "type": "uint256"
        }
      ],
      "name": "sendDeedToContractOwner",
      "outputs": [],
      "stateMutability": "nonpayable",
      "type": "function"
    },
    {
      "inputs": [
        {
          "internalType": "address",
          "name": "tenant",
          "type": "address"
        },
        {
          "internalType": "uint256",
          "name": "roomID",
          "type": "uint256"
        }
      ],
      "name": "assignTenant",
      "outputs": [],
      "stateMutability": "nonpayable",
      "type": "function"
    },
    {
      "inputs": [
        {
          "internalType": "uint256",
          "name": "roomID",
          "type": "uint256"
        }
      ],
      "name": "refundRoom",
      "outputs": [],
      "stateMutability": "nonpayable",
      "type": "function"
    }
  ],
  "bytecode": "0x60806040526040518060400160405280600a81526020017f526f6f6d546f6b656e7300000000000000000000000000000000000000000000815250600790816200004a91906200066b565b506040518060400160405280600381526020017f52544b0000000000000000000000000000000000000000000000000000000000815250600890816200009191906200066b565b503480156200009e575f80fd5b5060405162005ed338038062005ed38339818101604052810190620000c49190620007b4565b3360405180602001604052805f815250620000e5816200032f60201b60201c565b505f73ffffffffffffffffffffffffffffffffffffffff168173ffffffffffffffffffffffffffffffffffffffff160362000159575f6040517f1e4fbdf70000000000000000000000000000000000000000000000000000000081526004016200015091906200080a565b60405180910390fd5b6200016a816200034460201b60201c565b508160045f6101000a81548173ffffffffffffffffffffffffffffffffffffffff021916908373ffffffffffffffffffffffffffffffffffffffff1602179055508060055f6101000a81548173ffffffffffffffffffffffffffffffffffffffff021916908373ffffffffffffffffffffffffffffffffffffffff16021790555060045f9054906101000a900473ffffffffffffffffffffffffffffffffffffffff1673ffffffffffffffffffffffffffffffffffffffff1663e8c8cc286040518163ffffffff1660e01b81526004015f604051808303815f87803b15801562000252575f80fd5b505af115801562000265573d5f803e3d5ffd5b5050505060055f9054906101000a900473ffffffffffffffffffffffffffffffffffffffff1673ffffffffffffffffffffffffffffffffffffffff1663e8c8cc286040518163ffffffff1660e01b81526004015f604051808303815f87803b158015620002d0575f80fd5b505af1158015620002e3573d5f803e3d5ffd5b505050503360065f6101000a81548173ffffffffffffffffffffffffffffffffffffffff021916908373ffffffffffffffffffffffffffffffffffffffff160217905550505062000825565b80600290816200034091906200066b565b5050565b5f60035f9054906101000a900473ffffffffffffffffffffffffffffffffffffffff1690508160035f6101000a81548173ffffffffffffffffffffffffffffffffffffffff021916908373ffffffffffffffffffffffffffffffffffffffff1602179055508173ffffffffffffffffffffffffffffffffffffffff168173ffffffffffffffffffffffffffffffffffffffff167f8be0079c531659141344cd1fd0a4f28419497f9722a3daafe3b4186f6b6457e060405160405180910390a35050565b5f81519050919050565b7f4e487b71000000000000000000000000000000000000000000000000000000005f52604160045260245ffd5b7f4e487b71000000000000000000000000000000000000000000000000000000005f52602260045260245ffd5b5f60028204905060018216806200048357607f821691505b6020821081036200049957620004986200043e565b5b50919050565b5f819050815f5260205f209050919050565b5f6020601f8301049050919050565b5f82821b905092915050565b5f60088302620004fd7fffffffffffffffffffffffffffffffffffffffffffffffffffffffffffffffff82620004c0565b620005098683620004c0565b95508019841693508086168417925050509392505050565b5f819050919050565b5f819050919050565b5f620005536200054d620005478462000521565b6200052a565b62000521565b9050919050565b5f819050919050565b6200056e8362000533565b620005866200057d826200055a565b848454620004cc565b825550505050565b5f90565b6200059c6200058e565b620005a981848462000563565b505050565b5b81811015620005d057620005c45f8262000592565b600181019050620005af565b5050565b601f8211156200061f57620005e9816200049f565b620005f484620004b1565b8101602085101562000604578190505b6200061c6200061385620004b1565b830182620005ae565b50505b505050565b5f82821c905092915050565b5f620006415f198460080262000624565b1980831691505092915050565b5f6200065b838362000630565b9150826002028217905092915050565b620006768262000407565b67ffffffffffffffff81111562000692576200069162000411565b5b6200069e82546200046b565b620006ab828285620005d4565b5f60209050601f831160018114620006e1575f8415620006cc578287015190505b620006d885826200064e565b86555062000747565b601f198416620006f1866200049f565b5f5b828110156200071a57848901518255600182019150602085019450602081019050620006f3565b868310156200073a578489015162000736601f89168262000630565b8355505b6001600288020188555050505b505050505050565b5f80fd5b5f73ffffffffffffffffffffffffffffffffffffffff82169050919050565b5f6200077e8262000753565b9050919050565b620007908162000772565b81146200079b575f80fd5b50565b5f81519050620007ae8162000785565b92915050565b5f8060408385031215620007cd57620007cc6200074f565b5b5f620007dc858286016200079e565b9250506020620007ef858286016200079e565b9150509250929050565b620008048162000772565b82525050565b5f6020820190506200081f5f830184620007f9565b92915050565b6156a080620008335f395ff3fe608060405260043610610218575f3560e01c806391ccaf9011610122578063ca2f003d116100aa578063eb7f3b051161006e578063eb7f3b05146107d8578063f242432a146107f4578063f2fde38b1461081c578063f4c3d12414610844578063f5298aca1461086c57610218565b8063ca2f003d146106d4578063d3beb29814610710578063d52c58e914610738578063dfafb13b14610774578063e985e9c51461079c57610218565b8063a22cb465116100f1578063a22cb465146105d0578063a8aff0d2146105f8578063a9efa21414610620578063ae5082291461065c578063c1a13d1a1461069857610218565b806391ccaf901461054a5780639310c3371461057457806395d89b411461057e578063a0d587d3146105a857610218565b80631f3defbe116101a55780636b20c454116101745780636b20c4541461047e5780636e0f15eb146104a6578063715018a6146104e257806377ab85ca146104f85780638da5cb5b1461052057610218565b80631f3defbe146103c85780632eb2c2d6146103de5780634e1273f414610406578063680b42dd1461044257610218565b80630b231e30116101ec5780630b231e30146102d45780630dba5d42146102fc5780630e89341c1461032657806317184119146103625780631cce58dc1461039e57610218565b8062fdd58e1461021c57806301ffc9a7146102585780630363816a1461029457806306fdde03146102aa575b5f80fd5b348015610227575f80fd5b50610242600480360381019061023d9190614645565b610894565b60405161024f9190614692565b60405180910390f35b348015610263575f80fd5b5061027e60048036038101906102799190614700565b6108e9565b60405161028b9190614745565b60405180910390f35b34801561029f575f80fd5b506102a86109ca565b005b3480156102b5575f80fd5b506102be610c6e565b6040516102cb91906147e8565b60405180910390f35b3480156102df575f80fd5b506102fa60048036038101906102f59190614808565b610cfa565b005b348015610307575f80fd5b50610310610e07565b60405161031d91906148ea565b60405180910390f35b348015610331575f80fd5b5061034c60048036038101906103479190614808565b610e5d565b60405161035991906147e8565b60405180910390f35b34801561036d575f80fd5b5061038860048036038101906103839190614808565b610eef565b60405161039591906148ea565b60405180910390f35b3480156103a9575f80fd5b506103b2610f56565b6040516103bf91906148ea565b60405180910390f35b3480156103d3575f80fd5b506103dc610fe7565b005b3480156103e9575f80fd5b5061040460048036038101906103ff9190614afa565b6110a7565b005b348015610411575f80fd5b5061042c60048036038101906104279190614c85565b61114e565b60405161043991906148ea565b60405180910390f35b34801561044d575f80fd5b5061046860048036038101906104639190614cfb565b61125b565b6040516104759190614692565b60405180910390f35b348015610489575f80fd5b506104a4600480360381019061049f9190614d26565b6112a1565b005b3480156104b1575f80fd5b506104cc60048036038101906104c79190614808565b61134d565b6040516104d99190614692565b60405180910390f35b3480156104ed575f80fd5b506104f6611367565b005b348015610503575f80fd5b5061051e60048036038101906105199190614dae565b61137a565b005b34801561052b575f80fd5b50610534611552565b6040516105419190614e21565b60405180910390f35b348015610555575f80fd5b5061055e61157a565b60405161056b91906148ea565b60405180910390f35b61057c6115d0565b005b348015610589575f80fd5b5061059261167e565b60405161059f91906147e8565b60405180910390f35b3480156105b3575f80fd5b506105ce60048036038101906105c99190614808565b61170a565b005b3480156105db575f80fd5b506105f660048036038101906105f19190614e64565b611a11565b005b348015610603575f80fd5b5061061e60048036038101906106199190614645565b611a27565b005b34801561062b575f80fd5b5061064660048036038101906106419190614808565b611c69565b6040516106539190614f59565b60405180910390f35b348015610667575f80fd5b50610682600480360381019061067d9190614808565b611d05565b60405161068f9190614692565b60405180910390f35b3480156106a3575f80fd5b506106be60048036038101906106b99190614cfb565b611d25565b6040516106cb9190614692565b60405180910390f35b3480156106df575f80fd5b506106fa60048036038101906106f59190614cfb565b611dc6565b6040516107079190614692565b60405180910390f35b34801561071b575f80fd5b5061073660048036038101906107319190614645565b611e0c565b005b348015610743575f80fd5b5061075e60048036038101906107599190614808565b611f8f565b60405161076b9190614692565b60405180910390f35b34801561077f575f80fd5b5061079a60048036038101906107959190614f79565b611fc9565b005b3480156107a7575f80fd5b506107c260048036038101906107bd9190614fb7565b612405565b6040516107cf9190614745565b60405180910390f35b6107f260048036038101906107ed9190614808565b612493565b005b3480156107ff575f80fd5b5061081a60048036038101906108159190614ff5565b61294b565b005b348015610827575f80fd5b50610842600480360381019061083d9190614cfb565b6129f2565b005b34801561084f575f80fd5b5061086a60048036038101906108659190615088565b612a76565b005b348015610877575f80fd5b50610892600480360381019061088d91906150c6565b612b61565b005b5f805f8381526020019081526020015f205f8473ffffffffffffffffffffffffffffffffffffffff1673ffffffffffffffffffffffffffffffffffffffff1681526020019081526020015f2054905092915050565b5f7fd9b67a26000000000000000000000000000000000000000000000000000000007bffffffffffffffffffffffffffffffffffffffffffffffffffffffff1916827bffffffffffffffffffffffffffffffffffffffffffffffffffffffff191614806109b357507f0e89341c000000000000000000000000000000000000000000000000000000007bffffffffffffffffffffffffffffffffffffffffffffffffffffffff1916827bffffffffffffffffffffffffffffffffffffffffffffffffffffffff1916145b806109c357506109c282612c0d565b5b9050919050565b6109d2612c76565b600960055f9054906101000a900473ffffffffffffffffffffffffffffffffffffffff1673ffffffffffffffffffffffffffffffffffffffff166375794a3c6040518163ffffffff1660e01b8152600401602060405180830381865afa158015610a3e573d5f803e3d5ffd5b505050506040513d601f19601f82011682018060405250810190610a62919061512a565b908060018154018082558091505060019003905f5260205f20015f90919091909150555f1515600b5f60055f9054906101000a900473ffffffffffffffffffffffffffffffffffffffff1673ffffffffffffffffffffffffffffffffffffffff166375794a3c6040518163ffffffff1660e01b8152600401602060405180830381865afa158015610af5573d5f803e3d5ffd5b505050506040513d601f19601f82011682018060405250810190610b19919061512a565b81526020019081526020015f205f9054906101000a90505050600a60055f9054906101000a900473ffffffffffffffffffffffffffffffffffffffff1673ffffffffffffffffffffffffffffffffffffffff166375794a3c6040518163ffffffff1660e01b8152600401602060405180830381865afa158015610b9e573d5f803e3d5ffd5b505050506040513d601f19601f82011682018060405250810190610bc2919061512a565b908060018154018082558091505060019003905f5260205f20015f909190919091505560055f9054906101000a900473ffffffffffffffffffffffffffffffffffffffff1673ffffffffffffffffffffffffffffffffffffffff166340d097c3336040518263ffffffff1660e01b8152600401610c3f9190614e21565b5f604051808303815f87803b158015610c56575f80fd5b505af1158015610c68573d5f803e3d5ffd5b50505050565b60078054610c7b90615182565b80601f0160208091040260200160405190810160405280929190818152602001828054610ca790615182565b8015610cf25780601f10610cc957610100808354040283529160200191610cf2565b820191905f5260205f20905b815481529060010190602001808311610cd557829003601f168201915b505050505081565b805f610d063383610894565b11610d0f575f80fd5b5f600d5f60105f8681526020019081526020015f205481526020019081526020015f205f9054906101000a900473ffffffffffffffffffffffffffffffffffffffff169050610d70338285600160405180602001604052805f81525061294b565b6001600f5f60105f8781526020019081526020015f205481526020019081526020015f205f8581526020019081526020015f205f828254610db191906151df565b9250508190555060135f3373ffffffffffffffffffffffffffffffffffffffff1673ffffffffffffffffffffffffffffffffffffffff1681526020019081526020015f205f9055610e023384612cfd565b505050565b6060600a805480602002602001604051908101604052809291908181526020018280548015610e5357602002820191905f5260205f20905b815481526020019060010190808311610e3f575b5050505050905090565b606060028054610e6c90615182565b80601f0160208091040260200160405190810160405280929190818152602001828054610e9890615182565b8015610ee35780601f10610eba57610100808354040283529160200191610ee3565b820191905f5260205f20905b815481529060010190602001808311610ec657829003601f168201915b50505050509050919050565b6060600e5f8381526020019081526020015f20805480602002602001604051908101604052809291908181526020018280548015610f4a57602002820191905f5260205f20905b815481526020019060010190808311610f36575b50505050509050919050565b6060600c5f3373ffffffffffffffffffffffffffffffffffffffff1673ffffffffffffffffffffffffffffffffffffffff1681526020019081526020015f20805480602002602001604051908101604052809291908181526020018280548015610fdd57602002820191905f5260205f20905b815481526020019060010190808311610fc9575b5050505050905090565b5f5b600c5f3373ffffffffffffffffffffffffffffffffffffffff1673ffffffffffffffffffffffffffffffffffffffff1681526020019081526020015f20805490508110156110a457611091600c5f3373ffffffffffffffffffffffffffffffffffffffff1673ffffffffffffffffffffffffffffffffffffffff1681526020019081526020015f20828154811061108357611082615212565b5b905f5260205f20015461302c565b808061109c9061523f565b915050610fe9565b50565b5f6110b061338a565b90508073ffffffffffffffffffffffffffffffffffffffff168673ffffffffffffffffffffffffffffffffffffffff16141580156110f557506110f38682612405565b155b156111395780866040517fe237d922000000000000000000000000000000000000000000000000000000008152600401611130929190615286565b60405180910390fd5b6111468686868686613391565b505050505050565b6060815183511461119a57815183516040517f5b0599910000000000000000000000000000000000000000000000000000000081526004016111919291906152ad565b60405180910390fd5b5f835167ffffffffffffffff8111156111b6576111b561490e565b5b6040519080825280602002602001820160405280156111e45781602001602082028036833780820191505090505b5090505f5b845181101561125057611220611208828761348590919063ffffffff16565b61121b838761349890919063ffffffff16565b610894565b82828151811061123357611232615212565b5b602002602001018181525050806112499061523f565b90506111e9565b508091505092915050565b5f60165f8373ffffffffffffffffffffffffffffffffffffffff1673ffffffffffffffffffffffffffffffffffffffff1681526020019081526020015f20549050919050565b6112a961338a565b73ffffffffffffffffffffffffffffffffffffffff168373ffffffffffffffffffffffffffffffffffffffff16141580156112f257506112f0836112eb61338a565b612405565b155b1561133d576112ff61338a565b836040517fe237d922000000000000000000000000000000000000000000000000000000008152600401611334929190615286565b60405180910390fd5b6113488383836134ab565b505050565b5f60155f8381526020019081526020015f20549050919050565b61136f612c76565b6113785f61353b565b565b833373ffffffffffffffffffffffffffffffffffffffff1660055f9054906101000a900473ffffffffffffffffffffffffffffffffffffffff1673ffffffffffffffffffffffffffffffffffffffff16639870dce0836040518263ffffffff1660e01b81526004016113ec9190614692565b602060405180830381865afa158015611407573d5f803e3d5ffd5b505050506040513d601f19601f8201168201806040525081019061142b91906152e8565b73ffffffffffffffffffffffffffffffffffffffff161461144a575f80fd5b5f60105f8681526020019081526020015f2054148061147957508460105f8681526020019081526020015f2054145b611481575f80fd5b61149b33858560405180602001604052805f8152506135fe565b8460105f8681526020019081526020015f2054146114e957600e5f8681526020019081526020015f2084908060018154018082558091505060019003905f5260205f20015f90919091909150555b82600f5f8781526020019081526020015f205f8681526020019081526020015f205f82825461151891906151df565b925050819055508460105f8681526020019081526020015f20819055508160155f8681526020019081526020015f20819055505050505050565b5f60035f9054906101000a900473ffffffffffffffffffffffffffffffffffffffff16905090565b606060098054806020026020016040519081016040528092919081815260200182805480156115c657602002820191905f5260205f20905b8154815260200190600101908083116115b2575b5050505050905090565b343373ffffffffffffffffffffffffffffffffffffffff163110156115f3575f80fd5b60045f9054906101000a900473ffffffffffffffffffffffffffffffffffffffff1673ffffffffffffffffffffffffffffffffffffffff1663191dd14934336040518363ffffffff1660e01b815260040161164f929190615313565b5f604051808303815f87803b158015611666575f80fd5b505af1158015611678573d5f803e3d5ffd5b50505050565b6008805461168b90615182565b80601f01602080910402602001604051908101604052809291908181526020018280546116b790615182565b80156117025780601f106116d957610100808354040283529160200191611702565b820191905f5260205f20905b8154815290600101906020018083116116e557829003601f168201915b505050505081565b803373ffffffffffffffffffffffffffffffffffffffff1660055f9054906101000a900473ffffffffffffffffffffffffffffffffffffffff1673ffffffffffffffffffffffffffffffffffffffff16639870dce0836040518263ffffffff1660e01b815260040161177c9190614692565b602060405180830381865afa158015611797573d5f803e3d5ffd5b505050506040513d601f19601f820116820180604052508101906117bb91906152e8565b73ffffffffffffffffffffffffffffffffffffffff16146117da575f80fd5b60055f9054906101000a900473ffffffffffffffffffffffffffffffffffffffff1673ffffffffffffffffffffffffffffffffffffffff1663e985e9c533306040518363ffffffff1660e01b8152600401611836929190615286565b602060405180830381865afa158015611851573d5f803e3d5ffd5b505050506040513d601f19601f82011682018060405250810190611875919061534e565b6118b4576040517f08c379a00000000000000000000000000000000000000000000000000000000081526004016118ab906153c3565b60405180910390fd5b6118bd82613693565b60055f9054906101000a900473ffffffffffffffffffffffffffffffffffffffff1673ffffffffffffffffffffffffffffffffffffffff166342842e0e3360065f9054906101000a900473ffffffffffffffffffffffffffffffffffffffff16856040518463ffffffff1660e01b815260040161193c939291906153e1565b5f604051808303815f87803b158015611953575f80fd5b505af1158015611965573d5f803e3d5ffd5b505050505f600b5f8481526020019081526020015f205f6101000a81548160ff02191690831515021790555081600a6001846119a19190615416565b815481106119b2576119b1615212565b5b905f5260205f2001819055505f600d5f8481526020019081526020015f205f6101000a81548173ffffffffffffffffffffffffffffffffffffffff021916908373ffffffffffffffffffffffffffffffffffffffff1602179055505050565b611a23611a1c61338a565b8383613ac6565b5050565b60105f8281526020019081526020015f20543373ffffffffffffffffffffffffffffffffffffffff1660055f9054906101000a900473ffffffffffffffffffffffffffffffffffffffff1673ffffffffffffffffffffffffffffffffffffffff16639870dce0836040518263ffffffff1660e01b8152600401611aaa9190614692565b602060405180830381865afa158015611ac5573d5f803e3d5ffd5b505050506040513d601f19601f82011682018060405250810190611ae991906152e8565b73ffffffffffffffffffffffffffffffffffffffff1614611b08575f80fd5b5f600f5f60105f8681526020019081526020015f205481526020019081526020015f205f8481526020019081526020015f205490505f811115611c5f576001600f5f60105f8781526020019081526020015f205481526020019081526020015f205f8581526020019081526020015f205f828254611b869190615416565b92505081905550611ba9338585600160405180602001604052805f81525061294b565b8260135f8673ffffffffffffffffffffffffffffffffffffffff1673ffffffffffffffffffffffffffffffffffffffff1681526020019081526020015f208190555060125f8481526020019081526020015f2084908060018154018082558091505060019003905f5260205f20015f9091909190916101000a81548173ffffffffffffffffffffffffffffffffffffffff021916908373ffffffffffffffffffffffffffffffffffffffff160217905550611c63565b5f80fd5b50505050565b606060125f8381526020019081526020015f20805480602002602001604051908101604052809291908181526020018280548015611cf957602002820191905f5260205f20905b815f9054906101000a900473ffffffffffffffffffffffffffffffffffffffff1673ffffffffffffffffffffffffffffffffffffffff1681526020019060010190808311611cb0575b50505050509050919050565b60098181548110611d14575f80fd5b905f5260205f20015f915090505481565b5f60045f9054906101000a900473ffffffffffffffffffffffffffffffffffffffff1673ffffffffffffffffffffffffffffffffffffffff166370a08231836040518263ffffffff1660e01b8152600401611d809190614e21565b602060405180830381865afa158015611d9b573d5f803e3d5ffd5b505050506040513d601f19601f82011682018060405250810190611dbf919061512a565b9050919050565b5f60145f8373ffffffffffffffffffffffffffffffffffffffff1673ffffffffffffffffffffffffffffffffffffffff1681526020019081526020015f20549050919050565b60105f60135f8573ffffffffffffffffffffffffffffffffffffffff1673ffffffffffffffffffffffffffffffffffffffff1681526020019081526020015f205481526020019081526020015f20543373ffffffffffffffffffffffffffffffffffffffff1660055f9054906101000a900473ffffffffffffffffffffffffffffffffffffffff1673ffffffffffffffffffffffffffffffffffffffff16639870dce0836040518263ffffffff1660e01b8152600401611ecc9190614692565b602060405180830381865afa158015611ee7573d5f803e3d5ffd5b505050506040513d601f19601f82011682018060405250810190611f0b91906152e8565b73ffffffffffffffffffffffffffffffffffffffff1614611f2a575f80fd5b815f8111611f36575f80fd5b8260145f8673ffffffffffffffffffffffffffffffffffffffff1673ffffffffffffffffffffffffffffffffffffffff1681526020019081526020015f205f828254611f8291906151df565b9250508190555050505050565b5f600f5f60105f8581526020019081526020015f205481526020019081526020015f205f8381526020019081526020015f20549050919050565b611fd1612c76565b5f5b600c5f8373ffffffffffffffffffffffffffffffffffffffff1673ffffffffffffffffffffffffffffffffffffffff1681526020019081526020015f20805490508110156120905782600c5f8473ffffffffffffffffffffffffffffffffffffffff1673ffffffffffffffffffffffffffffffffffffffff1681526020019081526020015f20828154811061206b5761206a615212565b5b905f5260205f2001540361207d575f80fd5b80806120889061523f565b915050611fd3565b506001600b5f8481526020019081526020015f205f6101000a81548160ff0219169083151502179055505f5b600a8054905081101561211f5782600a82815481106120de576120dd615212565b5b905f5260205f2001540361210c57600a8181548110612100576120ff615212565b5b905f5260205f20015f90555b80806121179061523f565b9150506120bc565b503373ffffffffffffffffffffffffffffffffffffffff1660055f9054906101000a900473ffffffffffffffffffffffffffffffffffffffff1673ffffffffffffffffffffffffffffffffffffffff16636352211e846040518263ffffffff1660e01b81526004016121919190614692565b602060405180830381865afa1580156121ac573d5f803e3d5ffd5b505050506040513d601f19601f820116820180604052508101906121d091906152e8565b73ffffffffffffffffffffffffffffffffffffffff16146123515760055f9054906101000a900473ffffffffffffffffffffffffffffffffffffffff1673ffffffffffffffffffffffffffffffffffffffff1663e985e9c582306040518363ffffffff1660e01b8152600401612247929190615286565b602060405180830381865afa158015612262573d5f803e3d5ffd5b505050506040513d601f19601f82011682018060405250810190612286919061534e565b6122c5576040517f08c379a00000000000000000000000000000000000000000000000000000000081526004016122bc906153c3565b60405180910390fd5b60055f9054906101000a900473ffffffffffffffffffffffffffffffffffffffff1673ffffffffffffffffffffffffffffffffffffffff166342842e0e3383856040518463ffffffff1660e01b8152600401612323939291906153e1565b5f604051808303815f87803b15801561233a575f80fd5b505af115801561234c573d5f803e3d5ffd5b505050505b80600d5f8481526020019081526020015f205f6101000a81548173ffffffffffffffffffffffffffffffffffffffff021916908373ffffffffffffffffffffffffffffffffffffffff160217905550600c5f8273ffffffffffffffffffffffffffffffffffffffff1673ffffffffffffffffffffffffffffffffffffffff1681526020019081526020015f2082908060018154018082558091505060019003905f5260205f20015f90919091909150555050565b5f60015f8473ffffffffffffffffffffffffffffffffffffffff1673ffffffffffffffffffffffffffffffffffffffff1681526020019081526020015f205f8373ffffffffffffffffffffffffffffffffffffffff1673ffffffffffffffffffffffffffffffffffffffff1681526020019081526020015f205f9054906101000a900460ff16905092915050565b33818060045f9054906101000a900473ffffffffffffffffffffffffffffffffffffffff1673ffffffffffffffffffffffffffffffffffffffff166370a08231846040518263ffffffff1660e01b81526004016124f09190614e21565b602060405180830381865afa15801561250b573d5f803e3d5ffd5b505050506040513d601f19601f8201168201806040525081019061252f919061512a565b1015612539575f80fd5b825f8111612545575f80fd5b5f3390505f600d5f60105f60135f3373ffffffffffffffffffffffffffffffffffffffff1673ffffffffffffffffffffffffffffffffffffffff1681526020019081526020015f205481526020019081526020015f205481526020019081526020015f205f9054906101000a900473ffffffffffffffffffffffffffffffffffffffff1690505f60145f8473ffffffffffffffffffffffffffffffffffffffff1673ffffffffffffffffffffffffffffffffffffffff1681526020019081526020015f205490508087106127a4578060045f9054906101000a900473ffffffffffffffffffffffffffffffffffffffff1673ffffffffffffffffffffffffffffffffffffffff1663dd62ed3e33306040518363ffffffff1660e01b8152600401612670929190615286565b602060405180830381865afa15801561268b573d5f803e3d5ffd5b505050506040513d601f19601f820116820180604052508101906126af919061512a565b10156126be576126bd615449565b5b60045f9054906101000a900473ffffffffffffffffffffffffffffffffffffffff1673ffffffffffffffffffffffffffffffffffffffff166323b872dd8484846040518463ffffffff1660e01b815260040161271c939291906153e1565b6020604051808303815f875af1158015612738573d5f803e3d5ffd5b505050506040513d601f19601f8201168201806040525081019061275c919061534e565b505f60145f8573ffffffffffffffffffffffffffffffffffffffff1673ffffffffffffffffffffffffffffffffffffffff1681526020019081526020015f2081905550612942565b8660045f9054906101000a900473ffffffffffffffffffffffffffffffffffffffff1673ffffffffffffffffffffffffffffffffffffffff1663dd62ed3e33306040518363ffffffff1660e01b8152600401612801929190615286565b602060405180830381865afa15801561281c573d5f803e3d5ffd5b505050506040513d601f19601f82011682018060405250810190612840919061512a565b101561284f5761284e615449565b5b60045f9054906101000a900473ffffffffffffffffffffffffffffffffffffffff1673ffffffffffffffffffffffffffffffffffffffff166323b872dd84848a6040518463ffffffff1660e01b81526004016128ad939291906153e1565b6020604051808303815f875af11580156128c9573d5f803e3d5ffd5b505050506040513d601f19601f820116820180604052508101906128ed919061534e565b508660145f8573ffffffffffffffffffffffffffffffffffffffff1673ffffffffffffffffffffffffffffffffffffffff1681526020019081526020015f205f82825461293a9190615416565b925050819055505b50505050505050565b5f61295461338a565b90508073ffffffffffffffffffffffffffffffffffffffff168673ffffffffffffffffffffffffffffffffffffffff161415801561299957506129978682612405565b155b156129dd5780866040517fe237d9220000000000000000000000000000000000000000000000000000000081526004016129d4929190615286565b60405180910390fd5b6129ea8686868686613c2f565b505050505050565b6129fa612c76565b5f73ffffffffffffffffffffffffffffffffffffffff168173ffffffffffffffffffffffffffffffffffffffff1603612a6a575f6040517f1e4fbdf7000000000000000000000000000000000000000000000000000000008152600401612a619190614e21565b60405180910390fd5b612a738161353b565b50565b813373ffffffffffffffffffffffffffffffffffffffff1660055f9054906101000a900473ffffffffffffffffffffffffffffffffffffffff1673ffffffffffffffffffffffffffffffffffffffff16639870dce0836040518263ffffffff1660e01b8152600401612ae89190614692565b602060405180830381865afa158015612b03573d5f803e3d5ffd5b505050506040513d601f19601f82011682018060405250810190612b2791906152e8565b73ffffffffffffffffffffffffffffffffffffffff1614612b46575f80fd5b8160155f8581526020019081526020015f2081905550505050565b612b6961338a565b73ffffffffffffffffffffffffffffffffffffffff168373ffffffffffffffffffffffffffffffffffffffff1614158015612bb25750612bb083612bab61338a565b612405565b155b15612bfd57612bbf61338a565b836040517fe237d922000000000000000000000000000000000000000000000000000000008152600401612bf4929190615286565b60405180910390fd5b612c08838383613d35565b505050565b5f7f01ffc9a7000000000000000000000000000000000000000000000000000000007bffffffffffffffffffffffffffffffffffffffffffffffffffffffff1916827bffffffffffffffffffffffffffffffffffffffffffffffffffffffff1916149050919050565b612c7e61338a565b73ffffffffffffffffffffffffffffffffffffffff16612c9c611552565b73ffffffffffffffffffffffffffffffffffffffff1614612cfb57612cbf61338a565b6040517f118cdaa7000000000000000000000000000000000000000000000000000000008152600401612cf29190614e21565b60405180910390fd5b565b5f8273ffffffffffffffffffffffffffffffffffffffff1660125f8481526020019081526020015f20600160125f8681526020019081526020015f2080549050612d479190615416565b81548110612d5857612d57615212565b5b905f5260205f20015f9054906101000a900473ffffffffffffffffffffffffffffffffffffffff1673ffffffffffffffffffffffffffffffffffffffff1603612df35760125f8381526020019081526020015f20805480612dbc57612dbb615476565b5b600190038181905f5260205f20015f6101000a81549073ffffffffffffffffffffffffffffffffffffffff02191690559055613027565b5f5b600160125f8581526020019081526020015f2080549050612e169190615416565b811015613025578373ffffffffffffffffffffffffffffffffffffffff1660125f8581526020019081526020015f208281548110612e5757612e56615212565b5b905f5260205f20015f9054906101000a900473ffffffffffffffffffffffffffffffffffffffff1673ffffffffffffffffffffffffffffffffffffffff1603612ef95760019150600c5f3373ffffffffffffffffffffffffffffffffffffffff1673ffffffffffffffffffffffffffffffffffffffff1681526020019081526020015f208181548110612eed57612eec615212565b5b905f5260205f20015f90555b8115612fbf5760125f8481526020019081526020015f20600182612f1d91906151df565b81548110612f2e57612f2d615212565b5b905f5260205f20015f9054906101000a900473ffffffffffffffffffffffffffffffffffffffff1660125f8581526020019081526020015f208281548110612f7957612f78615212565b5b905f5260205f20015f6101000a81548173ffffffffffffffffffffffffffffffffffffffff021916908373ffffffffffffffffffffffffffffffffffffffff1602179055505b60125f8481526020019081526020015f20805480612fe057612fdf615476565b5b600190038181905f5260205f20015f6101000a81549073ffffffffffffffffffffffffffffffffffffffff02191690559055808061301d9061523f565b915050612df5565b505b505050565b803373ffffffffffffffffffffffffffffffffffffffff1660055f9054906101000a900473ffffffffffffffffffffffffffffffffffffffff1673ffffffffffffffffffffffffffffffffffffffff16639870dce0836040518263ffffffff1660e01b815260040161309e9190614692565b602060405180830381865afa1580156130b9573d5f803e3d5ffd5b505050506040513d601f19601f820116820180604052508101906130dd91906152e8565b73ffffffffffffffffffffffffffffffffffffffff16146130fc575f80fd5b5f5b600e5f8481526020019081526020015f2080549050811015613385575f60125f600e5f8781526020019081526020015f20848154811061314157613140615212565b5b905f5260205f20015481526020019081526020015f208054806020026020016040519081016040528092919081815260200182805480156131d457602002820191905f5260205f20905b815f9054906101000a900473ffffffffffffffffffffffffffffffffffffffff1673ffffffffffffffffffffffffffffffffffffffff168152602001906001019080831161318b575b505050505090505f5b8151811015613370575f60145f8484815181106131fd576131fc615212565b5b602002602001015173ffffffffffffffffffffffffffffffffffffffff1673ffffffffffffffffffffffffffffffffffffffff1681526020019081526020015f205411156132b457600160165f84848151811061325d5761325c615212565b5b602002602001015173ffffffffffffffffffffffffffffffffffffffff1673ffffffffffffffffffffffffffffffffffffffff1681526020019081526020015f205f8282546132ac91906151df565b925050819055505b60155f600e5f8881526020019081526020015f2085815481106132da576132d9615212565b5b905f5260205f20015481526020019081526020015f205460145f84848151811061330757613306615212565b5b602002602001015173ffffffffffffffffffffffffffffffffffffffff1673ffffffffffffffffffffffffffffffffffffffff1681526020019081526020015f205f82825461335691906151df565b9250508190555080806133689061523f565b9150506131dd565b5050808061337d9061523f565b9150506130fe565b505050565b5f33905090565b5f73ffffffffffffffffffffffffffffffffffffffff168473ffffffffffffffffffffffffffffffffffffffff1603613401575f6040517f57f447ce0000000000000000000000000000000000000000000000000000000081526004016133f89190614e21565b60405180910390fd5b5f73ffffffffffffffffffffffffffffffffffffffff168573ffffffffffffffffffffffffffffffffffffffff1603613471575f6040517f01a835140000000000000000000000000000000000000000000000000000000081526004016134689190614e21565b60405180910390fd5b61347e8585858585613dd7565b5050505050565b5f60208202602084010151905092915050565b5f60208202602084010151905092915050565b5f73ffffffffffffffffffffffffffffffffffffffff168373ffffffffffffffffffffffffffffffffffffffff160361351b575f6040517f01a835140000000000000000000000000000000000000000000000000000000081526004016135129190614e21565b60405180910390fd5b613536835f848460405180602001604052805f815250613dd7565b505050565b5f60035f9054906101000a900473ffffffffffffffffffffffffffffffffffffffff1690508160035f6101000a81548173ffffffffffffffffffffffffffffffffffffffff021916908373ffffffffffffffffffffffffffffffffffffffff1602179055508173ffffffffffffffffffffffffffffffffffffffff168173ffffffffffffffffffffffffffffffffffffffff167f8be0079c531659141344cd1fd0a4f28419497f9722a3daafe3b4186f6b6457e060405160405180910390a35050565b5f73ffffffffffffffffffffffffffffffffffffffff168473ffffffffffffffffffffffffffffffffffffffff160361366e575f6040517f57f447ce0000000000000000000000000000000000000000000000000000000081526004016136659190614e21565b60405180910390fd5b5f8061367a8585613e83565b9150915061368b5f87848487613dd7565b505050505050565b803373ffffffffffffffffffffffffffffffffffffffff1660055f9054906101000a900473ffffffffffffffffffffffffffffffffffffffff1673ffffffffffffffffffffffffffffffffffffffff16639870dce0836040518263ffffffff1660e01b81526004016137059190614692565b602060405180830381865afa158015613720573d5f803e3d5ffd5b505050506040513d601f19601f8201168201806040525081019061374491906152e8565b73ffffffffffffffffffffffffffffffffffffffff1614613763575f80fd5b5f82600c5f3373ffffffffffffffffffffffffffffffffffffffff1673ffffffffffffffffffffffffffffffffffffffff1681526020019081526020015f206001600c5f3373ffffffffffffffffffffffffffffffffffffffff1673ffffffffffffffffffffffffffffffffffffffff1681526020019081526020015f20805490506137ef9190615416565b81548110613800576137ff615212565b5b905f5260205f2001540361387357600c5f3373ffffffffffffffffffffffffffffffffffffffff1673ffffffffffffffffffffffffffffffffffffffff1681526020019081526020015f2080548061385b5761385a615476565b5b600190038181905f5260205f20015f90559055613ac1565b5f5b6001600c5f3373ffffffffffffffffffffffffffffffffffffffff1673ffffffffffffffffffffffffffffffffffffffff1681526020019081526020015f20805490506138c29190615416565b811015613abf5783600c5f3373ffffffffffffffffffffffffffffffffffffffff1673ffffffffffffffffffffffffffffffffffffffff1681526020019081526020015f20828154811061391957613918615212565b5b905f5260205f200154036139865760019150600c5f3373ffffffffffffffffffffffffffffffffffffffff1673ffffffffffffffffffffffffffffffffffffffff1681526020019081526020015f20818154811061397a57613979615212565b5b905f5260205f20015f90555b8115613a4c57600c5f3373ffffffffffffffffffffffffffffffffffffffff1673ffffffffffffffffffffffffffffffffffffffff1681526020019081526020015f206001826139d691906151df565b815481106139e7576139e6615212565b5b905f5260205f200154600c5f3373ffffffffffffffffffffffffffffffffffffffff1673ffffffffffffffffffffffffffffffffffffffff1681526020019081526020015f208281548110613a3f57613a3e615212565b5b905f5260205f2001819055505b600c5f3373ffffffffffffffffffffffffffffffffffffffff1673ffffffffffffffffffffffffffffffffffffffff1681526020019081526020015f20805480613a9957613a98615476565b5b600190038181905f5260205f20015f905590558080613ab79061523f565b915050613875565b505b505050565b5f73ffffffffffffffffffffffffffffffffffffffff168273ffffffffffffffffffffffffffffffffffffffff1603613b36575f6040517fced3e100000000000000000000000000000000000000000000000000000000008152600401613b2d9190614e21565b60405180910390fd5b8060015f8573ffffffffffffffffffffffffffffffffffffffff1673ffffffffffffffffffffffffffffffffffffffff1681526020019081526020015f205f8473ffffffffffffffffffffffffffffffffffffffff1673ffffffffffffffffffffffffffffffffffffffff1681526020019081526020015f205f6101000a81548160ff0219169083151502179055508173ffffffffffffffffffffffffffffffffffffffff168373ffffffffffffffffffffffffffffffffffffffff167f17307eab39ab6107e8899845ad3d59bd9653f200f220920489ca2b5937696c3183604051613c229190614745565b60405180910390a3505050565b5f73ffffffffffffffffffffffffffffffffffffffff168473ffffffffffffffffffffffffffffffffffffffff1603613c9f575f6040517f57f447ce000000000000000000000000000000000000000000000000000000008152600401613c969190614e21565b60405180910390fd5b5f73ffffffffffffffffffffffffffffffffffffffff168573ffffffffffffffffffffffffffffffffffffffff1603613d0f575f6040517f01a83514000000000000000000000000000000000000000000000000000000008152600401613d069190614e21565b60405180910390fd5b5f80613d1b8585613e83565b91509150613d2c8787848487613dd7565b50505050505050565b5f73ffffffffffffffffffffffffffffffffffffffff168373ffffffffffffffffffffffffffffffffffffffff1603613da5575f6040517f01a83514000000000000000000000000000000000000000000000000000000008152600401613d9c9190614e21565b60405180910390fd5b5f80613db18484613e83565b91509150613dd0855f848460405180602001604052805f815250613dd7565b5050505050565b613de385858585613eb3565b5f73ffffffffffffffffffffffffffffffffffffffff168473ffffffffffffffffffffffffffffffffffffffff1614613e7c575f613e1f61338a565b90506001845103613e6b575f613e3e5f8661349890919063ffffffff16565b90505f613e545f8661349890919063ffffffff16565b9050613e64838989858589614249565b5050613e7a565b613e798187878787876143f8565b5b505b5050505050565b60608060405191506001825283602083015260408201905060018152826020820152604081016040529250929050565b8051825114613efd57815181516040517f5b059991000000000000000000000000000000000000000000000000000000008152600401613ef49291906152ad565b60405180910390fd5b5f613f0661338a565b90505f5b8351811015614108575f613f27828661349890919063ffffffff16565b90505f613f3d838661349890919063ffffffff16565b90505f73ffffffffffffffffffffffffffffffffffffffff168873ffffffffffffffffffffffffffffffffffffffff1614614060575f805f8481526020019081526020015f205f8a73ffffffffffffffffffffffffffffffffffffffff1673ffffffffffffffffffffffffffffffffffffffff1681526020019081526020015f205490508181101561400c57888183856040517f03dee4c500000000000000000000000000000000000000000000000000000000815260040161400394939291906154a3565b60405180910390fd5b8181035f808581526020019081526020015f205f8b73ffffffffffffffffffffffffffffffffffffffff1673ffffffffffffffffffffffffffffffffffffffff1681526020019081526020015f2081905550505b5f73ffffffffffffffffffffffffffffffffffffffff168773ffffffffffffffffffffffffffffffffffffffff16146140f557805f808481526020019081526020015f205f8973ffffffffffffffffffffffffffffffffffffffff1673ffffffffffffffffffffffffffffffffffffffff1681526020019081526020015f205f8282546140ed91906151df565b925050819055505b5050806141019061523f565b9050613f0a565b5060018351036141c3575f6141265f8561349890919063ffffffff16565b90505f61413c5f8561349890919063ffffffff16565b90508573ffffffffffffffffffffffffffffffffffffffff168773ffffffffffffffffffffffffffffffffffffffff168473ffffffffffffffffffffffffffffffffffffffff167fc3d58168c5ae7397731d063d5bbf3d657854427343f4c083240f7aacaa2d0f6285856040516141b49291906152ad565b60405180910390a45050614242565b8373ffffffffffffffffffffffffffffffffffffffff168573ffffffffffffffffffffffffffffffffffffffff168273ffffffffffffffffffffffffffffffffffffffff167f4a39dc06d4c0dbc64b70af90fd698a233a518aa5d07e595d983b8c0526c8f7fb86866040516142399291906154e6565b60405180910390a45b5050505050565b5f8473ffffffffffffffffffffffffffffffffffffffff163b11156143f0578373ffffffffffffffffffffffffffffffffffffffff1663f23a6e6187878686866040518663ffffffff1660e01b81526004016142a995949392919061556d565b6020604051808303815f875af19250505080156142e457506040513d601f19601f820116820180604052508101906142e191906155d9565b60015b614365573d805f8114614312576040519150601f19603f3d011682016040523d82523d5f602084013e614317565b606091505b505f81510361435d57846040517f57f447ce0000000000000000000000000000000000000000000000000000000081526004016143549190614e21565b60405180910390fd5b805181602001fd5b63f23a6e6160e01b7bffffffffffffffffffffffffffffffffffffffffffffffffffffffff1916817bffffffffffffffffffffffffffffffffffffffffffffffffffffffff1916146143ee57846040517f57f447ce0000000000000000000000000000000000000000000000000000000081526004016143e59190614e21565b60405180910390fd5b505b505050505050565b5f8473ffffffffffffffffffffffffffffffffffffffff163b111561459f578373ffffffffffffffffffffffffffffffffffffffff1663bc197c8187878686866040518663ffffffff1660e01b8152600401614458959493929190615604565b6020604051808303815f875af192505050801561449357506040513d601f19601f8201168201806040525081019061449091906155d9565b60015b614514573d805f81146144c1576040519150601f19603f3d011682016040523d82523d5f602084013e6144c6565b606091505b505f81510361450c57846040517f57f447ce0000000000000000000000000000000000000000000000000000000081526004016145039190614e21565b60405180910390fd5b805181602001fd5b63bc197c8160e01b7bffffffffffffffffffffffffffffffffffffffffffffffffffffffff1916817bffffffffffffffffffffffffffffffffffffffffffffffffffffffff19161461459d57846040517f57f447ce0000000000000000000000000000000000000000000000000000000081526004016145949190614e21565b60405180910390fd5b505b505050505050565b5f604051905090565b5f80fd5b5f80fd5b5f73ffffffffffffffffffffffffffffffffffffffff82169050919050565b5f6145e1826145b8565b9050919050565b6145f1816145d7565b81146145fb575f80fd5b50565b5f8135905061460c816145e8565b92915050565b5f819050919050565b61462481614612565b811461462e575f80fd5b50565b5f8135905061463f8161461b565b92915050565b5f806040838503121561465b5761465a6145b0565b5b5f614668858286016145fe565b925050602061467985828601614631565b9150509250929050565b61468c81614612565b82525050565b5f6020820190506146a55f830184614683565b92915050565b5f7fffffffff0000000000000000000000000000000000000000000000000000000082169050919050565b6146df816146ab565b81146146e9575f80fd5b50565b5f813590506146fa816146d6565b92915050565b5f60208284031215614715576147146145b0565b5b5f614722848285016146ec565b91505092915050565b5f8115159050919050565b61473f8161472b565b82525050565b5f6020820190506147585f830184614736565b92915050565b5f81519050919050565b5f82825260208201905092915050565b5f5b8381101561479557808201518184015260208101905061477a565b5f8484015250505050565b5f601f19601f8301169050919050565b5f6147ba8261475e565b6147c48185614768565b93506147d4818560208601614778565b6147dd816147a0565b840191505092915050565b5f6020820190508181035f83015261480081846147b0565b905092915050565b5f6020828403121561481d5761481c6145b0565b5b5f61482a84828501614631565b91505092915050565b5f81519050919050565b5f82825260208201905092915050565b5f819050602082019050919050565b61486581614612565b82525050565b5f614876838361485c565b60208301905092915050565b5f602082019050919050565b5f61489882614833565b6148a2818561483d565b93506148ad8361484d565b805f5b838110156148dd5781516148c4888261486b565b97506148cf83614882565b9250506001810190506148b0565b5085935050505092915050565b5f6020820190508181035f830152614902818461488e565b905092915050565b5f80fd5b7f4e487b71000000000000000000000000000000000000000000000000000000005f52604160045260245ffd5b614944826147a0565b810181811067ffffffffffffffff821117156149635761496261490e565b5b80604052505050565b5f6149756145a7565b9050614981828261493b565b919050565b5f67ffffffffffffffff8211156149a05761499f61490e565b5b602082029050602081019050919050565b5f80fd5b5f6149c76149c284614986565b61496c565b905080838252602082019050602084028301858111156149ea576149e96149b1565b5b835b81811015614a1357806149ff8882614631565b8452602084019350506020810190506149ec565b5050509392505050565b5f82601f830112614a3157614a3061490a565b5b8135614a418482602086016149b5565b91505092915050565b5f80fd5b5f67ffffffffffffffff821115614a6857614a6761490e565b5b614a71826147a0565b9050602081019050919050565b828183375f83830152505050565b5f614a9e614a9984614a4e565b61496c565b905082815260208101848484011115614aba57614ab9614a4a565b5b614ac5848285614a7e565b509392505050565b5f82601f830112614ae157614ae061490a565b5b8135614af1848260208601614a8c565b91505092915050565b5f805f805f60a08688031215614b1357614b126145b0565b5b5f614b20888289016145fe565b9550506020614b31888289016145fe565b945050604086013567ffffffffffffffff811115614b5257614b516145b4565b5b614b5e88828901614a1d565b935050606086013567ffffffffffffffff811115614b7f57614b7e6145b4565b5b614b8b88828901614a1d565b925050608086013567ffffffffffffffff811115614bac57614bab6145b4565b5b614bb888828901614acd565b9150509295509295909350565b5f67ffffffffffffffff821115614bdf57614bde61490e565b5b602082029050602081019050919050565b5f614c02614bfd84614bc5565b61496c565b90508083825260208201905060208402830185811115614c2557614c246149b1565b5b835b81811015614c4e5780614c3a88826145fe565b845260208401935050602081019050614c27565b5050509392505050565b5f82601f830112614c6c57614c6b61490a565b5b8135614c7c848260208601614bf0565b91505092915050565b5f8060408385031215614c9b57614c9a6145b0565b5b5f83013567ffffffffffffffff811115614cb857614cb76145b4565b5b614cc485828601614c58565b925050602083013567ffffffffffffffff811115614ce557614ce46145b4565b5b614cf185828601614a1d565b9150509250929050565b5f60208284031215614d1057614d0f6145b0565b5b5f614d1d848285016145fe565b91505092915050565b5f805f60608486031215614d3d57614d3c6145b0565b5b5f614d4a868287016145fe565b935050602084013567ffffffffffffffff811115614d6b57614d6a6145b4565b5b614d7786828701614a1d565b925050604084013567ffffffffffffffff811115614d9857614d976145b4565b5b614da486828701614a1d565b9150509250925092565b5f805f8060808587031215614dc657614dc56145b0565b5b5f614dd387828801614631565b9450506020614de487828801614631565b9350506040614df587828801614631565b9250506060614e0687828801614631565b91505092959194509250565b614e1b816145d7565b82525050565b5f602082019050614e345f830184614e12565b92915050565b614e438161472b565b8114614e4d575f80fd5b50565b5f81359050614e5e81614e3a565b92915050565b5f8060408385031215614e7a57614e796145b0565b5b5f614e87858286016145fe565b9250506020614e9885828601614e50565b9150509250929050565b5f81519050919050565b5f82825260208201905092915050565b5f819050602082019050919050565b614ed4816145d7565b82525050565b5f614ee58383614ecb565b60208301905092915050565b5f602082019050919050565b5f614f0782614ea2565b614f118185614eac565b9350614f1c83614ebc565b805f5b83811015614f4c578151614f338882614eda565b9750614f3e83614ef1565b925050600181019050614f1f565b5085935050505092915050565b5f6020820190508181035f830152614f718184614efd565b905092915050565b5f8060408385031215614f8f57614f8e6145b0565b5b5f614f9c85828601614631565b9250506020614fad858286016145fe565b9150509250929050565b5f8060408385031215614fcd57614fcc6145b0565b5b5f614fda858286016145fe565b9250506020614feb858286016145fe565b9150509250929050565b5f805f805f60a0868803121561500e5761500d6145b0565b5b5f61501b888289016145fe565b955050602061502c888289016145fe565b945050604061503d88828901614631565b935050606061504e88828901614631565b925050608086013567ffffffffffffffff81111561506f5761506e6145b4565b5b61507b88828901614acd565b9150509295509295909350565b5f806040838503121561509e5761509d6145b0565b5b5f6150ab85828601614631565b92505060206150bc85828601614631565b9150509250929050565b5f805f606084860312156150dd576150dc6145b0565b5b5f6150ea868287016145fe565b93505060206150fb86828701614631565b925050604061510c86828701614631565b9150509250925092565b5f815190506151248161461b565b92915050565b5f6020828403121561513f5761513e6145b0565b5b5f61514c84828501615116565b91505092915050565b7f4e487b71000000000000000000000000000000000000000000000000000000005f52602260045260245ffd5b5f600282049050600182168061519957607f821691505b6020821081036151ac576151ab615155565b5b50919050565b7f4e487b71000000000000000000000000000000000000000000000000000000005f52601160045260245ffd5b5f6151e982614612565b91506151f483614612565b925082820190508082111561520c5761520b6151b2565b5b92915050565b7f4e487b71000000000000000000000000000000000000000000000000000000005f52603260045260245ffd5b5f61524982614612565b91507fffffffffffffffffffffffffffffffffffffffffffffffffffffffffffffffff820361527b5761527a6151b2565b5b600182019050919050565b5f6040820190506152995f830185614e12565b6152a66020830184614e12565b9392505050565b5f6040820190506152c05f830185614683565b6152cd6020830184614683565b9392505050565b5f815190506152e2816145e8565b92915050565b5f602082840312156152fd576152fc6145b0565b5b5f61530a848285016152d4565b91505092915050565b5f6040820190506153265f830185614683565b6153336020830184614e12565b9392505050565b5f8151905061534881614e3a565b92915050565b5f60208284031215615363576153626145b0565b5b5f6153708482850161533a565b91505092915050565b7f506c65617365205265717565737420417070726f76616c0000000000000000005f82015250565b5f6153ad601783614768565b91506153b882615379565b602082019050919050565b5f6020820190508181035f8301526153da816153a1565b9050919050565b5f6060820190506153f45f830186614e12565b6154016020830185614e12565b61540e6040830184614683565b949350505050565b5f61542082614612565b915061542b83614612565b9250828203905081811115615443576154426151b2565b5b92915050565b7f4e487b71000000000000000000000000000000000000000000000000000000005f52600160045260245ffd5b7f4e487b71000000000000000000000000000000000000000000000000000000005f52603160045260245ffd5b5f6080820190506154b65f830187614e12565b6154c36020830186614683565b6154d06040830185614683565b6154dd6060830184614683565b95945050505050565b5f6040820190508181035f8301526154fe818561488e565b90508181036020830152615512818461488e565b90509392505050565b5f81519050919050565b5f82825260208201905092915050565b5f61553f8261551b565b6155498185615525565b9350615559818560208601614778565b615562816147a0565b840191505092915050565b5f60a0820190506155805f830188614e12565b61558d6020830187614e12565b61559a6040830186614683565b6155a76060830185614683565b81810360808301526155b98184615535565b90509695505050505050565b5f815190506155d3816146d6565b92915050565b5f602082840312156155ee576155ed6145b0565b5b5f6155fb848285016155c5565b91505092915050565b5f60a0820190506156175f830188614e12565b6156246020830187614e12565b8181036040830152615636818661488e565b9050818103606083015261564a818561488e565b9050818103608083015261565e8184615535565b9050969550505050505056fea2646970667358221220422aa44f2b46b13b842d959364ac8f1a36e79cfecd11cbd36315090e117714e464736f6c63430008150033",
  "immutableReferences": {},
  "source": "// SPDX-License-Identifier: MIT\r\n\r\n\r\n/*\r\nWarning when testing code\r\nSince transactions have to be approved within the contract they are created in\r\n(So like approving a erc20 transaction must be done in an erc20 contract)\r\nBefore doing a transaction please approve it in the respective contract\r\n*/\r\npragma solidity ^0.8.20;\r\n\r\n\r\n    import \"@openzeppelin/contracts/token/ERC721/ERC721.sol\";\r\n    import \"@openzeppelin/contracts/token/ERC721/extensions/ERC721Burnable.sol\";\r\n    import \"@openzeppelin/contracts/access/Ownable.sol\";\r\n    import \"@openzeppelin/contracts/token/ERC20/ERC20.sol\";\r\n    import \"@openzeppelin/contracts/token/ERC20/IERC20.sol\";\r\n    import \"@openzeppelin/contracts/token/ERC1155/ERC1155.sol\";\r\n    import \"@openzeppelin/contracts/token/ERC1155/extensions/ERC1155Burnable.sol\";\r\n    import \"@openzeppelin/contracts/token/ERC721/IERC721.sol\";\r\n    import \"@openzeppelin/contracts/token/ERC1155/IERC1155.sol\";\r\n    import \"@openzeppelin/contracts/token/ERC20/extensions/ERC20Burnable.sol\";\r\n    import \"./DeedToken.sol\";\r\n    import \"./RentToken.sol\";\r\n\r\n\r\ncontract BuildingToken is ERC1155, Ownable, ERC1155Burnable {\r\n    //Data-------------------------------------------------------------------------------------------------------------------\r\n        //Tokens\r\n            RentToken                       private rentToken;\r\n            DeedToken                       private deedToken;\r\n            address                         private contractOwner;\r\n            string public name = \"RoomTokens\";\r\n            string public symbol = \"RTK\";\r\n\r\n\r\n\r\n\r\n        //Building Tracking\r\n            uint256[]                       public  Buildings;\r\n            uint256[]                       private Buildings_available;\r\n            mapping(uint256 => bool)        private Buildings_assigned;\r\n       \r\n            mapping (address => uint256[])  private owner_to_lands;\r\n            mapping (uint256 => address)    private land_to_owner;\r\n       \r\n            mapping (uint256 => uint256[])  private buildings_to_rooms;\r\n            mapping (uint256 => mapping(uint256=>uint)) private building_to_rooms_available;\r\n            mapping (uint256 => uint256)    private room_to_building;\r\n           \r\n            mapping (address => bool)       private tenant_in_room_available;\r\n            mapping (uint256 => address[])  private room_to_tenant;\r\n            mapping (address => uint256)    private tenant_to_room;\r\n\r\n\r\n\r\n\r\n        //Payment\r\n            mapping (address => uint)       private amountDue;\r\n            mapping (uint256 => uint)       private rentAmount;\r\n            mapping (address => uint)       private tenantLate;\r\n\r\n\r\n\r\n\r\n    //Modifiers-------------------------------------------------------------------------------------------------------------------\r\n        //Checks if the landlord owns the Deed of the house\r\n        modifier ownsLand(uint256 _land){\r\n            require(deedToken.checkOwner(_land) == msg.sender);\r\n            _;\r\n        }\r\n        //Checks if the deedID already exists\r\n        modifier UniqueBuildingExists(uint256 _id){\r\n            bool within = false;\r\n            for(uint i; i < Buildings.length; i++){\r\n                if(Buildings[i] == _id){\r\n                    within = true;\r\n                }\r\n            }\r\n            require(within);\r\n            _;\r\n        }\r\n\r\n\r\n\r\n\r\n        //Checks if the landlord is interacting with his tenant\r\n        modifier isLandlordofTenant(uint256 _roomid){\r\n            bool within = false;\r\n            for(uint i; i<room_to_tenant[_roomid].length; i++){\r\n                if(room_to_tenant[_roomid][i] == msg.sender){\r\n                    within=true;\r\n                }\r\n            }\r\n\r\n\r\n\r\n\r\n            require(deedToken.ownerOf(room_to_building[_roomid]) == msg.sender && within);\r\n            _;\r\n        }\r\n\r\n\r\n\r\n\r\n        //Checks if tenant is linked to the room\r\n        modifier tenantInRoom(uint256 _id){\r\n            require(balanceOf(msg.sender, _id) > 0);\r\n            _;\r\n        }\r\n\r\n\r\n\r\n\r\n        //Checks if the tenant has enough balance\r\n        modifier enoughBalance(address _user, uint _amount){\r\n            require(rentToken.balanceOf(_user) >= _amount);\r\n            _;\r\n        }\r\n\r\n\r\n\r\n\r\n        //Checks for non negative values\r\n        modifier non_negative(uint _amount){\r\n            require(_amount > 0);\r\n            _;\r\n        }\r\n\r\n\r\n\r\n\r\n    //Functions-------------------------------------------------------------------------------------------------------------------\r\n        constructor(address _rentToken, address _deedToken) ERC1155(\"\") Ownable(msg.sender) {\r\n            rentToken = RentToken(_rentToken);\r\n            deedToken = DeedToken(_deedToken);\r\n            rentToken.setBuildingContractAddress();\r\n            deedToken.setBuildingContractAddress();\r\n            contractOwner = msg.sender;\r\n\r\n\r\n            }\r\n\r\n\r\n        //_________________________________Rent Function_________________________________\r\n\r\n\r\n\r\n\r\n            //Charge Fees to a single room\r\n            function chargeFee(address _tenant, uint amount) public ownsLand(room_to_building[tenant_to_room[_tenant]]) non_negative(amount){\r\n                amountDue[_tenant] += amount;\r\n            }\r\n\r\n\r\n\r\n\r\n            //Charge rent to all people in a single building\r\n            function chargeRentinBuilding(uint256 building) private ownsLand(building){\r\n                for(uint i; i < buildings_to_rooms[building].length;i++){           //For each room in the building\r\n                    address[] memory _tenants = room_to_tenant[buildings_to_rooms[building][i]];    \r\n                    for(uint j; j < _tenants.length;j++){         //For each tenant linked to roomID\r\n                        if(amountDue[_tenants[j]] > 0){                       //If amount due is greater than 0, increase lateness\r\n                            tenantLate[_tenants[j]] += 1;\r\n                        }\r\n                        amountDue[_tenants[j]] += rentAmount[buildings_to_rooms[building][i]];\r\n                    }\r\n                }\r\n            }\r\n\r\n\r\n\r\n\r\n            //Charge rent to all properties the messenger owns\r\n            function chargeRentAllBuildings() public{\r\n                for(uint i; i < owner_to_lands[msg.sender].length;i++){\r\n                    chargeRentinBuilding(owner_to_lands[msg.sender][i]);\r\n                }\r\n            }\r\n\r\n\r\n\r\n\r\n            //Changes the amount of rent linked to a room\r\n            function changeRent(uint256 _id, uint _rentAmount) public ownsLand(_id){\r\n                rentAmount[_id] = _rentAmount;\r\n            }\r\n\r\n\r\n\r\n\r\n            //Pay the rent in tokens\r\n            function singlePayRent(uint _amount) public payable enoughBalance(msg.sender,_amount) non_negative(_amount){\r\n                address _tenant = msg.sender;\r\n                address _landlord = land_to_owner[room_to_building[tenant_to_room[msg.sender]]];\r\n                uint due = amountDue[_tenant];\r\n                if(_amount >= due){\r\n                    assert(rentToken.allowance(msg.sender, address(this)) >= due);\r\n                    rentToken.transferFrom(_tenant,_landlord, due);\r\n                    amountDue[_tenant] = 0;\r\n                }\r\n                else{\r\n                    assert(rentToken.allowance(msg.sender, address(this)) >= _amount);\r\n                    rentToken.transferFrom(_tenant,_landlord, _amount);\r\n                    amountDue[_tenant] -= _amount;\r\n                }\r\n            }\r\n\r\n\r\n\r\n\r\n\r\n\r\n\r\n\r\n        //_________________________________Viewing Info Functions_________________________________\r\n\r\n\r\n\r\n\r\n            //Check your rent\r\n            function viewRent (uint256 _room) public view returns(uint){\r\n                return rentAmount[_room];\r\n            }\r\n\r\n\r\n\r\n\r\n            //Check the amount due\r\n            function viewDue (address _tenant) public view returns(uint){\r\n                return amountDue[_tenant];\r\n            }\r\n\r\n\r\n\r\n\r\n            //Check the amount of payments they missed\r\n            function viewLateness(address _tenant) public view returns(uint){\r\n                return tenantLate[_tenant];\r\n            }\r\n\r\n\r\n\r\n\r\n            //View rooms associated to Building\r\n            function viewRooms(uint256 _building) public view returns(uint256[] memory){\r\n                return buildings_to_rooms[_building];\r\n            }\r\n\r\n\r\n\r\n\r\n            //View amount of rent tokens for an address\r\n            function viewBalance(address _tenant) public view returns(uint){\r\n                return rentToken.balanceOf(_tenant);\r\n            }\r\n\r\n\r\n\r\n\r\n            //View all the buildings\r\n            function viewBuildings() public view  returns(uint256[] memory){\r\n                return Buildings;\r\n            }\r\n\r\n\r\n\r\n\r\n            //View all unlinked buildings\r\n            function viewBuildingsAvailable() public view returns(uint256[] memory){\r\n                return Buildings_available;\r\n            }\r\n\r\n\r\n\r\n\r\n            //View all buildings owned\r\n            function viewBuildingsOwned() public view returns(uint256[] memory){\r\n                return owner_to_lands[msg.sender];\r\n            }\r\n\r\n\r\n\r\n\r\n            //view tenants linked to room\r\n            function viewTenantswithRoom(uint _room) public view returns(address[] memory){\r\n                return room_to_tenant[_room];\r\n            }\r\n\r\n\r\n\r\n            function viewAvailableRooms (uint256 roomID) public view returns(uint256){\r\n                return building_to_rooms_available[room_to_building[roomID]][roomID];\r\n}\r\n\r\n\r\n\r\n\r\n        //_________________________________Token Creation Functions_________________________________\r\n\r\n\r\n\r\n\r\n            function createDeed() public onlyOwner{\r\n                Buildings.push(deedToken.nextTokenId());\r\n                Buildings_assigned[deedToken.nextTokenId()] == false;\r\n                Buildings_available.push(deedToken.nextTokenId());\r\n                deedToken.safeMint(msg.sender);\r\n            }\r\n\r\n\r\n\r\n\r\n            function buyRentTokens() public payable  {\r\n                require(msg.sender.balance >= msg.value);\r\n                rentToken.buyRentTokens(msg.value,msg.sender);\r\n            }\r\n\r\n\r\n\r\n\r\n            function createRooms(uint256 deed, uint256 id, uint256 amount, uint _rentAmount) public ownsLand(deed){\r\n                require(room_to_building[id] == 0x0 || room_to_building[id] == deed);\r\n                _mint(msg.sender,id,amount,\"\");\r\n                if(room_to_building[id] != deed){\r\n                buildings_to_rooms[deed].push(id);\r\n                }\r\n                building_to_rooms_available[deed][id] += amount;\r\n                room_to_building[id] = deed;\r\n                rentAmount[id] = _rentAmount;\r\n            }\r\n\r\n\r\n\r\n\r\n        //_________________________________Token Transfer Functions_________________________________\r\n\r\n\r\n\r\n\r\n            //Assigns a deed to a address\r\n            function assignDeed(uint256 _deedId, address _to) public onlyOwner{\r\n                for(uint i; i < owner_to_lands[_to].length;i++){\r\n                    if(owner_to_lands[_to][i] == _deedId){\r\n                        revert();\r\n                    }\r\n                }\r\n                Buildings_assigned[_deedId] = true;\r\n                for(uint i;i < Buildings_available.length;i++){\r\n                    if(Buildings_available[i] == _deedId){\r\n                        delete Buildings_available[i];\r\n                    }\r\n                }\r\n                if(deedToken.ownerOf(_deedId) != msg.sender) {  \r\n                    require(deedToken.isApprovedForAll(_to, address(this)),\"Please Request Approval\");\r\n                    deedToken.safeTransferFrom(msg.sender, _to, _deedId);}\r\n                land_to_owner[_deedId] = _to;\r\n                owner_to_lands[_to].push(_deedId);\r\n            }\r\n\r\n\r\n\r\n\r\n            //Sends\r\n            function sendDeedToContractOwner(uint256 _deedId) public ownsLand(_deedId){\r\n                require(deedToken.isApprovedForAll(msg.sender, address(this)),\"Please Request Approval\");\r\n                removeFromOwned(_deedId);\r\n                deedToken.safeTransferFrom(msg.sender, contractOwner, _deedId);\r\n                Buildings_assigned[_deedId]=false;\r\n                Buildings_available[_deedId-1]=(_deedId);\r\n                land_to_owner[_deedId] = address(0);\r\n            }\r\n\r\n\r\n\r\n\r\n            function removeFromOwned(uint256 _id) private ownsLand(_id){\r\n                bool backing = false;\r\n                if(owner_to_lands[msg.sender][owner_to_lands[msg.sender].length - 1] == _id){\r\n                    owner_to_lands[msg.sender].pop();\r\n                }\r\n                else{\r\n                    for(uint i; i < owner_to_lands[msg.sender].length - 1;i++){\r\n                        if(owner_to_lands[msg.sender][i] == _id){\r\n                            backing = true;\r\n                            delete owner_to_lands[msg.sender][i];\r\n                        }\r\n                        if(backing){\r\n                            owner_to_lands[msg.sender][i] = owner_to_lands[msg.sender][i+1];\r\n                        }\r\n                        owner_to_lands[msg.sender].pop();\r\n                    }\r\n                }\r\n            }\r\n\r\n\r\n            function assignTenant(address tenant, uint256 roomID) public ownsLand(room_to_building[roomID]){\r\n                uint rooms_available = building_to_rooms_available[room_to_building[roomID]][roomID];\r\n                if (rooms_available > 0){\r\n                        building_to_rooms_available[room_to_building[roomID]][roomID] -= 1;\r\n                        safeTransferFrom(msg.sender, tenant, roomID,1,\"\");\r\n                        tenant_to_room[tenant] = roomID;\r\n                        room_to_tenant[roomID].push(tenant);\r\n                    }else{\r\n                        revert();\r\n                    }\r\n                }\r\n           \r\n\r\n\r\n            function deleteFromRoom(address _tenant, uint256 room) private{\r\n                bool backing = false;\r\n                if(room_to_tenant[room][room_to_tenant[room].length - 1] == _tenant){\r\n                    room_to_tenant[room].pop();\r\n                }\r\n                else{\r\n                    for(uint i; i < room_to_tenant[room].length - 1;i++){\r\n                        if(room_to_tenant[room][i] == _tenant){\r\n                            backing = true;\r\n                            delete owner_to_lands[msg.sender][i];\r\n                        }\r\n                        if(backing){\r\n                            room_to_tenant[room][i] = room_to_tenant[room][i+1];\r\n                        }\r\n                        room_to_tenant[room].pop();\r\n                    }\r\n                }\r\n            }\r\n\r\n\r\n\r\n\r\n           function refundRoom(uint256 roomID) public tenantInRoom(roomID) {\r\n                address landLord = land_to_owner[room_to_building[roomID]];\r\n                safeTransferFrom(msg.sender,landLord, roomID,1,\"\");\r\n                building_to_rooms_available[room_to_building[roomID]][roomID] += 1;\r\n                delete tenant_to_room[msg.sender];\r\n                deleteFromRoom(msg.sender,roomID);\r\n           }\r\n       \r\n    }",
  "sourcePath": "C:\\Users\\matth\\UB\\Fall2023\\CSE426\\landlord-tenant-project\\contracts\\BuildingToken.sol",
  "compiler": {
    "name": "solc",
    "version": "0.8.21+commit.d9974bed.Emscripten.clang"
  },
  "schemaVersion": "3.4.16",
  "updatedAt": "2023-11-19T11:59:46.863Z",
  "devdoc": {
    "errors": {
      "ERC1155InsufficientBalance(address,uint256,uint256,uint256)": [
        {
          "details": "Indicates an error related to the current `balance` of a `sender`. Used in transfers.",
          "params": {
            "balance": "Current balance for the interacting account.",
            "needed": "Minimum amount required to perform a transfer.",
            "sender": "Address whose tokens are being transferred.",
            "tokenId": "Identifier number of a token."
          }
        }
      ],
      "ERC1155InvalidApprover(address)": [
        {
          "details": "Indicates a failure with the `approver` of a token to be approved. Used in approvals.",
          "params": {
            "approver": "Address initiating an approval operation."
          }
        }
      ],
      "ERC1155InvalidArrayLength(uint256,uint256)": [
        {
          "details": "Indicates an array length mismatch between ids and values in a safeBatchTransferFrom operation. Used in batch transfers.",
          "params": {
            "idsLength": "Length of the array of token identifiers",
            "valuesLength": "Length of the array of token amounts"
          }
        }
      ],
      "ERC1155InvalidOperator(address)": [
        {
          "details": "Indicates a failure with the `operator` to be approved. Used in approvals.",
          "params": {
            "operator": "Address that may be allowed to operate on tokens without being their owner."
          }
        }
      ],
      "ERC1155InvalidReceiver(address)": [
        {
          "details": "Indicates a failure with the token `receiver`. Used in transfers.",
          "params": {
            "receiver": "Address to which tokens are being transferred."
          }
        }
      ],
      "ERC1155InvalidSender(address)": [
        {
          "details": "Indicates a failure with the token `sender`. Used in transfers.",
          "params": {
            "sender": "Address whose tokens are being transferred."
          }
        }
      ],
      "ERC1155MissingApprovalForAll(address,address)": [
        {
          "details": "Indicates a failure with the `operator`s approval. Used in transfers.",
          "params": {
            "operator": "Address that may be allowed to operate on tokens without being their owner.",
            "owner": "Address of the current owner of a token."
          }
        }
      ],
      "OwnableInvalidOwner(address)": [
        {
          "details": "The owner is not a valid owner account. (eg. `address(0)`)"
        }
      ],
      "OwnableUnauthorizedAccount(address)": [
        {
          "details": "The caller account is not authorized to perform an operation."
        }
      ]
    },
    "events": {
      "ApprovalForAll(address,address,bool)": {
        "details": "Emitted when `account` grants or revokes permission to `operator` to transfer their tokens, according to `approved`."
      },
      "TransferBatch(address,address,address,uint256[],uint256[])": {
        "details": "Equivalent to multiple {TransferSingle} events, where `operator`, `from` and `to` are the same for all transfers."
      },
      "TransferSingle(address,address,address,uint256,uint256)": {
        "details": "Emitted when `value` amount of tokens of type `id` are transferred from `from` to `to` by `operator`."
      },
      "URI(string,uint256)": {
        "details": "Emitted when the URI for token type `id` changes to `value`, if it is a non-programmatic URI. If an {URI} event was emitted for `id`, the standard https://eips.ethereum.org/EIPS/eip-1155#metadata-extensions[guarantees] that `value` will equal the value returned by {IERC1155MetadataURI-uri}."
      }
    },
    "kind": "dev",
    "methods": {
      "balanceOf(address,uint256)": {
        "details": "See {IERC1155-balanceOf}."
      },
      "balanceOfBatch(address[],uint256[])": {
        "details": "See {IERC1155-balanceOfBatch}. Requirements: - `accounts` and `ids` must have the same length."
      },
      "isApprovedForAll(address,address)": {
        "details": "See {IERC1155-isApprovedForAll}."
      },
      "owner()": {
        "details": "Returns the address of the current owner."
      },
      "renounceOwnership()": {
        "details": "Leaves the contract without owner. It will not be possible to call `onlyOwner` functions. Can only be called by the current owner. NOTE: Renouncing ownership will leave the contract without an owner, thereby disabling any functionality that is only available to the owner."
      },
      "safeBatchTransferFrom(address,address,uint256[],uint256[],bytes)": {
        "details": "See {IERC1155-safeBatchTransferFrom}."
      },
      "safeTransferFrom(address,address,uint256,uint256,bytes)": {
        "details": "See {IERC1155-safeTransferFrom}."
      },
      "setApprovalForAll(address,bool)": {
        "details": "See {IERC1155-setApprovalForAll}."
      },
      "supportsInterface(bytes4)": {
        "details": "See {IERC165-supportsInterface}."
      },
      "transferOwnership(address)": {
        "details": "Transfers ownership of the contract to a new account (`newOwner`). Can only be called by the current owner."
      },
      "uri(uint256)": {
        "details": "See {IERC1155MetadataURI-uri}. This implementation returns the same URI for *all* token types. It relies on the token type ID substitution mechanism https://eips.ethereum.org/EIPS/eip-1155#metadata[defined in the EIP]. Clients calling this function must replace the `\\{id\\}` substring with the actual token type ID."
      }
    },
    "version": 1
  },
  "userdoc": {
    "kind": "user",
    "methods": {},
    "version": 1
  }
}