{
  "contractName": "DeedToken",
  "abi": [
    {
      "inputs": [],
      "stateMutability": "nonpayable",
      "type": "constructor"
    },
    {
      "inputs": [
        {
          "internalType": "address",
          "name": "sender",
          "type": "address"
        },
        {
          "internalType": "uint256",
          "name": "tokenId",
          "type": "uint256"
        },
        {
          "internalType": "address",
          "name": "owner",
          "type": "address"
        }
      ],
      "name": "ERC721IncorrectOwner",
      "type": "error"
    },
    {
      "inputs": [
        {
          "internalType": "address",
          "name": "operator",
          "type": "address"
        },
        {
          "internalType": "uint256",
          "name": "tokenId",
          "type": "uint256"
        }
      ],
      "name": "ERC721InsufficientApproval",
      "type": "error"
    },
    {
      "inputs": [
        {
          "internalType": "address",
          "name": "approver",
          "type": "address"
        }
      ],
      "name": "ERC721InvalidApprover",
      "type": "error"
    },
    {
      "inputs": [
        {
          "internalType": "address",
          "name": "operator",
          "type": "address"
        }
      ],
      "name": "ERC721InvalidOperator",
      "type": "error"
    },
    {
      "inputs": [
        {
          "internalType": "address",
          "name": "owner",
          "type": "address"
        }
      ],
      "name": "ERC721InvalidOwner",
      "type": "error"
    },
    {
      "inputs": [
        {
          "internalType": "address",
          "name": "receiver",
          "type": "address"
        }
      ],
      "name": "ERC721InvalidReceiver",
      "type": "error"
    },
    {
      "inputs": [
        {
          "internalType": "address",
          "name": "sender",
          "type": "address"
        }
      ],
      "name": "ERC721InvalidSender",
      "type": "error"
    },
    {
      "inputs": [
        {
          "internalType": "uint256",
          "name": "tokenId",
          "type": "uint256"
        }
      ],
      "name": "ERC721NonexistentToken",
      "type": "error"
    },
    {
      "inputs": [
        {
          "internalType": "address",
          "name": "owner",
          "type": "address"
        }
      ],
      "name": "OwnableInvalidOwner",
      "type": "error"
    },
    {
      "inputs": [
        {
          "internalType": "address",
          "name": "account",
          "type": "address"
        }
      ],
      "name": "OwnableUnauthorizedAccount",
      "type": "error"
    },
    {
      "anonymous": false,
      "inputs": [
        {
          "indexed": true,
          "internalType": "address",
          "name": "owner",
          "type": "address"
        },
        {
          "indexed": true,
          "internalType": "address",
          "name": "approved",
          "type": "address"
        },
        {
          "indexed": true,
          "internalType": "uint256",
          "name": "tokenId",
          "type": "uint256"
        }
      ],
      "name": "Approval",
      "type": "event"
    },
    {
      "anonymous": false,
      "inputs": [
        {
          "indexed": true,
          "internalType": "address",
          "name": "owner",
          "type": "address"
        },
        {
          "indexed": true,
          "internalType": "address",
          "name": "operator",
          "type": "address"
        },
        {
          "indexed": false,
          "internalType": "bool",
          "name": "approved",
          "type": "bool"
        }
      ],
      "name": "ApprovalForAll",
      "type": "event"
    },
    {
      "anonymous": false,
      "inputs": [
        {
          "indexed": true,
          "internalType": "address",
          "name": "previousOwner",
          "type": "address"
        },
        {
          "indexed": true,
          "internalType": "address",
          "name": "newOwner",
          "type": "address"
        }
      ],
      "name": "OwnershipTransferred",
      "type": "event"
    },
    {
      "anonymous": false,
      "inputs": [
        {
          "indexed": true,
          "internalType": "address",
          "name": "from",
          "type": "address"
        },
        {
          "indexed": true,
          "internalType": "address",
          "name": "to",
          "type": "address"
        },
        {
          "indexed": true,
          "internalType": "uint256",
          "name": "tokenId",
          "type": "uint256"
        }
      ],
      "name": "Transfer",
      "type": "event"
    },
    {
      "inputs": [
        {
          "internalType": "address",
          "name": "to",
          "type": "address"
        },
        {
          "internalType": "uint256",
          "name": "tokenId",
          "type": "uint256"
        }
      ],
      "name": "approve",
      "outputs": [],
      "stateMutability": "nonpayable",
      "type": "function"
    },
    {
      "inputs": [
        {
          "internalType": "address",
          "name": "owner",
          "type": "address"
        }
      ],
      "name": "balanceOf",
      "outputs": [
        {
          "internalType": "uint256",
          "name": "",
          "type": "uint256"
        }
      ],
      "stateMutability": "view",
      "type": "function"
    },
    {
      "inputs": [
        {
          "internalType": "uint256",
          "name": "tokenId",
          "type": "uint256"
        }
      ],
      "name": "burn",
      "outputs": [],
      "stateMutability": "nonpayable",
      "type": "function"
    },
    {
      "inputs": [
        {
          "internalType": "uint256",
          "name": "tokenId",
          "type": "uint256"
        }
      ],
      "name": "getApproved",
      "outputs": [
        {
          "internalType": "address",
          "name": "",
          "type": "address"
        }
      ],
      "stateMutability": "view",
      "type": "function"
    },
    {
      "inputs": [
        {
          "internalType": "address",
          "name": "owner",
          "type": "address"
        },
        {
          "internalType": "address",
          "name": "operator",
          "type": "address"
        }
      ],
      "name": "isApprovedForAll",
      "outputs": [
        {
          "internalType": "bool",
          "name": "",
          "type": "bool"
        }
      ],
      "stateMutability": "view",
      "type": "function"
    },
    {
      "inputs": [],
      "name": "name",
      "outputs": [
        {
          "internalType": "string",
          "name": "",
          "type": "string"
        }
      ],
      "stateMutability": "view",
      "type": "function"
    },
    {
      "inputs": [],
      "name": "owner",
      "outputs": [
        {
          "internalType": "address",
          "name": "",
          "type": "address"
        }
      ],
      "stateMutability": "view",
      "type": "function"
    },
    {
      "inputs": [
        {
          "internalType": "uint256",
          "name": "tokenId",
          "type": "uint256"
        }
      ],
      "name": "ownerOf",
      "outputs": [
        {
          "internalType": "address",
          "name": "",
          "type": "address"
        }
      ],
      "stateMutability": "view",
      "type": "function"
    },
    {
      "inputs": [],
      "name": "renounceOwnership",
      "outputs": [],
      "stateMutability": "nonpayable",
      "type": "function"
    },
    {
      "inputs": [
        {
          "internalType": "address",
          "name": "from",
          "type": "address"
        },
        {
          "internalType": "address",
          "name": "to",
          "type": "address"
        },
        {
          "internalType": "uint256",
          "name": "tokenId",
          "type": "uint256"
        }
      ],
      "name": "safeTransferFrom",
      "outputs": [],
      "stateMutability": "nonpayable",
      "type": "function"
    },
    {
      "inputs": [
        {
          "internalType": "address",
          "name": "from",
          "type": "address"
        },
        {
          "internalType": "address",
          "name": "to",
          "type": "address"
        },
        {
          "internalType": "uint256",
          "name": "tokenId",
          "type": "uint256"
        },
        {
          "internalType": "bytes",
          "name": "data",
          "type": "bytes"
        }
      ],
      "name": "safeTransferFrom",
      "outputs": [],
      "stateMutability": "nonpayable",
      "type": "function"
    },
    {
      "inputs": [
        {
          "internalType": "address",
          "name": "operator",
          "type": "address"
        },
        {
          "internalType": "bool",
          "name": "approved",
          "type": "bool"
        }
      ],
      "name": "setApprovalForAll",
      "outputs": [],
      "stateMutability": "nonpayable",
      "type": "function"
    },
    {
      "inputs": [
        {
          "internalType": "bytes4",
          "name": "interfaceId",
          "type": "bytes4"
        }
      ],
      "name": "supportsInterface",
      "outputs": [
        {
          "internalType": "bool",
          "name": "",
          "type": "bool"
        }
      ],
      "stateMutability": "view",
      "type": "function"
    },
    {
      "inputs": [],
      "name": "symbol",
      "outputs": [
        {
          "internalType": "string",
          "name": "",
          "type": "string"
        }
      ],
      "stateMutability": "view",
      "type": "function"
    },
    {
      "inputs": [
        {
          "internalType": "uint256",
          "name": "tokenId",
          "type": "uint256"
        }
      ],
      "name": "tokenURI",
      "outputs": [
        {
          "internalType": "string",
          "name": "",
          "type": "string"
        }
      ],
      "stateMutability": "view",
      "type": "function"
    },
    {
      "inputs": [
        {
          "internalType": "address",
          "name": "from",
          "type": "address"
        },
        {
          "internalType": "address",
          "name": "to",
          "type": "address"
        },
        {
          "internalType": "uint256",
          "name": "tokenId",
          "type": "uint256"
        }
      ],
      "name": "transferFrom",
      "outputs": [],
      "stateMutability": "nonpayable",
      "type": "function"
    },
    {
      "inputs": [
        {
          "internalType": "address",
          "name": "newOwner",
          "type": "address"
        }
      ],
      "name": "transferOwnership",
      "outputs": [],
      "stateMutability": "nonpayable",
      "type": "function"
    },
    {
      "inputs": [],
      "name": "setBuildingContractAddress",
      "outputs": [],
      "stateMutability": "nonpayable",
      "type": "function"
    },
    {
      "inputs": [
        {
          "internalType": "address",
          "name": "to",
          "type": "address"
        }
      ],
      "name": "safeMint",
      "outputs": [],
      "stateMutability": "nonpayable",
      "type": "function"
    },
    {
      "inputs": [
        {
          "internalType": "uint256",
          "name": "_id",
          "type": "uint256"
        }
      ],
      "name": "checkOwner",
      "outputs": [
        {
          "internalType": "address",
          "name": "",
          "type": "address"
        }
      ],
      "stateMutability": "view",
      "type": "function"
    },
    {
      "inputs": [],
      "name": "nextTokenId",
      "outputs": [
        {
          "internalType": "uint256",
          "name": "",
          "type": "uint256"
        }
      ],
      "stateMutability": "view",
      "type": "function"
    },
    {
      "inputs": [],
      "name": "requestApproval",
      "outputs": [],
      "stateMutability": "nonpayable",
      "type": "function"
    }
  ],
  "bytecode": "0x608060405260016007555f60085f6101000a81548173ffffffffffffffffffffffffffffffffffffffff021916908373ffffffffffffffffffffffffffffffffffffffff16021790555034801562000055575f80fd5b50336040518060400160405280600981526020017f44656564546f6b656e00000000000000000000000000000000000000000000008152506040518060400160405280600481526020017f4444544b00000000000000000000000000000000000000000000000000000000815250815f9081620000d391906200049a565b508060019081620000e591906200049a565b5050505f73ffffffffffffffffffffffffffffffffffffffff168173ffffffffffffffffffffffffffffffffffffffff16036200015b575f6040517f1e4fbdf7000000000000000000000000000000000000000000000000000000008152600401620001529190620005c1565b60405180910390fd5b6200016c816200017360201b60201c565b50620005dc565b5f60065f9054906101000a900473ffffffffffffffffffffffffffffffffffffffff1690508160065f6101000a81548173ffffffffffffffffffffffffffffffffffffffff021916908373ffffffffffffffffffffffffffffffffffffffff1602179055508173ffffffffffffffffffffffffffffffffffffffff168173ffffffffffffffffffffffffffffffffffffffff167f8be0079c531659141344cd1fd0a4f28419497f9722a3daafe3b4186f6b6457e060405160405180910390a35050565b5f81519050919050565b7f4e487b71000000000000000000000000000000000000000000000000000000005f52604160045260245ffd5b7f4e487b71000000000000000000000000000000000000000000000000000000005f52602260045260245ffd5b5f6002820490506001821680620002b257607f821691505b602082108103620002c857620002c76200026d565b5b50919050565b5f819050815f5260205f209050919050565b5f6020601f8301049050919050565b5f82821b905092915050565b5f600883026200032c7fffffffffffffffffffffffffffffffffffffffffffffffffffffffffffffffff82620002ef565b620003388683620002ef565b95508019841693508086168417925050509392505050565b5f819050919050565b5f819050919050565b5f620003826200037c620003768462000350565b62000359565b62000350565b9050919050565b5f819050919050565b6200039d8362000362565b620003b5620003ac8262000389565b848454620002fb565b825550505050565b5f90565b620003cb620003bd565b620003d881848462000392565b505050565b5b81811015620003ff57620003f35f82620003c1565b600181019050620003de565b5050565b601f8211156200044e576200041881620002ce565b6200042384620002e0565b8101602085101562000433578190505b6200044b6200044285620002e0565b830182620003dd565b50505b505050565b5f82821c905092915050565b5f620004705f198460080262000453565b1980831691505092915050565b5f6200048a83836200045f565b9150826002028217905092915050565b620004a58262000236565b67ffffffffffffffff811115620004c157620004c062000240565b5b620004cd82546200029a565b620004da82828562000403565b5f60209050601f83116001811462000510575f8415620004fb578287015190505b6200050785826200047d565b86555062000576565b601f1984166200052086620002ce565b5f5b82811015620005495784890151825560018201915060208501945060208101905062000522565b8683101562000569578489015162000565601f8916826200045f565b8355505b6001600288020188555050505b505050505050565b5f73ffffffffffffffffffffffffffffffffffffffff82169050919050565b5f620005a9826200057e565b9050919050565b620005bb816200059d565b82525050565b5f602082019050620005d65f830184620005b0565b92915050565b61233a80620005ea5f395ff3fe608060405234801561000f575f80fd5b5060043610610140575f3560e01c8063715018a6116100b6578063a22cb4651161007a578063a22cb4651461034c578063b88d4fde14610368578063c87b56dd14610384578063e8c8cc28146103b4578063e985e9c5146103be578063f2fde38b146103ee57610140565b8063715018a6146102b857806375794a3c146102c25780638da5cb5b146102e057806395d89b41146102fe5780639870dce01461031c57610140565b806340d097c31161010857806340d097c3146101fa57806342842e0e1461021657806342966c68146102325780635dbcf0f71461024e5780636352211e1461025857806370a082311461028857610140565b806301ffc9a71461014457806306fdde0314610174578063081812fc14610192578063095ea7b3146101c257806323b872dd146101de575b5f80fd5b61015e60048036038101906101599190611b2a565b61040a565b60405161016b9190611b6f565b60405180910390f35b61017c6104eb565b6040516101899190611c12565b60405180910390f35b6101ac60048036038101906101a79190611c65565b61057a565b6040516101b99190611ccf565b60405180910390f35b6101dc60048036038101906101d79190611d12565b610595565b005b6101f860048036038101906101f39190611d50565b6105ab565b005b610214600480360381019061020f9190611da0565b6106aa565b005b610230600480360381019061022b9190611d50565b610786565b005b61024c60048036038101906102479190611c65565b6107a5565b005b6102566107bb565b005b610272600480360381019061026d9190611c65565b610846565b60405161027f9190611ccf565b60405180910390f35b6102a2600480360381019061029d9190611da0565b610857565b6040516102af9190611dda565b60405180910390f35b6102c061090d565b005b6102ca610920565b6040516102d79190611dda565b60405180910390f35b6102e8610929565b6040516102f59190611ccf565b60405180910390f35b610306610951565b6040516103139190611c12565b60405180910390f35b61033660048036038101906103319190611c65565b6109e1565b6040516103439190611ccf565b60405180910390f35b61036660048036038101906103619190611e1d565b6109f2565b005b610382600480360381019061037d9190611f87565b610a08565b005b61039e60048036038101906103999190611c65565b610a25565b6040516103ab9190611c12565b60405180910390f35b6103bc610a8b565b005b6103d860048036038101906103d39190612007565b610b2a565b6040516103e59190611b6f565b60405180910390f35b61040860048036038101906104039190611da0565b610bb8565b005b5f7f80ac58cd000000000000000000000000000000000000000000000000000000007bffffffffffffffffffffffffffffffffffffffffffffffffffffffff1916827bffffffffffffffffffffffffffffffffffffffffffffffffffffffff191614806104d457507f5b5e139f000000000000000000000000000000000000000000000000000000007bffffffffffffffffffffffffffffffffffffffffffffffffffffffff1916827bffffffffffffffffffffffffffffffffffffffffffffffffffffffff1916145b806104e457506104e382610c3c565b5b9050919050565b60605f80546104f990612072565b80601f016020809104026020016040519081016040528092919081815260200182805461052590612072565b80156105705780601f1061054757610100808354040283529160200191610570565b820191905f5260205f20905b81548152906001019060200180831161055357829003601f168201915b5050505050905090565b5f61058482610ca5565b5061058e82610d2b565b9050919050565b6105a782826105a2610d64565b610d6b565b5050565b5f73ffffffffffffffffffffffffffffffffffffffff168273ffffffffffffffffffffffffffffffffffffffff160361061b575f6040517f64a0ae920000000000000000000000000000000000000000000000000000000081526004016106129190611ccf565b60405180910390fd5b5f61062e8383610629610d64565b610d7d565b90508373ffffffffffffffffffffffffffffffffffffffff168173ffffffffffffffffffffffffffffffffffffffff16146106a4578382826040517f64283d7b00000000000000000000000000000000000000000000000000000000815260040161069b939291906120a2565b60405180910390fd5b50505050565b5f73ffffffffffffffffffffffffffffffffffffffff1660085f9054906101000a900473ffffffffffffffffffffffffffffffffffffffff1673ffffffffffffffffffffffffffffffffffffffff1603610707576107066120d7565b5b60085f9054906101000a900473ffffffffffffffffffffffffffffffffffffffff1673ffffffffffffffffffffffffffffffffffffffff163373ffffffffffffffffffffffffffffffffffffffff161461075f575f80fd5b5f60075f81548092919061077290612131565b9190505590506107828282610f88565b5050565b6107a083838360405180602001604052805f815250610a08565b505050565b6107b75f826107b2610d64565b610d7d565b5050565b5f73ffffffffffffffffffffffffffffffffffffffff1660085f9054906101000a900473ffffffffffffffffffffffffffffffffffffffff1673ffffffffffffffffffffffffffffffffffffffff1603610818576108176120d7565b5b61084460085f9054906101000a900473ffffffffffffffffffffffffffffffffffffffff1660016109f2565b565b5f61085082610ca5565b9050919050565b5f8073ffffffffffffffffffffffffffffffffffffffff168273ffffffffffffffffffffffffffffffffffffffff16036108c8575f6040517f89c62b640000000000000000000000000000000000000000000000000000000081526004016108bf9190611ccf565b60405180910390fd5b60035f8373ffffffffffffffffffffffffffffffffffffffff1673ffffffffffffffffffffffffffffffffffffffff1681526020019081526020015f20549050919050565b610915610fa5565b61091e5f61102c565b565b5f600754905090565b5f60065f9054906101000a900473ffffffffffffffffffffffffffffffffffffffff16905090565b60606001805461096090612072565b80601f016020809104026020016040519081016040528092919081815260200182805461098c90612072565b80156109d75780601f106109ae576101008083540402835291602001916109d7565b820191905f5260205f20905b8154815290600101906020018083116109ba57829003601f168201915b5050505050905090565b5f6109eb82610846565b9050919050565b610a046109fd610d64565b83836110ef565b5050565b610a138484846105ab565b610a1f84848484611258565b50505050565b6060610a3082610ca5565b505f610a3a61140a565b90505f815111610a585760405180602001604052805f815250610a83565b80610a6284611420565b604051602001610a739291906121b2565b6040516020818303038152906040525b915050919050565b5f73ffffffffffffffffffffffffffffffffffffffff1660085f9054906101000a900473ffffffffffffffffffffffffffffffffffffffff1673ffffffffffffffffffffffffffffffffffffffff1614610ae857610ae76120d7565b5b3360085f6101000a81548173ffffffffffffffffffffffffffffffffffffffff021916908373ffffffffffffffffffffffffffffffffffffffff160217905550565b5f60055f8473ffffffffffffffffffffffffffffffffffffffff1673ffffffffffffffffffffffffffffffffffffffff1681526020019081526020015f205f8373ffffffffffffffffffffffffffffffffffffffff1673ffffffffffffffffffffffffffffffffffffffff1681526020019081526020015f205f9054906101000a900460ff16905092915050565b610bc0610fa5565b5f73ffffffffffffffffffffffffffffffffffffffff168173ffffffffffffffffffffffffffffffffffffffff1603610c30575f6040517f1e4fbdf7000000000000000000000000000000000000000000000000000000008152600401610c279190611ccf565b60405180910390fd5b610c398161102c565b50565b5f7f01ffc9a7000000000000000000000000000000000000000000000000000000007bffffffffffffffffffffffffffffffffffffffffffffffffffffffff1916827bffffffffffffffffffffffffffffffffffffffffffffffffffffffff1916149050919050565b5f80610cb0836114ea565b90505f73ffffffffffffffffffffffffffffffffffffffff168173ffffffffffffffffffffffffffffffffffffffff1603610d2257826040517f7e273289000000000000000000000000000000000000000000000000000000008152600401610d199190611dda565b60405180910390fd5b80915050919050565b5f60045f8381526020019081526020015f205f9054906101000a900473ffffffffffffffffffffffffffffffffffffffff169050919050565b5f33905090565b610d788383836001611523565b505050565b5f80610d88846114ea565b90505f73ffffffffffffffffffffffffffffffffffffffff168373ffffffffffffffffffffffffffffffffffffffff1614610dc957610dc88184866116e2565b5b5f73ffffffffffffffffffffffffffffffffffffffff168173ffffffffffffffffffffffffffffffffffffffff1614610e5457610e085f855f80611523565b600160035f8373ffffffffffffffffffffffffffffffffffffffff1673ffffffffffffffffffffffffffffffffffffffff1681526020019081526020015f205f82825403925050819055505b5f73ffffffffffffffffffffffffffffffffffffffff168573ffffffffffffffffffffffffffffffffffffffff1614610ed357600160035f8773ffffffffffffffffffffffffffffffffffffffff1673ffffffffffffffffffffffffffffffffffffffff1681526020019081526020015f205f82825401925050819055505b8460025f8681526020019081526020015f205f6101000a81548173ffffffffffffffffffffffffffffffffffffffff021916908373ffffffffffffffffffffffffffffffffffffffff160217905550838573ffffffffffffffffffffffffffffffffffffffff168273ffffffffffffffffffffffffffffffffffffffff167fddf252ad1be2c89b69c2b068fc378daa952ba7f163c4a11628f55a4df523b3ef60405160405180910390a4809150509392505050565b610fa1828260405180602001604052805f8152506117a5565b5050565b610fad610d64565b73ffffffffffffffffffffffffffffffffffffffff16610fcb610929565b73ffffffffffffffffffffffffffffffffffffffff161461102a57610fee610d64565b6040517f118cdaa70000000000000000000000000000000000000000000000000000000081526004016110219190611ccf565b60405180910390fd5b565b5f60065f9054906101000a900473ffffffffffffffffffffffffffffffffffffffff1690508160065f6101000a81548173ffffffffffffffffffffffffffffffffffffffff021916908373ffffffffffffffffffffffffffffffffffffffff1602179055508173ffffffffffffffffffffffffffffffffffffffff168173ffffffffffffffffffffffffffffffffffffffff167f8be0079c531659141344cd1fd0a4f28419497f9722a3daafe3b4186f6b6457e060405160405180910390a35050565b5f73ffffffffffffffffffffffffffffffffffffffff168273ffffffffffffffffffffffffffffffffffffffff160361115f57816040517f5b08ba180000000000000000000000000000000000000000000000000000000081526004016111569190611ccf565b60405180910390fd5b8060055f8573ffffffffffffffffffffffffffffffffffffffff1673ffffffffffffffffffffffffffffffffffffffff1681526020019081526020015f205f8473ffffffffffffffffffffffffffffffffffffffff1673ffffffffffffffffffffffffffffffffffffffff1681526020019081526020015f205f6101000a81548160ff0219169083151502179055508173ffffffffffffffffffffffffffffffffffffffff168373ffffffffffffffffffffffffffffffffffffffff167f17307eab39ab6107e8899845ad3d59bd9653f200f220920489ca2b5937696c318360405161124b9190611b6f565b60405180910390a3505050565b5f8373ffffffffffffffffffffffffffffffffffffffff163b1115611404578273ffffffffffffffffffffffffffffffffffffffff1663150b7a0261129b610d64565b8685856040518563ffffffff1660e01b81526004016112bd9493929190612227565b6020604051808303815f875af19250505080156112f857506040513d601f19601f820116820180604052508101906112f59190612285565b60015b611379573d805f8114611326576040519150601f19603f3d011682016040523d82523d5f602084013e61132b565b606091505b505f81510361137157836040517f64a0ae920000000000000000000000000000000000000000000000000000000081526004016113689190611ccf565b60405180910390fd5b805181602001fd5b63150b7a0260e01b7bffffffffffffffffffffffffffffffffffffffffffffffffffffffff1916817bffffffffffffffffffffffffffffffffffffffffffffffffffffffff19161461140257836040517f64a0ae920000000000000000000000000000000000000000000000000000000081526004016113f99190611ccf565b60405180910390fd5b505b50505050565b606060405180602001604052805f815250905090565b60605f600161142e846117c0565b0190505f8167ffffffffffffffff81111561144c5761144b611e63565b5b6040519080825280601f01601f19166020018201604052801561147e5781602001600182028036833780820191505090505b5090505f82602001820190505b6001156114df578080600190039150507f3031323334353637383961626364656600000000000000000000000000000000600a86061a8153600a85816114d4576114d36122b0565b5b0494505f850361148b575b819350505050919050565b5f60025f8381526020019081526020015f205f9054906101000a900473ffffffffffffffffffffffffffffffffffffffff169050919050565b808061155b57505f73ffffffffffffffffffffffffffffffffffffffff168273ffffffffffffffffffffffffffffffffffffffff1614155b1561168d575f61156a84610ca5565b90505f73ffffffffffffffffffffffffffffffffffffffff168373ffffffffffffffffffffffffffffffffffffffff16141580156115d457508273ffffffffffffffffffffffffffffffffffffffff168173ffffffffffffffffffffffffffffffffffffffff1614155b80156115e757506115e58184610b2a565b155b1561162957826040517fa9fbf51f0000000000000000000000000000000000000000000000000000000081526004016116209190611ccf565b60405180910390fd5b811561168b57838573ffffffffffffffffffffffffffffffffffffffff168273ffffffffffffffffffffffffffffffffffffffff167f8c5be1e5ebec7d5bd14f71427d1e84f3dd0314c0f7b2291e5b200ac8c7c3b92560405160405180910390a45b505b8360045f8581526020019081526020015f205f6101000a81548173ffffffffffffffffffffffffffffffffffffffff021916908373ffffffffffffffffffffffffffffffffffffffff16021790555050505050565b6116ed838383611911565b6117a0575f73ffffffffffffffffffffffffffffffffffffffff168373ffffffffffffffffffffffffffffffffffffffff160361176157806040517f7e2732890000000000000000000000000000000000000000000000000000000081526004016117589190611dda565b60405180910390fd5b81816040517f177e802f0000000000000000000000000000000000000000000000000000000081526004016117979291906122dd565b60405180910390fd5b505050565b6117af83836119d1565b6117bb5f848484611258565b505050565b5f805f90507a184f03e93ff9f4daa797ed6e38ed64bf6a1f010000000000000000831061181c577a184f03e93ff9f4daa797ed6e38ed64bf6a1f0100000000000000008381611812576118116122b0565b5b0492506040810190505b6d04ee2d6d415b85acef81000000008310611859576d04ee2d6d415b85acef8100000000838161184f5761184e6122b0565b5b0492506020810190505b662386f26fc10000831061188857662386f26fc10000838161187e5761187d6122b0565b5b0492506010810190505b6305f5e10083106118b1576305f5e10083816118a7576118a66122b0565b5b0492506008810190505b61271083106118d65761271083816118cc576118cb6122b0565b5b0492506004810190505b606483106118f957606483816118ef576118ee6122b0565b5b0492506002810190505b600a8310611908576001810190505b80915050919050565b5f8073ffffffffffffffffffffffffffffffffffffffff168373ffffffffffffffffffffffffffffffffffffffff16141580156119c857508273ffffffffffffffffffffffffffffffffffffffff168473ffffffffffffffffffffffffffffffffffffffff16148061198957506119888484610b2a565b5b806119c757508273ffffffffffffffffffffffffffffffffffffffff166119af83610d2b565b73ffffffffffffffffffffffffffffffffffffffff16145b5b90509392505050565b5f73ffffffffffffffffffffffffffffffffffffffff168273ffffffffffffffffffffffffffffffffffffffff1603611a41575f6040517f64a0ae92000000000000000000000000000000000000000000000000000000008152600401611a389190611ccf565b60405180910390fd5b5f611a4d83835f610d7d565b90505f73ffffffffffffffffffffffffffffffffffffffff168173ffffffffffffffffffffffffffffffffffffffff1614611abf575f6040517f73c6ac6e000000000000000000000000000000000000000000000000000000008152600401611ab69190611ccf565b60405180910390fd5b505050565b5f604051905090565b5f80fd5b5f80fd5b5f7fffffffff0000000000000000000000000000000000000000000000000000000082169050919050565b611b0981611ad5565b8114611b13575f80fd5b50565b5f81359050611b2481611b00565b92915050565b5f60208284031215611b3f57611b3e611acd565b5b5f611b4c84828501611b16565b91505092915050565b5f8115159050919050565b611b6981611b55565b82525050565b5f602082019050611b825f830184611b60565b92915050565b5f81519050919050565b5f82825260208201905092915050565b5f5b83811015611bbf578082015181840152602081019050611ba4565b5f8484015250505050565b5f601f19601f8301169050919050565b5f611be482611b88565b611bee8185611b92565b9350611bfe818560208601611ba2565b611c0781611bca565b840191505092915050565b5f6020820190508181035f830152611c2a8184611bda565b905092915050565b5f819050919050565b611c4481611c32565b8114611c4e575f80fd5b50565b5f81359050611c5f81611c3b565b92915050565b5f60208284031215611c7a57611c79611acd565b5b5f611c8784828501611c51565b91505092915050565b5f73ffffffffffffffffffffffffffffffffffffffff82169050919050565b5f611cb982611c90565b9050919050565b611cc981611caf565b82525050565b5f602082019050611ce25f830184611cc0565b92915050565b611cf181611caf565b8114611cfb575f80fd5b50565b5f81359050611d0c81611ce8565b92915050565b5f8060408385031215611d2857611d27611acd565b5b5f611d3585828601611cfe565b9250506020611d4685828601611c51565b9150509250929050565b5f805f60608486031215611d6757611d66611acd565b5b5f611d7486828701611cfe565b9350506020611d8586828701611cfe565b9250506040611d9686828701611c51565b9150509250925092565b5f60208284031215611db557611db4611acd565b5b5f611dc284828501611cfe565b91505092915050565b611dd481611c32565b82525050565b5f602082019050611ded5f830184611dcb565b92915050565b611dfc81611b55565b8114611e06575f80fd5b50565b5f81359050611e1781611df3565b92915050565b5f8060408385031215611e3357611e32611acd565b5b5f611e4085828601611cfe565b9250506020611e5185828601611e09565b9150509250929050565b5f80fd5b5f80fd5b7f4e487b71000000000000000000000000000000000000000000000000000000005f52604160045260245ffd5b611e9982611bca565b810181811067ffffffffffffffff82111715611eb857611eb7611e63565b5b80604052505050565b5f611eca611ac4565b9050611ed68282611e90565b919050565b5f67ffffffffffffffff821115611ef557611ef4611e63565b5b611efe82611bca565b9050602081019050919050565b828183375f83830152505050565b5f611f2b611f2684611edb565b611ec1565b905082815260208101848484011115611f4757611f46611e5f565b5b611f52848285611f0b565b509392505050565b5f82601f830112611f6e57611f6d611e5b565b5b8135611f7e848260208601611f19565b91505092915050565b5f805f8060808587031215611f9f57611f9e611acd565b5b5f611fac87828801611cfe565b9450506020611fbd87828801611cfe565b9350506040611fce87828801611c51565b925050606085013567ffffffffffffffff811115611fef57611fee611ad1565b5b611ffb87828801611f5a565b91505092959194509250565b5f806040838503121561201d5761201c611acd565b5b5f61202a85828601611cfe565b925050602061203b85828601611cfe565b9150509250929050565b7f4e487b71000000000000000000000000000000000000000000000000000000005f52602260045260245ffd5b5f600282049050600182168061208957607f821691505b60208210810361209c5761209b612045565b5b50919050565b5f6060820190506120b55f830186611cc0565b6120c26020830185611dcb565b6120cf6040830184611cc0565b949350505050565b7f4e487b71000000000000000000000000000000000000000000000000000000005f52600160045260245ffd5b7f4e487b71000000000000000000000000000000000000000000000000000000005f52601160045260245ffd5b5f61213b82611c32565b91507fffffffffffffffffffffffffffffffffffffffffffffffffffffffffffffffff820361216d5761216c612104565b5b600182019050919050565b5f81905092915050565b5f61218c82611b88565b6121968185612178565b93506121a6818560208601611ba2565b80840191505092915050565b5f6121bd8285612182565b91506121c98284612182565b91508190509392505050565b5f81519050919050565b5f82825260208201905092915050565b5f6121f9826121d5565b61220381856121df565b9350612213818560208601611ba2565b61221c81611bca565b840191505092915050565b5f60808201905061223a5f830187611cc0565b6122476020830186611cc0565b6122546040830185611dcb565b818103606083015261226681846121ef565b905095945050505050565b5f8151905061227f81611b00565b92915050565b5f6020828403121561229a57612299611acd565b5b5f6122a784828501612271565b91505092915050565b7f4e487b71000000000000000000000000000000000000000000000000000000005f52601260045260245ffd5b5f6040820190506122f05f830185611cc0565b6122fd6020830184611dcb565b939250505056fea26469706673582212208f2701e34183add6e187ecad34511b07e0a13deeba7942b91ac4930abe8a199964736f6c63430008150033",
  "immutableReferences": {},
  "source": "// SPDX-License-Identifier: MIT\r\n\r\n/*\r\nWarning when testing code\r\nSince transactions have to be approved within the contract they are created in\r\n(So like approving a erc20 transaction must be done in an erc20 contract)\r\nBefore doing a transaction please approve it in the respective contract\r\n*/\r\npragma solidity ^0.8.20;\r\n\r\n    import \"@openzeppelin/contracts/token/ERC721/ERC721.sol\";\r\n    import \"@openzeppelin/contracts/token/ERC721/extensions/ERC721Burnable.sol\";\r\n    import \"@openzeppelin/contracts/access/Ownable.sol\";\r\n    import \"@openzeppelin/contracts/token/ERC20/ERC20.sol\";\r\n    import \"@openzeppelin/contracts/token/ERC20/IERC20.sol\";\r\n    import \"@openzeppelin/contracts/token/ERC1155/ERC1155.sol\";\r\n    import \"@openzeppelin/contracts/token/ERC1155/extensions/ERC1155Burnable.sol\";\r\n    import \"@openzeppelin/contracts/token/ERC721/IERC721.sol\";\r\n    import \"@openzeppelin/contracts/token/ERC1155/IERC1155.sol\";\r\n    import \"@openzeppelin/contracts/token/ERC20/extensions/ERC20Burnable.sol\";\r\n\r\n\r\n\r\ncontract DeedToken is ERC721, ERC721Burnable, Ownable {\r\n    /*\r\n        This token may have meta data about basic info about the house such as square footage and address\r\n    */\r\n    //Data-------------------------------------------------------------------------------------------------------------------\r\n        uint256 private _nextTokenId = 1;\r\n        address private BuildingContract = address(0);\r\n\r\n    //Modifiers-------------------------------------------------------------------------------------------------------------------\r\n        //Checks if BuildingContract has not been filled out\r\n        modifier NullBuildingContractAddress(){\r\n            assert(BuildingContract ==  address(0));\r\n            _;\r\n        }   \r\n        //Checks if BuildingContract has been filled out\r\n        modifier MustHaveBuildingContract(){\r\n            assert(BuildingContract !=  address(0));\r\n            _;\r\n        }\r\n        //Checks if only the buildingContract is calling the function\r\n        modifier OnlyBuildingToken(){\r\n            require(msg.sender == BuildingContract);\r\n            _;\r\n        }\r\n    //Functions-------------------------------------------------------------------------------------------------------------------\r\n        constructor()\r\n            ERC721(\"DeedToken\", \"DDTK\")\r\n            Ownable(msg.sender)\r\n        {    }\r\n        \r\n        //Is called upon creation of BuildingTokenContract and will automatically set BuildingContract when that occurs\r\n        function setBuildingContractAddress() external NullBuildingContractAddress{\r\n            BuildingContract = msg.sender;\r\n        }\r\n\r\n        //This is called from the 1155 where it just creates a new erc721 token\r\n        function safeMint(address to) external MustHaveBuildingContract OnlyBuildingToken{\r\n            uint256 tokenId = _nextTokenId++;\r\n            _safeMint(to, tokenId);\r\n        }\r\n        //This checks the owner of a token\r\n        function checkOwner(uint256 _id) public view returns(address){\r\n            return ownerOf(_id);\r\n        }\r\n        //This just gets the next tokenID\r\n        function nextTokenId() public view returns(uint256){\r\n            return _nextTokenId;\r\n        }\r\n        function requestApproval() public MustHaveBuildingContract{\r\n            setApprovalForAll(BuildingContract,true);\r\n        }\r\n\r\n    }",
  "sourcePath": "C:\\Users\\matth\\UB\\Fall2023\\CSE426\\landlord-tenant-project\\contracts\\DeedToken.sol",
  "compiler": {
    "name": "solc",
    "version": "0.8.21+commit.d9974bed.Emscripten.clang"
  },
  "schemaVersion": "3.4.16",
  "updatedAt": "2023-11-19T11:59:46.883Z",
  "devdoc": {
    "errors": {
      "ERC721IncorrectOwner(address,uint256,address)": [
        {
          "details": "Indicates an error related to the ownership over a particular token. Used in transfers.",
          "params": {
            "owner": "Address of the current owner of a token.",
            "sender": "Address whose tokens are being transferred.",
            "tokenId": "Identifier number of a token."
          }
        }
      ],
      "ERC721InsufficientApproval(address,uint256)": [
        {
          "details": "Indicates a failure with the `operator`s approval. Used in transfers.",
          "params": {
            "operator": "Address that may be allowed to operate on tokens without being their owner.",
            "tokenId": "Identifier number of a token."
          }
        }
      ],
      "ERC721InvalidApprover(address)": [
        {
          "details": "Indicates a failure with the `approver` of a token to be approved. Used in approvals.",
          "params": {
            "approver": "Address initiating an approval operation."
          }
        }
      ],
      "ERC721InvalidOperator(address)": [
        {
          "details": "Indicates a failure with the `operator` to be approved. Used in approvals.",
          "params": {
            "operator": "Address that may be allowed to operate on tokens without being their owner."
          }
        }
      ],
      "ERC721InvalidOwner(address)": [
        {
          "details": "Indicates that an address can't be an owner. For example, `address(0)` is a forbidden owner in EIP-20. Used in balance queries.",
          "params": {
            "owner": "Address of the current owner of a token."
          }
        }
      ],
      "ERC721InvalidReceiver(address)": [
        {
          "details": "Indicates a failure with the token `receiver`. Used in transfers.",
          "params": {
            "receiver": "Address to which tokens are being transferred."
          }
        }
      ],
      "ERC721InvalidSender(address)": [
        {
          "details": "Indicates a failure with the token `sender`. Used in transfers.",
          "params": {
            "sender": "Address whose tokens are being transferred."
          }
        }
      ],
      "ERC721NonexistentToken(uint256)": [
        {
          "details": "Indicates a `tokenId` whose `owner` is the zero address.",
          "params": {
            "tokenId": "Identifier number of a token."
          }
        }
      ],
      "OwnableInvalidOwner(address)": [
        {
          "details": "The owner is not a valid owner account. (eg. `address(0)`)"
        }
      ],
      "OwnableUnauthorizedAccount(address)": [
        {
          "details": "The caller account is not authorized to perform an operation."
        }
      ]
    },
    "events": {
      "Approval(address,address,uint256)": {
        "details": "Emitted when `owner` enables `approved` to manage the `tokenId` token."
      },
      "ApprovalForAll(address,address,bool)": {
        "details": "Emitted when `owner` enables or disables (`approved`) `operator` to manage all of its assets."
      },
      "Transfer(address,address,uint256)": {
        "details": "Emitted when `tokenId` token is transferred from `from` to `to`."
      }
    },
    "kind": "dev",
    "methods": {
      "approve(address,uint256)": {
        "details": "See {IERC721-approve}."
      },
      "balanceOf(address)": {
        "details": "See {IERC721-balanceOf}."
      },
      "burn(uint256)": {
        "details": "Burns `tokenId`. See {ERC721-_burn}. Requirements: - The caller must own `tokenId` or be an approved operator."
      },
      "getApproved(uint256)": {
        "details": "See {IERC721-getApproved}."
      },
      "isApprovedForAll(address,address)": {
        "details": "See {IERC721-isApprovedForAll}."
      },
      "name()": {
        "details": "See {IERC721Metadata-name}."
      },
      "owner()": {
        "details": "Returns the address of the current owner."
      },
      "ownerOf(uint256)": {
        "details": "See {IERC721-ownerOf}."
      },
      "renounceOwnership()": {
        "details": "Leaves the contract without owner. It will not be possible to call `onlyOwner` functions. Can only be called by the current owner. NOTE: Renouncing ownership will leave the contract without an owner, thereby disabling any functionality that is only available to the owner."
      },
      "safeTransferFrom(address,address,uint256)": {
        "details": "See {IERC721-safeTransferFrom}."
      },
      "safeTransferFrom(address,address,uint256,bytes)": {
        "details": "See {IERC721-safeTransferFrom}."
      },
      "setApprovalForAll(address,bool)": {
        "details": "See {IERC721-setApprovalForAll}."
      },
      "supportsInterface(bytes4)": {
        "details": "See {IERC165-supportsInterface}."
      },
      "symbol()": {
        "details": "See {IERC721Metadata-symbol}."
      },
      "tokenURI(uint256)": {
        "details": "See {IERC721Metadata-tokenURI}."
      },
      "transferFrom(address,address,uint256)": {
        "details": "See {IERC721-transferFrom}."
      },
      "transferOwnership(address)": {
        "details": "Transfers ownership of the contract to a new account (`newOwner`). Can only be called by the current owner."
      }
    },
    "version": 1
  },
  "userdoc": {
    "kind": "user",
    "methods": {},
    "version": 1
  }
}