{
  "contractName": "RentToken",
  "abi": [
    {
      "inputs": [],
      "stateMutability": "nonpayable",
      "type": "constructor"
    },
    {
      "inputs": [
        {
          "internalType": "address",
          "name": "spender",
          "type": "address"
        },
        {
          "internalType": "uint256",
          "name": "allowance",
          "type": "uint256"
        },
        {
          "internalType": "uint256",
          "name": "needed",
          "type": "uint256"
        }
      ],
      "name": "ERC20InsufficientAllowance",
      "type": "error"
    },
    {
      "inputs": [
        {
          "internalType": "address",
          "name": "sender",
          "type": "address"
        },
        {
          "internalType": "uint256",
          "name": "balance",
          "type": "uint256"
        },
        {
          "internalType": "uint256",
          "name": "needed",
          "type": "uint256"
        }
      ],
      "name": "ERC20InsufficientBalance",
      "type": "error"
    },
    {
      "inputs": [
        {
          "internalType": "address",
          "name": "approver",
          "type": "address"
        }
      ],
      "name": "ERC20InvalidApprover",
      "type": "error"
    },
    {
      "inputs": [
        {
          "internalType": "address",
          "name": "receiver",
          "type": "address"
        }
      ],
      "name": "ERC20InvalidReceiver",
      "type": "error"
    },
    {
      "inputs": [
        {
          "internalType": "address",
          "name": "sender",
          "type": "address"
        }
      ],
      "name": "ERC20InvalidSender",
      "type": "error"
    },
    {
      "inputs": [
        {
          "internalType": "address",
          "name": "spender",
          "type": "address"
        }
      ],
      "name": "ERC20InvalidSpender",
      "type": "error"
    },
    {
      "inputs": [
        {
          "internalType": "address",
          "name": "owner",
          "type": "address"
        }
      ],
      "name": "OwnableInvalidOwner",
      "type": "error"
    },
    {
      "inputs": [
        {
          "internalType": "address",
          "name": "account",
          "type": "address"
        }
      ],
      "name": "OwnableUnauthorizedAccount",
      "type": "error"
    },
    {
      "anonymous": false,
      "inputs": [
        {
          "indexed": true,
          "internalType": "address",
          "name": "owner",
          "type": "address"
        },
        {
          "indexed": true,
          "internalType": "address",
          "name": "spender",
          "type": "address"
        },
        {
          "indexed": false,
          "internalType": "uint256",
          "name": "value",
          "type": "uint256"
        }
      ],
      "name": "Approval",
      "type": "event"
    },
    {
      "anonymous": false,
      "inputs": [
        {
          "indexed": true,
          "internalType": "address",
          "name": "previousOwner",
          "type": "address"
        },
        {
          "indexed": true,
          "internalType": "address",
          "name": "newOwner",
          "type": "address"
        }
      ],
      "name": "OwnershipTransferred",
      "type": "event"
    },
    {
      "anonymous": false,
      "inputs": [
        {
          "indexed": true,
          "internalType": "address",
          "name": "from",
          "type": "address"
        },
        {
          "indexed": true,
          "internalType": "address",
          "name": "to",
          "type": "address"
        },
        {
          "indexed": false,
          "internalType": "uint256",
          "name": "value",
          "type": "uint256"
        }
      ],
      "name": "Transfer",
      "type": "event"
    },
    {
      "inputs": [
        {
          "internalType": "address",
          "name": "owner",
          "type": "address"
        },
        {
          "internalType": "address",
          "name": "spender",
          "type": "address"
        }
      ],
      "name": "allowance",
      "outputs": [
        {
          "internalType": "uint256",
          "name": "",
          "type": "uint256"
        }
      ],
      "stateMutability": "view",
      "type": "function"
    },
    {
      "inputs": [
        {
          "internalType": "address",
          "name": "spender",
          "type": "address"
        },
        {
          "internalType": "uint256",
          "name": "value",
          "type": "uint256"
        }
      ],
      "name": "approve",
      "outputs": [
        {
          "internalType": "bool",
          "name": "",
          "type": "bool"
        }
      ],
      "stateMutability": "nonpayable",
      "type": "function"
    },
    {
      "inputs": [
        {
          "internalType": "address",
          "name": "account",
          "type": "address"
        }
      ],
      "name": "balanceOf",
      "outputs": [
        {
          "internalType": "uint256",
          "name": "",
          "type": "uint256"
        }
      ],
      "stateMutability": "view",
      "type": "function"
    },
    {
      "inputs": [
        {
          "internalType": "uint256",
          "name": "value",
          "type": "uint256"
        }
      ],
      "name": "burn",
      "outputs": [],
      "stateMutability": "nonpayable",
      "type": "function"
    },
    {
      "inputs": [
        {
          "internalType": "address",
          "name": "account",
          "type": "address"
        },
        {
          "internalType": "uint256",
          "name": "value",
          "type": "uint256"
        }
      ],
      "name": "burnFrom",
      "outputs": [],
      "stateMutability": "nonpayable",
      "type": "function"
    },
    {
      "inputs": [],
      "name": "decimals",
      "outputs": [
        {
          "internalType": "uint8",
          "name": "",
          "type": "uint8"
        }
      ],
      "stateMutability": "view",
      "type": "function"
    },
    {
      "inputs": [],
      "name": "name",
      "outputs": [
        {
          "internalType": "string",
          "name": "",
          "type": "string"
        }
      ],
      "stateMutability": "view",
      "type": "function"
    },
    {
      "inputs": [],
      "name": "owner",
      "outputs": [
        {
          "internalType": "address",
          "name": "",
          "type": "address"
        }
      ],
      "stateMutability": "view",
      "type": "function"
    },
    {
      "inputs": [],
      "name": "renounceOwnership",
      "outputs": [],
      "stateMutability": "nonpayable",
      "type": "function"
    },
    {
      "inputs": [],
      "name": "symbol",
      "outputs": [
        {
          "internalType": "string",
          "name": "",
          "type": "string"
        }
      ],
      "stateMutability": "view",
      "type": "function"
    },
    {
      "inputs": [],
      "name": "totalSupply",
      "outputs": [
        {
          "internalType": "uint256",
          "name": "",
          "type": "uint256"
        }
      ],
      "stateMutability": "view",
      "type": "function"
    },
    {
      "inputs": [
        {
          "internalType": "address",
          "name": "to",
          "type": "address"
        },
        {
          "internalType": "uint256",
          "name": "value",
          "type": "uint256"
        }
      ],
      "name": "transfer",
      "outputs": [
        {
          "internalType": "bool",
          "name": "",
          "type": "bool"
        }
      ],
      "stateMutability": "nonpayable",
      "type": "function"
    },
    {
      "inputs": [
        {
          "internalType": "address",
          "name": "from",
          "type": "address"
        },
        {
          "internalType": "address",
          "name": "to",
          "type": "address"
        },
        {
          "internalType": "uint256",
          "name": "value",
          "type": "uint256"
        }
      ],
      "name": "transferFrom",
      "outputs": [
        {
          "internalType": "bool",
          "name": "",
          "type": "bool"
        }
      ],
      "stateMutability": "nonpayable",
      "type": "function"
    },
    {
      "inputs": [
        {
          "internalType": "address",
          "name": "newOwner",
          "type": "address"
        }
      ],
      "name": "transferOwnership",
      "outputs": [],
      "stateMutability": "nonpayable",
      "type": "function"
    },
    {
      "inputs": [],
      "name": "setBuildingContractAddress",
      "outputs": [],
      "stateMutability": "nonpayable",
      "type": "function"
    },
    {
      "inputs": [
        {
          "internalType": "uint256",
          "name": "_amount",
          "type": "uint256"
        }
      ],
      "name": "requestApproval",
      "outputs": [],
      "stateMutability": "nonpayable",
      "type": "function"
    },
    {
      "inputs": [
        {
          "internalType": "uint256",
          "name": "value",
          "type": "uint256"
        },
        {
          "internalType": "address",
          "name": "_sender",
          "type": "address"
        }
      ],
      "name": "buyRentTokens",
      "outputs": [],
      "stateMutability": "nonpayable",
      "type": "function"
    }
  ],
  "bytecode": "0x608060405260016006555f60085f6101000a81548173ffffffffffffffffffffffffffffffffffffffff021916908373ffffffffffffffffffffffffffffffffffffffff16021790555034801562000055575f80fd5b50336040518060400160405280600981526020017f526f6f6d546f6b656e00000000000000000000000000000000000000000000008152506040518060400160405280600481526020017f5265544b000000000000000000000000000000000000000000000000000000008152508160039081620000d49190620004db565b508060049081620000e69190620004db565b5050505f73ffffffffffffffffffffffffffffffffffffffff168173ffffffffffffffffffffffffffffffffffffffff16036200015c575f6040517f1e4fbdf700000000000000000000000000000000000000000000000000000000815260040162000153919062000602565b60405180910390fd5b6200016d81620001b460201b60201c565b503360075f6101000a81548173ffffffffffffffffffffffffffffffffffffffff021916908373ffffffffffffffffffffffffffffffffffffffff1602179055506200061d565b5f60055f9054906101000a900473ffffffffffffffffffffffffffffffffffffffff1690508160055f6101000a81548173ffffffffffffffffffffffffffffffffffffffff021916908373ffffffffffffffffffffffffffffffffffffffff1602179055508173ffffffffffffffffffffffffffffffffffffffff168173ffffffffffffffffffffffffffffffffffffffff167f8be0079c531659141344cd1fd0a4f28419497f9722a3daafe3b4186f6b6457e060405160405180910390a35050565b5f81519050919050565b7f4e487b71000000000000000000000000000000000000000000000000000000005f52604160045260245ffd5b7f4e487b71000000000000000000000000000000000000000000000000000000005f52602260045260245ffd5b5f6002820490506001821680620002f357607f821691505b602082108103620003095762000308620002ae565b5b50919050565b5f819050815f5260205f209050919050565b5f6020601f8301049050919050565b5f82821b905092915050565b5f600883026200036d7fffffffffffffffffffffffffffffffffffffffffffffffffffffffffffffffff8262000330565b62000379868362000330565b95508019841693508086168417925050509392505050565b5f819050919050565b5f819050919050565b5f620003c3620003bd620003b78462000391565b6200039a565b62000391565b9050919050565b5f819050919050565b620003de83620003a3565b620003f6620003ed82620003ca565b8484546200033c565b825550505050565b5f90565b6200040c620003fe565b62000419818484620003d3565b505050565b5b818110156200044057620004345f8262000402565b6001810190506200041f565b5050565b601f8211156200048f5762000459816200030f565b620004648462000321565b8101602085101562000474578190505b6200048c620004838562000321565b8301826200041e565b50505b505050565b5f82821c905092915050565b5f620004b15f198460080262000494565b1980831691505092915050565b5f620004cb8383620004a0565b9150826002028217905092915050565b620004e68262000277565b67ffffffffffffffff81111562000502576200050162000281565b5b6200050e8254620002db565b6200051b82828562000444565b5f60209050601f83116001811462000551575f84156200053c578287015190505b620005488582620004be565b865550620005b7565b601f19841662000561866200030f565b5f5b828110156200058a5784890151825560018201915060208501945060208101905062000563565b86831015620005aa5784890151620005a6601f891682620004a0565b8355505b6001600288020188555050505b505050505050565b5f73ffffffffffffffffffffffffffffffffffffffff82169050919050565b5f620005ea82620005bf565b9050919050565b620005fc81620005de565b82525050565b5f602082019050620006175f830184620005f1565b92915050565b61153e806200062b5f395ff3fe608060405234801561000f575f80fd5b5060043610610109575f3560e01c806370a08231116100a057806395d89b411161006f57806395d89b411461028f578063a9059cbb146102ad578063dd62ed3e146102dd578063e8c8cc281461030d578063f2fde38b1461031757610109565b806370a082311461021b578063715018a61461024b57806379cc6790146102555780638da5cb5b1461027157610109565b806323b872dd116100dc57806323b872dd14610195578063313ce567146101c557806342966c68146101e35780636d148f84146101ff57610109565b806306fdde031461010d578063095ea7b31461012b57806318160ddd1461015b578063191dd14914610179575b5f80fd5b610115610333565b60405161012291906110e0565b60405180910390f35b61014560048036038101906101409190611191565b6103c3565b60405161015291906111e9565b60405180910390f35b6101636103e5565b6040516101709190611211565b60405180910390f35b610193600480360381019061018e919061122a565b6103ee565b005b6101af60048036038101906101aa9190611268565b6104be565b6040516101bc91906111e9565b60405180910390f35b6101cd6104ec565b6040516101da91906112d3565b60405180910390f35b6101fd60048036038101906101f891906112ec565b6104f4565b005b610219600480360381019061021491906112ec565b610508565b005b61023560048036038101906102309190611317565b610594565b6040516102429190611211565b60405180910390f35b6102536105d9565b005b61026f600480360381019061026a9190611191565b6105ec565b005b61027961060c565b6040516102869190611351565b60405180910390f35b610297610634565b6040516102a491906110e0565b60405180910390f35b6102c760048036038101906102c29190611191565b6106c4565b6040516102d491906111e9565b60405180910390f35b6102f760048036038101906102f2919061136a565b6106e6565b6040516103049190611211565b60405180910390f35b610315610768565b005b610331600480360381019061032c9190611317565b610807565b005b606060038054610342906113d5565b80601f016020809104026020016040519081016040528092919081815260200182805461036e906113d5565b80156103b95780601f10610390576101008083540402835291602001916103b9565b820191905f5260205f20905b81548152906001019060200180831161039c57829003601f168201915b5050505050905090565b5f806103cd61088b565b90506103da818585610892565b600191505092915050565b5f600254905090565b5f73ffffffffffffffffffffffffffffffffffffffff1660085f9054906101000a900473ffffffffffffffffffffffffffffffffffffffff1673ffffffffffffffffffffffffffffffffffffffff160361044b5761044a611405565b5b60085f9054906101000a900473ffffffffffffffffffffffffffffffffffffffff1673ffffffffffffffffffffffffffffffffffffffff163373ffffffffffffffffffffffffffffffffffffffff16146104a3575f80fd5b6104ba81600654846104b5919061145f565b6108a4565b5050565b5f806104c861088b565b90506104d5858285610923565b6104e08585856109b5565b60019150509392505050565b5f6012905090565b6105056104ff61088b565b82610aa5565b50565b5f73ffffffffffffffffffffffffffffffffffffffff1660085f9054906101000a900473ffffffffffffffffffffffffffffffffffffffff1673ffffffffffffffffffffffffffffffffffffffff160361056557610564611405565b5b61059060085f9054906101000a900473ffffffffffffffffffffffffffffffffffffffff16826103c3565b5050565b5f805f8373ffffffffffffffffffffffffffffffffffffffff1673ffffffffffffffffffffffffffffffffffffffff1681526020019081526020015f20549050919050565b6105e1610b24565b6105ea5f610bab565b565b6105fe826105f861088b565b83610923565b6106088282610aa5565b5050565b5f60055f9054906101000a900473ffffffffffffffffffffffffffffffffffffffff16905090565b606060048054610643906113d5565b80601f016020809104026020016040519081016040528092919081815260200182805461066f906113d5565b80156106ba5780601f10610691576101008083540402835291602001916106ba565b820191905f5260205f20905b81548152906001019060200180831161069d57829003601f168201915b5050505050905090565b5f806106ce61088b565b90506106db8185856109b5565b600191505092915050565b5f60015f8473ffffffffffffffffffffffffffffffffffffffff1673ffffffffffffffffffffffffffffffffffffffff1681526020019081526020015f205f8373ffffffffffffffffffffffffffffffffffffffff1673ffffffffffffffffffffffffffffffffffffffff1681526020019081526020015f2054905092915050565b5f73ffffffffffffffffffffffffffffffffffffffff1660085f9054906101000a900473ffffffffffffffffffffffffffffffffffffffff1673ffffffffffffffffffffffffffffffffffffffff16146107c5576107c4611405565b5b3360085f6101000a81548173ffffffffffffffffffffffffffffffffffffffff021916908373ffffffffffffffffffffffffffffffffffffffff160217905550565b61080f610b24565b5f73ffffffffffffffffffffffffffffffffffffffff168173ffffffffffffffffffffffffffffffffffffffff160361087f575f6040517f1e4fbdf70000000000000000000000000000000000000000000000000000000081526004016108769190611351565b60405180910390fd5b61088881610bab565b50565b5f33905090565b61089f8383836001610c6e565b505050565b5f73ffffffffffffffffffffffffffffffffffffffff168273ffffffffffffffffffffffffffffffffffffffff1603610914575f6040517fec442f0500000000000000000000000000000000000000000000000000000000815260040161090b9190611351565b60405180910390fd5b61091f5f8383610e3d565b5050565b5f61092e84846106e6565b90507fffffffffffffffffffffffffffffffffffffffffffffffffffffffffffffffff81146109af57818110156109a0578281836040517ffb8f41b2000000000000000000000000000000000000000000000000000000008152600401610997939291906114a0565b60405180910390fd5b6109ae84848484035f610c6e565b5b50505050565b5f73ffffffffffffffffffffffffffffffffffffffff168373ffffffffffffffffffffffffffffffffffffffff1603610a25575f6040517f96c6fd1e000000000000000000000000000000000000000000000000000000008152600401610a1c9190611351565b60405180910390fd5b5f73ffffffffffffffffffffffffffffffffffffffff168273ffffffffffffffffffffffffffffffffffffffff1603610a95575f6040517fec442f05000000000000000000000000000000000000000000000000000000008152600401610a8c9190611351565b60405180910390fd5b610aa0838383610e3d565b505050565b5f73ffffffffffffffffffffffffffffffffffffffff168273ffffffffffffffffffffffffffffffffffffffff1603610b15575f6040517f96c6fd1e000000000000000000000000000000000000000000000000000000008152600401610b0c9190611351565b60405180910390fd5b610b20825f83610e3d565b5050565b610b2c61088b565b73ffffffffffffffffffffffffffffffffffffffff16610b4a61060c565b73ffffffffffffffffffffffffffffffffffffffff1614610ba957610b6d61088b565b6040517f118cdaa7000000000000000000000000000000000000000000000000000000008152600401610ba09190611351565b60405180910390fd5b565b5f60055f9054906101000a900473ffffffffffffffffffffffffffffffffffffffff1690508160055f6101000a81548173ffffffffffffffffffffffffffffffffffffffff021916908373ffffffffffffffffffffffffffffffffffffffff1602179055508173ffffffffffffffffffffffffffffffffffffffff168173ffffffffffffffffffffffffffffffffffffffff167f8be0079c531659141344cd1fd0a4f28419497f9722a3daafe3b4186f6b6457e060405160405180910390a35050565b5f73ffffffffffffffffffffffffffffffffffffffff168473ffffffffffffffffffffffffffffffffffffffff1603610cde575f6040517fe602df05000000000000000000000000000000000000000000000000000000008152600401610cd59190611351565b60405180910390fd5b5f73ffffffffffffffffffffffffffffffffffffffff168373ffffffffffffffffffffffffffffffffffffffff1603610d4e575f6040517f94280d62000000000000000000000000000000000000000000000000000000008152600401610d459190611351565b60405180910390fd5b8160015f8673ffffffffffffffffffffffffffffffffffffffff1673ffffffffffffffffffffffffffffffffffffffff1681526020019081526020015f205f8573ffffffffffffffffffffffffffffffffffffffff1673ffffffffffffffffffffffffffffffffffffffff1681526020019081526020015f20819055508015610e37578273ffffffffffffffffffffffffffffffffffffffff168473ffffffffffffffffffffffffffffffffffffffff167f8c5be1e5ebec7d5bd14f71427d1e84f3dd0314c0f7b2291e5b200ac8c7c3b92584604051610e2e9190611211565b60405180910390a35b50505050565b5f73ffffffffffffffffffffffffffffffffffffffff168373ffffffffffffffffffffffffffffffffffffffff1603610e8d578060025f828254610e8191906114d5565b92505081905550610f5b565b5f805f8573ffffffffffffffffffffffffffffffffffffffff1673ffffffffffffffffffffffffffffffffffffffff1681526020019081526020015f2054905081811015610f16578381836040517fe450d38c000000000000000000000000000000000000000000000000000000008152600401610f0d939291906114a0565b60405180910390fd5b8181035f808673ffffffffffffffffffffffffffffffffffffffff1673ffffffffffffffffffffffffffffffffffffffff1681526020019081526020015f2081905550505b5f73ffffffffffffffffffffffffffffffffffffffff168273ffffffffffffffffffffffffffffffffffffffff1603610fa2578060025f8282540392505081905550610fec565b805f808473ffffffffffffffffffffffffffffffffffffffff1673ffffffffffffffffffffffffffffffffffffffff1681526020019081526020015f205f82825401925050819055505b8173ffffffffffffffffffffffffffffffffffffffff168373ffffffffffffffffffffffffffffffffffffffff167fddf252ad1be2c89b69c2b068fc378daa952ba7f163c4a11628f55a4df523b3ef836040516110499190611211565b60405180910390a3505050565b5f81519050919050565b5f82825260208201905092915050565b5f5b8381101561108d578082015181840152602081019050611072565b5f8484015250505050565b5f601f19601f8301169050919050565b5f6110b282611056565b6110bc8185611060565b93506110cc818560208601611070565b6110d581611098565b840191505092915050565b5f6020820190508181035f8301526110f881846110a8565b905092915050565b5f80fd5b5f73ffffffffffffffffffffffffffffffffffffffff82169050919050565b5f61112d82611104565b9050919050565b61113d81611123565b8114611147575f80fd5b50565b5f8135905061115881611134565b92915050565b5f819050919050565b6111708161115e565b811461117a575f80fd5b50565b5f8135905061118b81611167565b92915050565b5f80604083850312156111a7576111a6611100565b5b5f6111b48582860161114a565b92505060206111c58582860161117d565b9150509250929050565b5f8115159050919050565b6111e3816111cf565b82525050565b5f6020820190506111fc5f8301846111da565b92915050565b61120b8161115e565b82525050565b5f6020820190506112245f830184611202565b92915050565b5f80604083850312156112405761123f611100565b5b5f61124d8582860161117d565b925050602061125e8582860161114a565b9150509250929050565b5f805f6060848603121561127f5761127e611100565b5b5f61128c8682870161114a565b935050602061129d8682870161114a565b92505060406112ae8682870161117d565b9150509250925092565b5f60ff82169050919050565b6112cd816112b8565b82525050565b5f6020820190506112e65f8301846112c4565b92915050565b5f6020828403121561130157611300611100565b5b5f61130e8482850161117d565b91505092915050565b5f6020828403121561132c5761132b611100565b5b5f6113398482850161114a565b91505092915050565b61134b81611123565b82525050565b5f6020820190506113645f830184611342565b92915050565b5f80604083850312156113805761137f611100565b5b5f61138d8582860161114a565b925050602061139e8582860161114a565b9150509250929050565b7f4e487b71000000000000000000000000000000000000000000000000000000005f52602260045260245ffd5b5f60028204905060018216806113ec57607f821691505b6020821081036113ff576113fe6113a8565b5b50919050565b7f4e487b71000000000000000000000000000000000000000000000000000000005f52600160045260245ffd5b7f4e487b71000000000000000000000000000000000000000000000000000000005f52601160045260245ffd5b5f6114698261115e565b91506114748361115e565b92508282026114828161115e565b9150828204841483151761149957611498611432565b5b5092915050565b5f6060820190506114b35f830186611342565b6114c06020830185611202565b6114cd6040830184611202565b949350505050565b5f6114df8261115e565b91506114ea8361115e565b925082820190508082111561150257611501611432565b5b9291505056fea2646970667358221220f46ac253919350b5da713b142a9292ea5a36e186ae41849c27dfb0908866258c64736f6c63430008150033",
  "immutableReferences": {},
  "source": "// SPDX-License-Identifier: MIT\r\n\r\n/*\r\nWarning when testing code\r\nSince transactions have to be approved within the contract they are created in\r\n(So like approving a erc20 transaction must be done in an erc20 contract)\r\nBefore doing a transaction please approve it in the respective contract\r\n*/\r\npragma solidity ^0.8.20;\r\n\r\n    import \"@openzeppelin/contracts/token/ERC721/ERC721.sol\";\r\n    import \"@openzeppelin/contracts/token/ERC721/extensions/ERC721Burnable.sol\";\r\n    import \"@openzeppelin/contracts/access/Ownable.sol\";\r\n    import \"@openzeppelin/contracts/token/ERC20/ERC20.sol\";\r\n    import \"@openzeppelin/contracts/token/ERC20/IERC20.sol\";\r\n    import \"@openzeppelin/contracts/token/ERC1155/ERC1155.sol\";\r\n    import \"@openzeppelin/contracts/token/ERC1155/extensions/ERC1155Burnable.sol\";\r\n    import \"@openzeppelin/contracts/token/ERC721/IERC721.sol\";\r\n    import \"@openzeppelin/contracts/token/ERC1155/IERC1155.sol\";\r\n    import \"@openzeppelin/contracts/token/ERC20/extensions/ERC20Burnable.sol\";\r\n\r\n\r\ncontract RentToken is ERC20, Ownable, ERC20Burnable {\r\n    //Data-------------------------------------------------------------------------------------------------------------------\r\n        uint    private tokens_per_wei = 1;\r\n        address private contractOwner;\r\n        address private BuildingContract = address(0);\r\n\r\n    //Modifiers-------------------------------------------------------------------------------------------------------------------\r\n        //Checks if BuildingContract has not been filled out\r\n        modifier NullBuildingContractAddress(){\r\n            assert(BuildingContract ==  address(0));\r\n            _;\r\n        }\r\n        //Checks if BuildingContract has been filled out\r\n        modifier MustHaveBuildingContract(){\r\n            assert(BuildingContract !=  address(0));\r\n            _;\r\n        }\r\n        \r\n        //Checks if only the buildingContract is calling the function\r\n        modifier OnlyBuildingToken(){\r\n            require(msg.sender == BuildingContract);\r\n            _;\r\n        }\r\n    //Functions-------------------------------------------------------------------------------------------------------------------\r\n        constructor() ERC20(\"RoomToken\", \"ReTK\") Ownable(msg.sender)\r\n        {        \r\n            contractOwner = msg.sender;\r\n        }\r\n\r\n        //Is called upon creation of BuildingTokenContract and will automatically set BuildingContract when that occurs\r\n        function setBuildingContractAddress() external NullBuildingContractAddress{\r\n            BuildingContract = msg.sender;\r\n        }\r\n\r\n        //This should be the only function called within the erc20 contract (Since apparently you cant approve things from different contracts\r\n        //This will basically just approve a certain amount for a transaction sent from the Building Contract\r\n        function requestApproval(uint _amount) public MustHaveBuildingContract{\r\n            approve(BuildingContract,_amount);\r\n        }\r\n\r\n        //This is called in the ERC1155 contract and will allow anyone to buy Rent Tokens to trade\r\n        function buyRentTokens(uint value, address _sender) external MustHaveBuildingContract OnlyBuildingToken {\r\n            _mint(_sender,(value * tokens_per_wei));\r\n        }}\r\n",
  "sourcePath": "C:\\Users\\matth\\UB\\Fall2023\\CSE426\\landlord-tenant-project\\contracts\\RentToken.sol",
  "compiler": {
    "name": "solc",
    "version": "0.8.21+commit.d9974bed.Emscripten.clang"
  },
  "schemaVersion": "3.4.16",
  "updatedAt": "2023-11-19T11:59:46.893Z",
  "devdoc": {
    "errors": {
      "ERC20InsufficientAllowance(address,uint256,uint256)": [
        {
          "details": "Indicates a failure with the `spender`s `allowance`. Used in transfers.",
          "params": {
            "allowance": "Amount of tokens a `spender` is allowed to operate with.",
            "needed": "Minimum amount required to perform a transfer.",
            "spender": "Address that may be allowed to operate on tokens without being their owner."
          }
        }
      ],
      "ERC20InsufficientBalance(address,uint256,uint256)": [
        {
          "details": "Indicates an error related to the current `balance` of a `sender`. Used in transfers.",
          "params": {
            "balance": "Current balance for the interacting account.",
            "needed": "Minimum amount required to perform a transfer.",
            "sender": "Address whose tokens are being transferred."
          }
        }
      ],
      "ERC20InvalidApprover(address)": [
        {
          "details": "Indicates a failure with the `approver` of a token to be approved. Used in approvals.",
          "params": {
            "approver": "Address initiating an approval operation."
          }
        }
      ],
      "ERC20InvalidReceiver(address)": [
        {
          "details": "Indicates a failure with the token `receiver`. Used in transfers.",
          "params": {
            "receiver": "Address to which tokens are being transferred."
          }
        }
      ],
      "ERC20InvalidSender(address)": [
        {
          "details": "Indicates a failure with the token `sender`. Used in transfers.",
          "params": {
            "sender": "Address whose tokens are being transferred."
          }
        }
      ],
      "ERC20InvalidSpender(address)": [
        {
          "details": "Indicates a failure with the `spender` to be approved. Used in approvals.",
          "params": {
            "spender": "Address that may be allowed to operate on tokens without being their owner."
          }
        }
      ],
      "OwnableInvalidOwner(address)": [
        {
          "details": "The owner is not a valid owner account. (eg. `address(0)`)"
        }
      ],
      "OwnableUnauthorizedAccount(address)": [
        {
          "details": "The caller account is not authorized to perform an operation."
        }
      ]
    },
    "events": {
      "Approval(address,address,uint256)": {
        "details": "Emitted when the allowance of a `spender` for an `owner` is set by a call to {approve}. `value` is the new allowance."
      },
      "Transfer(address,address,uint256)": {
        "details": "Emitted when `value` tokens are moved from one account (`from`) to another (`to`). Note that `value` may be zero."
      }
    },
    "kind": "dev",
    "methods": {
      "allowance(address,address)": {
        "details": "See {IERC20-allowance}."
      },
      "approve(address,uint256)": {
        "details": "See {IERC20-approve}. NOTE: If `value` is the maximum `uint256`, the allowance is not updated on `transferFrom`. This is semantically equivalent to an infinite approval. Requirements: - `spender` cannot be the zero address."
      },
      "balanceOf(address)": {
        "details": "See {IERC20-balanceOf}."
      },
      "burn(uint256)": {
        "details": "Destroys a `value` amount of tokens from the caller. See {ERC20-_burn}."
      },
      "burnFrom(address,uint256)": {
        "details": "Destroys a `value` amount of tokens from `account`, deducting from the caller's allowance. See {ERC20-_burn} and {ERC20-allowance}. Requirements: - the caller must have allowance for ``accounts``'s tokens of at least `value`."
      },
      "decimals()": {
        "details": "Returns the number of decimals used to get its user representation. For example, if `decimals` equals `2`, a balance of `505` tokens should be displayed to a user as `5.05` (`505 / 10 ** 2`). Tokens usually opt for a value of 18, imitating the relationship between Ether and Wei. This is the default value returned by this function, unless it's overridden. NOTE: This information is only used for _display_ purposes: it in no way affects any of the arithmetic of the contract, including {IERC20-balanceOf} and {IERC20-transfer}."
      },
      "name()": {
        "details": "Returns the name of the token."
      },
      "owner()": {
        "details": "Returns the address of the current owner."
      },
      "renounceOwnership()": {
        "details": "Leaves the contract without owner. It will not be possible to call `onlyOwner` functions. Can only be called by the current owner. NOTE: Renouncing ownership will leave the contract without an owner, thereby disabling any functionality that is only available to the owner."
      },
      "symbol()": {
        "details": "Returns the symbol of the token, usually a shorter version of the name."
      },
      "totalSupply()": {
        "details": "See {IERC20-totalSupply}."
      },
      "transfer(address,uint256)": {
        "details": "See {IERC20-transfer}. Requirements: - `to` cannot be the zero address. - the caller must have a balance of at least `value`."
      },
      "transferFrom(address,address,uint256)": {
        "details": "See {IERC20-transferFrom}. Emits an {Approval} event indicating the updated allowance. This is not required by the EIP. See the note at the beginning of {ERC20}. NOTE: Does not update the allowance if the current allowance is the maximum `uint256`. Requirements: - `from` and `to` cannot be the zero address. - `from` must have a balance of at least `value`. - the caller must have allowance for ``from``'s tokens of at least `value`."
      },
      "transferOwnership(address)": {
        "details": "Transfers ownership of the contract to a new account (`newOwner`). Can only be called by the current owner."
      }
    },
    "version": 1
  },
  "userdoc": {
    "kind": "user",
    "methods": {},
    "version": 1
  }
}